:020000040800F2
:10000000E80700209D010008C72500086F230008AD
:10001000C5250008B1020008292F000800000000D3
:100020000000000000000000000000007D28000823
:10003000E503000800000000C92500087F2800082B
:10004000B7010008B7010008B7010008B7010008B0
:10005000B7010008B7010008B7010008B7010008A0
:10006000B7010008B7010008B7010008B701000890
:10007000B70100089D030008A9030008B5030008A4
:10008000B7010008B7010008B7010008B701000870
:10009000B7010008B7010008B7010008B701000860
:1000A000B7010008B7010008B7010008B701000850
:1000B00079290008B7010008B7010008B701000856
:1000C000B7010008B7010008B7010008B701000830
:1000D000B70100081D2F0008B7010008B70100088C
:1000E000B7010008B7010008B7010008B701000810
:1000F000B7010008B7010008B7010008B701000800
:10010000B7010008B7010008B7010008B7010008EF
:10011000B7010008B701000895290008B7010008D9
:10012000B7010008B7010008B7010008B7010008CF
:10013000C1030008B5020008C1020008B7010008A9
:10014000B7010008B7010008B7010008B7010008AF
:10015000CD030008D9030008B7010008B701000863
:10016000B7010008B7010008B7010008B70100088F
:10017000B7010008B70100080000000000000000FF
:10018000B7010008B7010008DFF80CD000F07EF8D6
:1001900000480047692F0008E8070020064880470C
:1001A00006480047FEE7FEE7FEE7FEE7FEE7FEE75C
:1001B000FEE7FEE7FEE7FEE73529000889010008B3
:1001C0002DE9F05F0546002092469B46884606468C
:1001D000814640241BE0284641464746224600F01F
:1001E00044F853465A46C01A914110D31146184656
:1001F000224600F02BF82D1A67EB01084F462246E5
:100200000120002100F022F817EB00094E41201ECA
:10021000A4F10104DFDC484631462A46434600F09B
:1002200000B830BCBDE8C09FD2B201E000F8012B9D
:10023000491EFBD270470022F6E710B513460A4666
:1002400004461946FFF7F0FF204610BD202A04DBC4
:10025000203A00FA02F1002070479140C2F12003D9
:1002600020FA03F3194390407047202A04DB203A18
:1002700021FA02F00021704721FA02F3D040C2F1C6
:10028000200291400843194670470000064C074D74
:1002900006E0E06840F0010394E807009847103456
:1002A000AC42F6D3FFF774FFBC300008DC30000826
:1002B000FEE70000014800F083BC00004000002081
:1002C000014800F07DBC00009400002017498842DE
:1002D00001D10020704715492031884201D1012009
:1002E000704712494031884201D1022070470F49BE
:1002F0006031884201D1032070470C498031884227
:1003000001D1042070470949A031884201D105205C
:1003100070470649C031884201D106207047034921
:10032000E0318842D5D107207047000000600140CD
:10033000426B0168002A0A6811D022F001020A60AB
:1003400001680A6842F400220A6001680A6842F003
:1003500001020A6090F84C10032904D010E042F426
:1003600000320A600CE0816B21B901680A6842F032
:1003700002020A6090F8401001290AD0012181642C
:1003800090F84C10012906D05FF0040180F84C1061
:100390007047416CF3E70221F8E70000014800F0E4
:1003A000F6BC000018020020014800F0F0BC00007C
:1003B000A8020020014800F0EABC0000F002002082
:1003C000014800F0E4BC000060020020014800F099
:1003D000DEBC000080030020014800F0D8BC000013
:1003E000380300207047704770472DE9F0470446F6
:1003F000407900270E4601280BD04FF0010984F800
:10040000059002202071306802F01005042803D006
:1004100043E00220BDE8F0874FF0030802BB00F084
:1004200075FE074604E000F071FEC01B01280FD8DE
:100430002068406B0004F6D4012000F065FD2168BF
:10044000B069086416E000F061FEC01B012807D9FE
:10045000206940F00800206184F804800320D9E777
:100460002068406B0028EEDB012000F04DFD216884
:10047000B06948642068816C40F2FF32AA40914321
:10048000F269AA40114381642068C16CFF22AA402E
:100490009143326AAA401143C1643069012808D1EE
:1004A0002268916B1F20A84081437069A8400843CF
:1004B00090632268D16B0720A8408143B3683068FD
:1004C0001843F3681843A8400843D06320680168C4
:1004D0004FF48042AA40914301602268116840F6BF
:1004E000FC70A84081437068A840084310602068F1
:1004F0000168C022AA409143016084F80490002062
:10050000607187E7704770B50446006801684FF076
:100510000405890411D5416B89040ED52571216923
:1005200041F001012161E90241632068016821F481
:10053000805101602046FFF7E5FF206801688900CF
:1005400014D5416B890011D52571216941F0020153
:1005500021614FF0005141632068016821F0805112
:1005600001602046BDE87040FFF73EBF70BD70B52A
:10057000040003D02079002510B105E0012070BDF2
:100580006571204600F008F80220207125610120E5
:100590002071002070BD00002DE9F04F87B00646A5
:1005A00014216846FFF747FE2D493068884253D131
:1005B0002C48816D41F000518165816D01F0005141
:1005C0000591C16C41F00101C164C06C4FF0030B97
:1005D00000F0010005903020CDE9000B00256946B0
:1005E00002954FF0904000F0A1FC204C1E484FF0C7
:1005F0001008206006206060C4E902854FF480671F
:10060000C4E906754FF0800A4FF480792562C4E989
:1006100004A9204600F018FC08B1FFF7E4FEB4601E
:10062000A662144C1248C4E90285C4E90675256225
:10063000C4E9000BC4E904A9204600F005FC08B198
:10064000FFF7D1FEF460002211463620A66200F0CA
:10065000C1FD362000F0B0FD07B000F00DB800007D
:1006600000740040001002403000024018020020D8
:10067000580402406002002030BCBDE8C08F18B5AD
:10068000046800940068104421B1143000900360A5
:10069000002018BD0830F9E770B54279012A14D05E
:1006A000012242710223037103681D6801F01006E4
:1006B00002FA06F425431D60002901680B6806D084
:1006C000C3F38343012B0AD00DE0022070BDC3F3B6
:1006D0008303012B07D14B6843F0010302E04B6811
:1006E00043F002034B60027100214171084670BD66
:1006F0007047000070B5040006D02068FFF7E6FDE3
:10070000374D55F8200008B1012070BD204600F09B
:100710006FF834480168491C0160006832490128BB
:1007200019D13248026822F0804202600268A36850
:100730001A430260026822F47F0202602279012AD1
:1007400005D10268A38901EB03431A4302600268E2
:1007500042F0004202602068026822F471420260A6
:100760002268106823691843D4E9053633431843D7
:1007700010602068026822F00F020260D4E90720AE
:100780000243206803681A4302602068826822F4EA
:100790005F02826020688268636A1A43238D01EBDE
:1007A00003410A4382602068416801F0070141600B
:1007B000E06A216B000240EAC101206842681143EF
:1007C00041602068016841F080010160012084F8E7
:1007D00034002068FFF77AFD45F82040002070BD06
:1007E000C8030020180000200000FFFF0060014047
:1007F00070B586B014216846FFF71DFD1D4841689D
:10080000002935D10168491C01601B48012907D125
:10081000016E41F080710166016E01F080710591F9
:10082000C16C41F01001C164C16C01F0100105916F
:10083000C16C41F00201C164C06C022500F00200ED
:1008400005904FF4207000900024CDE90154062655
:10085000CDE903466946094800F068FBE8020090CC
:10086000CDE90154CDE903466946054800F05EFB39
:1008700006B070BD100000200010024000100048BB
:10088000000400487047704770B590F84C40002352
:10089000C4B1FF2C16D0046825680C4E3540256085
:1008A00004686FF30F01012A256804D045EA01218D
:1008B0002160026307E04FF4802646EA01210D43E0
:1008C0002560F6E70123184670BD0000FFFFFBF826
:1008D00070470068C06900F0070220F0FF000A605E
:1008E000C11700EB116000127047000070B50400E2
:1008F00031D03C492068884205D1606801282AD05F
:10090000E068012827D00125002065642063A564E4
:100910002065204600F06EF82068016821F400216F
:100920000160207A01282068016816D021F000516A
:100930000160607A01282068016811D021F400115B
:1009400001602068016846F2087291430160E06826
:10095000022808D00CE0012070BD41F00051E7E70B
:1009600041F40011ECE720680168626911430160FD
:10097000207C0128206801682ED021F01001016040
:10098000607C01282068016829D021F020010160E5
:1009900020684169144A1140416120684169E26957
:1009A000124B1143228C03EB0242636A5B1E1A4313
:1009B0001143416160686063E068A063A069E0631F
:1009C000207C84F840002068016841F0010101604A
:1009D00084F84C50002070BD41F01001CFE741F089
:1009E0002001D4E70061014000FF001C0000FFFF70
:1009F000704700002DE9F04387B005461421684692
:100A0000FFF719FC414800264168E9BB0168491C11
:100A100001603F48012907D1016E41F080710166F4
:100A2000016E01F080710591C16C41F01001C1644B
:100A3000C16C01F010010591C16C41F00201C1646B
:100A4000C06C022400F0020005904FF420708DE885
:100A50005100062769462F48CDE9036700F066FA82
:100A6000E0028DE8510069462B48CDE9036700F0AC
:100A70005DFA002211463D2000F0ACFB3D2000F065
:100A80009BFB0022114600E005E03E2000F0A2FBA7
:100A90003E2000F091FB2149286880274FF4007820
:100AA0004FF40069884213D11E4C1D48C4E900066A
:100AB00004F10C00A66080E8C003E66120462662CF
:100AC00000F0C2F908B1FFF78EFCEC62AC62A562DF
:100AD000124928688031884214D11148124C1430D0
:100AE000C4E9000604F10C00A66080E8C003E661DA
:100AF0002046266200F0A8F908B1FFF774FCEC620A
:100B0000AC62A56207B0BDE8F083000010000020D1
:100B1000001002400010004800040048006101403D
:100B200044000240A8020020F002002070B50446F4
:100B300090F84C000D46022803D0042801D0012073
:100B400070BD00F0E3FA064607E0681C05D000F02F
:100B5000DDFA801BA84213D895B120688068800711
:100B6000F3D520688068000707D50120206520465E
:100B7000FFF7AEFE21680820C860206B10B10BE0C3
:100B8000032070BD606B38B994F84C00022805D082
:100B90005FF0030084F84C00002070BD0120F9E7ED
:100BA000704710B590F84C100024012904D0032997
:100BB00002D00124204610BDFFF7BAFBFAE700007F
:100BC0002DE9F04104460068816842680D074FF046
:100BD000010305D5150703D50821C160236507E08A
:100BE0004D070AD5550708D50421C16002202065AC
:100BF0002046FFF76DFEBDE8F0818D0719D59507FA
:100C000017D52046FFF7CCFF206B0028F3D1606B8F
:100C10000028F0D12068416821F00201416094F879
:100C20004C00022803D0032084F84C00E3E70120A5
:100C3000FAE701EA0205ED071FD02046FFF7D8FECC
:100C4000A06C401EA064D6D1A06B58B92068416842
:100C500021F00101416094F84C00032809D00220E2
:100C600084F84C0094F84000012804D00120A064CE
:100C7000C1E70120F4E7606CF9E7CD061CD5D50685
:100C80001AD5856A002115F0FF0F01D0012204E07A
:100C900000222D0A01E06D08491CEE0701D1072949
:100CA000F9D32AB18B40C3622046FFF7ECFDA2E7DF
:100CB00001F10805AB40F6E71F4D204EA84221D1B7
:100CC00011F47F0F1ED057061CD580680025C0F395
:100CD00007479846F80710D056F8250068B1006815
:100CE0000068400609D505F1100108FA01F02168F5
:100CF000C86056F82500FFF7FBFC7F086D1C082D27
:100D0000E8D378E7A84291D1090E8FD091068DD50E
:100D100082680021120ED40705D15208491CD4075D
:100D200001D10729F9D301F118029340C36056F8A5
:100D30002100FFF7A7FD5EE700610140C803002026
:100D400010B590F825100024022903D00421C163B6
:100D500001241AE001680A6822F00E020A600168A4
:100D60000A6822F001020A6090F84410036C01F056
:100D70001C02012101FA02F25A6080F825100021BC
:100D800080F82410816B01B18847204610BDF0B473
:100D9000016C0C6801680D6890F8442002F01C0694
:100DA000042202FA06F3234211D06B070FD50B6819
:100DB0009B0603D40B6823F004030B6090F84410E7
:100DC00001F01C018A40016C4A60016B1DE00223A6
:100DD00003FA06F727424FF0000C4FF0010218D03B
:100DE000AF0716D50C68A40605D40C6824F00A04D5
:100DF0000C6080F8252090F8441001F01C018B4015
:100E0000016C4B6080F824C0C16A00291AD0F0BC84
:100E100008470823B340234214D02B0712D50B6890
:100E200023F00E030B6090F84410036C01F01C01DA
:100E300002FA01F15960C26380F8252080F824C0CD
:100E4000416BE2E7F0BC704770B568B12B4C0368AA
:100E500014212B4AA34209D22A4C1C44B4FBF1F1C1
:100E60008900C0E910210BE0012070BD234C6442D1
:100E70001C44B4FBF1F18900416420490839016444
:100E8000022180F825101C6847F6F0718C43D0E9E8
:100E900002152943D0E9045635432943856929437E
:100EA000C5692943056A2943214319608168B1F561
:100EB000804F19D0036C0F21934202D152F8A83F02
:100EC00002E00E4AA032136890F8444004F01C047B
:100ED000A1408B43136090F84430416803F01C0339
:100EE00099401368194311600021C163012280F801
:100EF000252080F82410084670BD00000804024038
:100F000000000240F8FFFDBF70B5044600F0FEF897
:100F10000546601C02D004484068044400F0F6F81E
:100F2000401BA042FAD370BD1C0000202DE9F84FF1
:100F3000DFF898B100234FF0010C4FF0030A4FF097
:100F40000F090BF1040EB9E00CFA03F4224070D043
:100F50004D68022D01D0122D0ED1DD0800EB850861
:100F6000D8F820505E07F70E09FA07F6B5430E6968
:100F7000BE402E43C8F8206007685E0091F80480E8
:100F80000AFA06F508F00308AF4308FA06F848EA3B
:100F90000708C0F800804F68012F05D0022F03D04A
:100FA000112F01D0122F13D1D0F80880CF6828EA72
:100FB0000508B74047EA08078760D0F804800F7932
:100FC00028EA0408C7F300179F4047EA080747606C
:100FD000D1F804806FEA0807BF0706D1C76AA743A4
:100FE000C8F3C0049C403C43C462C468AC438D68F1
:100FF000B5402543C5604C68E4005ED5344C256E91
:1010000045F001052566246E23F0030504F0010474
:101010000094304C2E19B4689D072F0F09FA07F57C
:10102000AC43B0F1904F05D02B4DA84204D101251F
:101030001CE042E0002519E0284DA84201D102251C
:1010400014E0274DA84201D103250FE0254DA84209
:1010500001D104250AE0244DA84201D1052505E06F
:10106000224DA84201D1062500E00725BD402543B9
:10107000B560DBF800405D464E689443F60300D54A
:1010800014432C60DEF8004075464E689443B60366
:1010900000D514432C600D4D08352C684E689443E0
:1010A000F60200D514432C60084D0C352C684E68B0
:1010B0009443B60200D514432C605B1C0A6832FAD4
:1010C00003F57FF441AF00F013B8000000040140C5
:1010D00000100240000001400004004800080048E1
:1010E000000C004800100048001400480018004898
:1010F00018BCBDE8E08F0069084000D001207047AF
:101100000AB18161704781627047000001488068C0
:10111000704700001C0000200248816842681144AA
:10112000816070471C00002010B50024032000F0EF
:1011300071F8002000F008F808B1012401E000F087
:1011400025F8204610BD000070B50E4E054600245F
:10115000706898B14FF47A71B1FBF0F00A490968F0
:10116000B1FBF0F000F005FE40B9102D06D20022D0
:101170002946501E00F02EF8356000E0012420467C
:1011800070BD00001C00002028000020094808B5A0
:10119000016E41F001010166016E01F00101009153
:1011A000816D41F080518165806D00F0805000902C
:1011B00008BD000000100240002809DB00F01F02FB
:1011C000012191404009800000F1E020C0F80011A9
:1011D00070470000F0B40E4B1B680C46C3F30223AB
:1011E000C3F10705042D00D90425191D072901D2D3
:1011F000002300E0DB1E012606FA05F1491E21400E
:1012000099409E40761E16403143F0BC01F08DBEE1
:101210000CED00E0064900F0070208684FF6FF03F6
:10122000184040EA0220034A10430860704700005B
:101230000CED00E00000FA051649B0F5007F0868E3
:10124000C0F3412009D0022805D0086820F4C0600E
:1012500040F480600860002070470128FBD00868D7
:1012600020F4C06040F4007008600B48322200682F
:1012700050430A4AB0FBF2F0401C00E0401E4A69AD
:10128000520501D50028F9D148694005E3D503206E
:1012900070470000007000402800002040420F000E
:1012A0000248006800F4C060704700000070004011
:1012B0002DE9F84F044600270088E54D3E4601051C
:1012C00004F1200B1DD5606E78B1B0F5800F11D000
:1012D000B0F5000F04D0B0F5400F22D001270FE089
:1012E000E86840F48030E8601BE00021201D01F038
:1012F0006DF903E00021584601F0FEF9070010D017
:101300003E462088C00426D5A06EC0B1B0F1807FD3
:101310001AD0B0F1007F0DD0B0F1407F19D0012775
:1013200018E0D5F88800616E20F440000843C5F845
:101330008800E6E7E86840F48030E86009E00021D2
:10134000201D01F043F903E00021584601F0D4F9D3
:101350000746F7B13E46206880033AD5A86D4FF0A6
:101360000008C00009D4A86D40F08050A865A86DA1
:101370004FF0010800F080500090DFF8D8A2DAF8B2
:10138000001041F48071CAF80010FFF7BFFE8146DB
:1013900010E0D5F88800A16E20F040700843C5F831
:1013A0008800D8E7FFF7B2FEA0EB0900022801D9B8
:1013B000032705E0DAF80000C005F3D5002F7CD044
:1013C0004FEA0706B8F1000F03D0A86D20F0805057
:1013D000A8652078C00707D0D5F88800A16B20F059
:1013E00003000843C5F888002078800707D5D5F8A2
:1013F0008800E16B20F00C000843C5F888002078D5
:10140000400707D5D5F88800216C20F0300008434C
:10141000C5F888002078000707D5D5F88800616CEA
:1014200020F0C0000843C5F888002078C00607D522
:10143000D5F88800A16C20F440700843C5F88800F6
:101440002078800607D5D5F88800E16C20F440604C
:101450000843C5F888002088800507D5D5F888009E
:10146000E16D20F440200843C5F88800208840053D
:1014700007D5D5F88800216E20F440100843C5F840
:1014800088002078400607D5D5F88800216D20F423
:1014900040500843C5F888002078000607D5D5F8E5
:1014A0008800616D20F440400843C5F8880020881A
:1014B000C00509D5D5F8880000E01CE0A16D20F436
:1014C00040300843C5F8880020884FF0006780044A
:1014D0004FF080684FD5D5F88800E16E20F040606D
:1014E0000843C5F88800E06EB8423CD1E86840F493
:1014F0008010E8603FE0D5F8900010F4407015D0FF
:10150000D4F88410814211D0D5F89000D5F890100D
:1015100020F4407041F48031C5F89010D5F8901057
:1015200021F48031C5F89010C5F89000C00710D0A4
:10153000FFF7ECFD074641F2883906E0FFF7E6FDCC
:10154000C11B494501D903263CE7D5F89000800727
:10155000F4D5D5F89000D4F8841020F440700843F6
:10156000C5F890002EE7404505D10121201D01F06E
:101570002DF800B106462068000317D5D5F888007D
:10158000216F20F040600843C5F88800206FB84202
:1015900004D1E86840F48010E86007E0404505D1D8
:1015A0000121201D01F012F800B106462068400319
:1015B00017D5D5F88800616F20F040600843C5F862
:1015C0008800606FB84204D1E86840F48010E86099
:1015D00007E0404505D10121201D00F0F7FF00B1D3
:1015E0000646208840041AD5D5F88800A16F20F05F
:1015F00040500843C5F88800A06FB0F1805F03D069
:10160000B0F1005F05D00AE00221201D00F0DEFFEE
:1016100003E00221584601F06FF800B10646208829
:10162000000407D5D5F88800E16F20F0804008431A
:10163000C5F888002068C00307D555F8880FD4F88E
:10164000801020F0004008432860304600F004B8C5
:10165000001002400070004018BCBDE8E08F0000A0
:101660002DE9F0470F46050058D0404E306800F095
:101670000700B84209D2306820F0070038433060D4
:10168000306800F00700B84248D12878384CC007CD
:101690002CD06868032811D0022812D0216898B194
:1016A000490500293ADAA16821F003010143A1604C
:1016B000FFF72CFD804641F2883910E0216889014E
:1016C000EFE721688903ECE78907EAE7FFF71EFDEA
:1016D000A0EB0801494502D90320BDE8F087A068C6
:1016E000696800F00C00B0EB810FEFD1287880071B
:1016F00005D5A068A96820F0F0000843A060306814
:1017000000F00700B8420BD9306820F007003843DA
:101710003060306800F00700B84201D00120DCE7FB
:101720002878400705D5A068E96820F4E060084300
:10173000A0602878000706D5A068296920F46050C9
:1017400040EAC100A06000F045F8A168094AC1F371
:101750000311515C01F01F01C840074908600748A8
:101760000068BDE8F047FFF7EFBC00000020024032
:101770000010024074300008280000201C000020E7
:10178000014800687047000028000020054806490D
:1017900000688968054AC1F30221515C01F01F010C
:1017A000C84070472800002000100240B4300008F4
:1017B0000548064900688968054AC1F3C221515CA1
:1017C00001F01F01C84070472800002000100240AF
:1017D000B430000870B52549002318468A68CC68E3
:1017E00012F00C0204F00306214C4FEA640509D004
:1017F0000C2A05D0042A32D0082A00D1284670BD10
:10180000012E10D10B681B0704D4D1F89430C3F318
:10181000032302E00B68C3F30313164E56F823307C
:10182000DAB10C2AEBD1C86800F00300022818D006
:10183000032818D01846CA68CB68C2F30212C3F353
:1018400006234343521CB3FBF2F2C868C0F3416065
:10185000401C4000B2FBF0F070BD184670BD204641
:1018600070BD2046E7E72846E5E70000001002408B
:101870000024F400843000082DE9F84304006ED001
:10188000FD4DA86800F00C06E86800F0030720781A
:10189000C00663D576B10C2E01D1012F0AD0A06904
:1018A0000028286878D040F001002860FFF72EFC5F
:1018B00080465BE02868800702D5A0690028DED05A
:1018C000216A2868000703D5286800F0F00004E0CA
:1018D000D5F89400F02202EA1010814216D9084689
:1018E00000F08EFF00283AD1286840F008002860F8
:1018F0002868216A20F0F000084328606868E169E0
:1019000020F47F4040EA0120686015E0286840F03C
:10191000080028602868216A20F0F0000843286049
:101920006868E16920F47F4040EA01206860206A2D
:1019300000F066FF0028D6D1FFF74CFFA968CF4A18
:10194000C1F30311515C01F01F01C840CC4908608C
:10195000CC480068FFF7F8FB00287DD12DE0C9E0F6
:10196000FFF7D4FBA0EB0800022876D82868800790
:10197000F6D5286840F0080028602868216A20F021
:10198000F000084328606868E16920F47F4040EA7D
:101990000120686011E0FFE720F001002860FFF7F8
:1019A000B5FB804606E000BFFFF7B0FBA0EB0800E8
:1019B0000228DAD828688007F6D42078C00740D0FB
:1019C000082E18D00C2E01D1032F14D06068B0F56A
:1019D000803F17D0B0F5A02F286817D020F48030B2
:1019E0002860286820F4802028606068E0B1FFF754
:1019F0008DFB804614E02868800322D560680028AB
:101A000078D01EE0286840F48030EDE740F4802074
:101A10002860F7E7FFF77AFBA0EB08006428A4D85A
:101A200028688003F6D50CE0FFF770FB804605E0E0
:101A3000FFF76CFBA0EB0800642896D828688003A9
:101A4000F6D4207880073BD5042E11D00C2E01D17E
:101A5000022F0DD0E06801E03EE19FE000282868F9
:101A60001ED040F480702860FFF750FB07460CE062
:101A7000286840050CD5E0680028C1D008E000BF08
:101A8000FFF744FBC01B022893D828684005F7D510
:101A90006868217C20F0F85040EA016068600FE03F
:101AA00020F480702860FFF731FB074605E000BF97
:101AB000FFF72CFBC01B022870D828684005F7D41C
:101AC0002078000729D560690028D5F8940012D045
:101AD00040F00100C5F89400FFF718FB074604E04A
:101AE000FFF714FBC01B022858D8D5F894008007D4
:101AF000F6D512E029E120F00100C5F89400FFF7C7
:101B000005FB074605E000BFFFF700FBC01B0228EE
:101B100044D8D5F894008007F6D42078400768D5DB
:101B2000A86D0027C00008D4A86D40F08050A865BB
:101B3000A86D012700F08050009053480168C90546
:101B400012D40168814641F480710160FFF7DEFA2A
:101B5000804605E0FFF7DAFAA0EB080002281DD85E
:101B6000D9F80000C005F5D5A068012817D00528D0
:101B7000D5F8900018D020F00100C5F89000D5F8F5
:101B8000900020F0040000BFC5F89000A06841F26A
:101B90008839D0B1FFF7BAFA804611E06BE0D5F88A
:101BA000900040F00100EFE740F00400C5F890001D
:101BB000F5E700BFFFF7AAFAA0EB080149455AD89C
:101BC000D5F890008007F5D50EE0FFF79FFA804624
:101BD00006E000BFFFF79AFAA0EB080149457AD862
:101BE000D5F890008007F5D41FB1A86D20F0805083
:101BF000A865A06AF0B30C2E75D00228286820F0E2
:101C00008070286004D0286810F0205F51D054E024
:101C1000FFF77CFA064604E0FFF778FA801B0228FB
:101C200059D828688001F7D4D4E90B016FF00F026E
:101C300002EB01110843A18F5204490802EB415104
:101C4000626B41EA0221084394F840104FF07E4253
:101C5000490802EB41610843A16B090940EA414090
:101C6000E9680A4A11400843E860286840F080703B
:101C700028600DE06BE02EE0001002407430000898
:101C8000280000201C000020007000408C809DF97E
:101C9000E86840F08070E860FFF738FA044604E036
:101CA000FFF734FA001B022815D828688001F7D501
:101CB0004DE0E86820F00300E860E8682549084046
:101CC000E860FFF723FA044609E000BFFFF71EFAB9
:101CD000001B022803D90320BDE8F88303E028682D
:101CE0008001F3D433E00128F6D0E868E26A00F01E
:101CF0000301914229D1216B00F0700209011039D2
:101D0000914222D1626B00F4FE41B1EB022F1CD153
:101D1000A26B00F40031072A01D0012200E000226A
:101D2000914212D1A18F00F4C00249084905A1F5E2
:101D30000011914209D194F8401000F0C0604908A8
:101D40004906A1F10071814201D00120C4E70020C1
:101D5000C2E70000FFFFEEFE4FF0E0210428086913
:101D600003D020F004000861704740F00400FAE757
:101D7000704710B5401EB0F1807F01D3012010BD27
:101D80004FF0E02460610F21601701F0CEF80020D1
:101D9000A06107202061002010BD10B5FFF7E8FF0B
:101DA00010BD70477047704770B590F83C20012A0D
:101DB00024D0012480F83C40022280F83D200268B3
:101DC000536895680E4EB24202D00E4EB24203D115
:101DD00023F470064B68334323F070060B68896860
:101DE000334325F08005294353600268916080F8F1
:101DF0003D40002180F83C10084670BD022070BDB7
:101E0000002C01400034014010B5040003D094F8C8
:101E10003D0010B107E0012010BD002084F83C0017
:101E2000204600F00DF8022084F83D00211D2068B6
:101E300000F0B6FD012084F83D00002010BD000038
:101E400008B50068B0F1804F12D10A48816D41F0A9
:101E500001018165806D002200F0010000901146B3
:101E60001C20FFF7B7F9BDE808401C20FFF7A4B914
:101E700008BD00000010024070B5044690F83C0018
:101E8000012817D0012584F83C50022084F83D0039
:101E9000226890682E4B184020F47F4090600868BC
:101EA000502830D00DDC20284DD005DC98B3102808
:101EB0003BD148E0022070BD302844D0402834D1C6
:101EC00039E0602828D0702806D0B0F5805F2CD08B
:101ED000B0F5005F29D10AE0CB68D1E90121206883
:101EE00000F0BEFD2068816841F0770109E0CB6811
:101EF000D1E90121206800F0B3FD2068816841F438
:101F00008041816011E0CA684968206800F0BAFD2C
:101F10005021206807E016E0CA684968206800F090
:101F2000C2FD6021206800F0A5FD84F83D5000202E
:101F300084F83C0070BDCA684968206800F0A2FDC2
:101F400040212068EFE7226801461046EBE70000D9
:101F500088FFFEFF704770B50446006801694FF0C6
:101F60000005C943890715D4C168C943890711D43D
:101F7000E91E0161012020772068806980072046E2
:101F800002D0FFF7E7FF04E000F0A7F8204600F0DA
:101F9000A5F8257720680169C943490717D4C168A6
:101FA000C943490713D46FF004010161022020776F
:101FB0002068806910F4407F204602D0FFF7CAFFF6
:101FC00004E000F08AF8204600F088F825772068C1
:101FD0000169C943090716D4C168C943090712D466
:101FE0006FF008010161042020772068C069800734
:101FF000204602D0FFF7AEFF04E000F06EF8204666
:1020000000F06CF8257720680169C943C90617D428
:10201000C168C943C90613D46FF0100101610820DB
:1020200020772068C06910F4407F204602D0FFF777
:1020300091FF04E000F051F8204600F04FF82577BA
:1020400020680169C943C90708D1C168C943C907E4
:1020500004D1891E0161204600F041F82068016921
:10206000C943090609D4C168C943090605D46FF0FC
:10207000800101612046FFF795FE20680169C94390
:10208000C90509D4C168C943090605D46FF4807134
:1020900001612046FFF785FE20680169C9434906B2
:1020A00009D4C168C943490605D46FF040010161F4
:1020B000204600F015F820680169C94389060BD451
:1020C000C168C943890607D46FF020010161204629
:1020D000BDE87040FFF767BE70BD7047704770473E
:1020E00070477047704700002DE9F04102680446D0
:1020F000D0691168936810F00F0F4FF000055BD0A6
:1021000003F0010601F49077374369D0C70707D081
:10211000CF0505D501271762E26F42F00102E267A1
:10212000820708D5DA0706D0276802223A62E26FF2
:1021300042F00402E267420708D5DA0706D02368B6
:1021400004221A62E26F42F00202E26702070AD535
:1021500001F02002324306D0236808221A62E26F9F
:1021600042F00802E267E26F002A32D0800605D50D
:10217000880603D5216E09B120468847E06F2168A3
:102180008968490601D4000725D5204600F037FDAF
:1021900020688168490619D5816821F04001816075
:1021A000E06E98B120498163E06EFEF7C9FD00281A
:1021B0000FD0E06E816B06E0860611D58E060FD536
:1021C000216E1EE02046BDE8F04108472046FFF79B
:1021D00089FFBDE8F0812046FFF784FFE567F8E757
:1021E000C60209D55B0207D54FF480101062204665
:1021F000BDE8F041FFF775BF030605D50B0603D513
:10220000616E0029DED1E4E74006E2D54806E0D55C
:102210001168204621F04001116020216167656648
:1022200000F0A4F8D5E70000EB2B000810B504007F
:1022300002D0606F10B107E0012010BD002084F8CB
:102240007000204600F026F82420606720680168AE
:1022500021F001010160204600F0E0FC0128ECD0F3
:10226000606A10B1204600F030FC2068416821F41B
:10227000904141602068816821F02A0181602068D6
:10228000016841F0010101602046BDE8104000F006
:1022900080BC00002DE9F04186B006461421684656
:1022A000FDF7C9FF2B493068884250D12A48016E9A
:1022B00041F480410166016E01F480410591C16CD9
:1022C00041F00201C164C06C4FF0020800F002004E
:1022D0000590C020CDE9000800240320CDE902408C
:1022E00007200490474669461C48FEF71FFE1D4D17
:1022F0001B482860C5E901748027C5E903476C6164
:10230000AC61EC6128462C62FEF79EFD08B1FEF739
:102310006AF8F566AE621248134D1438E5E8020813
:10232000102091C5104845F81449AC61EC612C624D
:10233000FEF78AFD08B1FEF756F8B5660022114691
:102340002520AE62FEF746FF2520FEF735FF06B0DA
:10235000BDE8F08100380140001002400004004850
:102360008004024038030020800300207047FEE70D
:102370002DE9F041294828490024C0E900140472DD
:102380004472012580264562C0E90746FEF7AEFA91
:102390002248214954308031C0E90014047244724B
:1023A0004562C0E90746FEF7A1FA1C481A49A83061
:1023B000E039016005711426C0E9024604614461F8
:1023C00004278461C0E90747C0E909454FF01608B2
:1023D000C0E90B48FEF78EF910480F49E030C039CC
:1023E00001600571C0E90246046144618461C0E98D
:1023F0000747C0E90945C0E90B48FEF77BF9012210
:1024000007490648FEF740FABDE8F04103480122BB
:1024100004495430FEF738BA006101404000002002
:102420000200010004000200214808B5816C41F05F
:1024300002018164816C01F002010091816C41F024
:1024400001018164806C002200F0010000901146BF
:102450000D20FEF7BFFE0D20FEF7AEFE0022114656
:102460000E20FEF7B7FE0E20FEF7A6FE0022114654
:102470000F20FEF7AFFE0F20FEF79EFE0022114652
:102480003C20FEF7A7FE3C20FEF796FE00221146F8
:102490004420FEF79FFE4420FEF78EFE00221146E8
:1024A0004520FEF797FEBDE808404520FEF784BEB4
:1024B0000010024070B586B014216846FDF7BBFEDF
:1024C0001E48C16C41F00401C164C16C01F00401FB
:1024D0000591C16C41F00101C164C16C01F00101C1
:1024E0000591C16C41F01001C164C16C01F0100193
:1024F0000591C16C41F00201C164C06C104E00F046
:1025000002004FF480450590002229463046FEF730
:10251000F7FD00246810CDE90004694609480294DB
:10252000FEF704FD01200095CDE90104694630461F
:102530000394FEF7FBFC06B070BD000000100240E3
:10254000000400480008004810B588B00024114875
:102550000094019402940394049405944FF08041F4
:10256000069401606421C0E901143221C0E903141A
:102570008461FFF749FC4FF480500090694605489C
:10258000FFF77AFC049404A902480694FFF70CFCB8
:1025900008B010BD580100200948084901604FF4F7
:1025A000E1314160002181600C22C160C0E9041268
:1025B0008161C16101624162FFF738BE00380140AC
:1025C00098010020FEE77047704700002DE9F041B8
:1025D000444C05468846E0680026810728680DD0EF
:1025E000E16801F00301814216D1A8B1E068696891
:1025F000C0F30210401C88420ED120E0012804D014
:10260000022805D0032807D108E02168890701E0E6
:1026100021684905002907DB01265FE0216889035D
:1026200002D421684903F5E7E1686A686FF00F0397
:1026300021F0730103EB021211430143E1602068B2
:1026400020F080602060FEF761FD074605E000BFD6
:10265000FEF75CFDC01B022837D820680001F7D4C4
:10266000B8F1000F18D0B8F1010F1ED0287D4FF03F
:102670007E41400801EB4060A96840EA01202169E1
:10268000194A114008432061206840F080602060B2
:10269000FEF73CFD07461AE0A868E9680002090950
:1026A00040EA41402169114AEBE7288A1049400875
:1026B00001EB4050A96840EA012021690D4AE0E79A
:1026C000FEF724FDC01B022801D9032606E020687E
:1026D0000001F5D52069A969084320613046BDE8AD
:1026E000F081000000100240FF80FFF9FF80FDFF35
:1026F0000000E0FFFF809FFF2DE9F0413D4C0646C2
:102700008846E0680025810730680DD0E16801F057
:102710000301814216D1A8B1E0687168C0F30210CC
:10272000401C88420ED120E0012804D0022805D0A8
:10273000032807D108E02168890701E021684905DD
:10274000002907DB012551E02168890302D42168B3
:102750004903F5E7E16872686FF00F0321F0730138
:1027600003EB021211430143E160206820F0805026
:102770002060FEF7CBFC074605E000BFFEF7C6FC75
:10278000C01B022829D820688000F7D4B8F1000FB8
:1027900015D0307C4FF07E41400801EB4060B168BD
:1027A00040EA01206169144A1140084360612068D1
:1027B00040F080502060FEF7A9FC07460FE0B068AB
:1027C000F1680002090940EA414061690B4AEBE700
:1027D000FEF79CFCC01B022801D9032506E02068F7
:1027E0008000F5D560697169084360612846BDE8DD
:1027F000F081000000100240FF80FFF9FF80FDFF24
:10280000F8B51C4D06460024A86DC00002D5FEF7A1
:1028100047FD0DE0A86D40F08050A865A86D00F060
:1028200080500090FEF73CFDA96D21F08051A96514
:10283000B0F5007F04D0802E07D94FF003040AE0E2
:10284000802E08D9A02E01D804E001D1022402E094
:10285000702E00D101240848016821F007012143AE
:102860000160006800F00700A04201D00120F8BD1F
:102870000020F8BD0010024000200240704710B553
:10288000FEF74AFCBDE81040FFF787BAF0B5B9B0D3
:10289000442122A8FDF7CFFC142133A8FDF7CBFC7F
:1028A00088216846FDF7C7FC1020012500242290EE
:1028B000CDE9285402266020CDE92C652A902820F5
:1028C0000727CDE92E50CDE93076329622A8FEF7C3
:1028D000D3FF0F2033900320CDE934043694042134
:1028E00033A83794FEF7BCFE4FF00110CDE9000588
:1028F00020942020CDE90250C0020E94CDE906605C
:10290000CDE904766846FEF7D3FC6802FEF794FC36
:10291000FEF736FF4FF47A71B0FBF1F0FFF729FABA
:102920000420FFF719FA00221146501EFEF752FC50
:1029300039B0F0BD0D48016841F4700101600C48E8
:10294000016841F001010160002181600268094BCA
:102950001A4002608214C260026822F4802202607F
:1029600081610249C00380390860704788ED00E04A
:1029700000100240FFFFF6EA10B50448FFF7EBFA3B
:10298000BDE810400248FDF7BEBD00005801002020
:102990002C0000200148FDF7B6BD00002C000020EF
:1029A0002DE9F0470268264B264D274E274F284C2D
:1029B0004FF0804A984209D0504507D0A84205D030
:1029C000B04203D0B84201D0A04204D122F0700C32
:1029D0004A6842EA0C02DFF87CC0DFF87C80DFF84E
:1029E0007C9098420FD050450DD0A8420BD0B042F9
:1029F00009D0B84207D0A04205D0604503D0404579
:102A000001D0484503D122F44075CA682A434D6974
:102A100022F080022A4302608A68C2620A688262E7
:102A2000984207D0A04205D0604503D0404501D070
:102A3000484501D10969016301214161BDE8F08781
:102A4000002C01400004004000080040000C004041
:102A50000034014000400140004401400048014072
:102A600010B5846842EA032224F47F440A432243D7
:102A7000826010BD826822F070020A4342F00701B2
:102A80008160704710B5036A046A24F0010404628F
:102A9000846924F0F00444EA021423F00A020A4391
:102AA0008461026210BD10B5036A23F01003036253
:102AB0008369046A23F4704343EA023224F0A003DA
:102AC00043EA01118261016210BD90F82410C90728
:102AD00006D001684A68836A22F400321A434A60C9
:102AE00090F82410890706D501684A68C36A22F461
:102AF00080321A434A6090F82410490706D50168CD
:102B00004A68036B22F480221A434A6090F824102A
:102B1000090706D501684A68436B22F400421A434C
:102B20004A6090F82410C90606D501688A68836B4C
:102B300022F480521A438A6090F82410890606D540
:102B400001688A68C36B22F400521A438A6090F8C5
:102B50002410490611D501684A68036C22F48012DA
:102B60001A434A60016CB1F5801F06D101684A68BA
:102B7000436C22F4C0021A434A6090F824100906FC
:102B800006D501684A68806C22F4002202434A603C
:102B90007047F8B500260446C667FEF7B7FA054643
:102BA000206800686FF07E47000708D52B4600229A
:102BB0004FF400112046009700F080F960B92068BA
:102BC000006840070AD52B4600224FF480012046BA
:102BD000009700F073F908B10320F8BD202060676A
:102BE000A06784F870600020F8BD10B5806A0021ED
:102BF000A0F85A10A0F85210FFF774FA10BD01683F
:102C00000A6822F490720A6001688A6822F0010260
:102C10008A60202181670021016670472DE9F0411B
:102C20000546016880682B69EC6918436B690027C9
:102C300023431843954A0B68954C234003430B608C
:102C400028684168EB6821F44051194341602968C4
:102C5000A869914201D02B6A18438B6823F4306332
:102C600003438B608B4B29688B4899420DD1D0F878
:102C7000880010F0030006D0012868D0022864D034
:102C8000032851D165E001244FE0844B99420BD1D8
:102C9000D0F8880010F00C0055D0042857D0082830
:102CA00053D00C2840D154E07D4B99420BD1D0F841
:102CB000880010F0300046D0102848D0202844D09A
:102CC000302831D145E0774B99420BD1D0F88800BC
:102CD00010F0C00037D0402839D0802835D0C02827
:102CE00022D136E0704B99420ED1D0F8880010F412
:102CF000407028D0B0F5807F29D0B0F5007F24D077
:102D0000B0F5407F10D124E091420DD1D0F8880079
:102D100010F4406017D0B0F5806F18D0B0F5006F98
:102D200013D0B0F5406F14D01024604B00264FF440
:102D30000040914245D174B1022C0FD0042C0FD029
:102D4000082C18D10FE00024EFE70224EDE704245B
:102D5000EBE70824E9E7FEF719FD03E0184602E077
:102D6000FEF738FDA8B36A6802EB4201814202D83F
:102D7000B0EB023F01D9012775E0DFF834815CB187
:102D8000022C0CD0042C13D0082CF4D150082105AF
:102D9000401846F1000105E0FEF7F8FC0AE0500893
:102DA0004449F5E70023FDF70BFAA0F5407156E022
:102DB000FEF710FD6A68010E0302500818187141F1
:102DC000F0E7E9694FF6EF7881422FD1092CD2D292
:102DD00000E048E0DFE804F00609200523050505CA
:102DE0002600C8E7FEF7D2FC01E0FEF7E1FC410057
:102DF000D5F8040001EB5001B1FBF0F080B2A0F176
:102E000010014145B7D84FF6F0710140C0F34200C0
:102E100001432868C16026E027496868EAE7FEF7B1
:102E2000D9FCE4E74FF480316868E3E7092CA2D2CB
:102E3000DFE804F006091E052205050525009AE7CE
:102E4000FEF7A4FC01E0FEF7B3FC0146686801EB65
:102E5000500100BFB1FBF0F080B2A0F1100141457C
:102E600089D82968C8602E6638466E66BDE8F0814C
:102E7000686803EB5001EDE7FEF7ACFCE5E7696835
:102E800000EB5100B0FBF1F0E6E7000000800040ED
:102E9000F369FFEF00380140001002400044004099
:102EA00000480040004C0040005000400024F40066
:102EB000FFFC0F00000024F40048E8012DE9F04178
:102EC000984617460E460446069D08E0681C06D044
:102ED000FEF71CF9A0EB0800A8420BD855B12068FA
:102EE000C06936EA000017D00020B842EED00020BA
:102EF000BDE8F0812068016821F4D071016020688C
:102F0000816821F00101816020206067A0670020B6
:102F100084F870000320EBE70120E6E70148FFF7A3
:102F2000E3B8000098010020FEE70907090E002819
:102F300004DB00F1E02080F80014704700F00F007F
:102F400000F1E02080F8141D704702E008C8121F4D
:102F500008C1002AFAD170477047002001E001C182
:102F6000121F002AFBD170478AB0FEF7DDF8FFF789
:102F70008DFCFFF79FFAFFF757FA24216846FDF70B
:102F80005AF93849364808600846FDF7F0FA002437
:102F900000940194029403942246694631480494B3
:102FA000FDF723FA102269462E480394FDF71DFA17
:102FB000FFF7F2FAFFF7DCF9FFF7C6FA002129481C
:102FC000FDF76AFB10212748FDF766FB2548143002
:102FD000FDF7E7FD23486830FDF7E3FD4FF40055AA
:102FE000214EDFF888806F0029463046FEF783F8CF
:102FF000012827D0012239464046FEF781F847F2E2
:103000003054184821461430FDF790FD0028F8D1BF
:10301000144817491430FDF75CFC154C211DA060C5
:1030200010486830FDF755FCE060002211460D485D
:10303000A368FDF724FBE368002210210948FDF78F
:103040001EFBD1E7002239464046FEF759F800231F
:103050001A4619460348FDF712FB0023ECE700006F
:10306000007400402C0000200008004800040048C4
:103070000000002000000000000000000102030426
:1030800006070809A0860100400D0300801A06000B
:1030900000350C0040420F0080841E0000093D00F6
:1030A00000127A000024F40000366E010048E801A6
:1030B000006CDC020000000001020304DC300008A8
:1030C000000000202C0000004A2F000808310008F2
:1030D0002C000020BC0700005A2F0008010000004F
:1030E00002000000000000000000000000000000DE
:1030F00000000000000000001000000001000000BF
:083100000000000000093D0081
:040000050800018965
:00000001FF
