:020000040800F2
:10000000F80500209D01000877190008ED17000889
:10001000751900088D020008112100080000000079
:100020000000000000000000000000002D1C00087F
:100030005F03000800000000791900082F1C000869
:10004000B7010008B7010008B7010008B7010008B0
:10005000B7010008B7010008B7010008B7010008A0
:10006000B7010008B7010008B7010008B701000890
:10007000B7010008B7010008B7010008B701000880
:10008000B7010008B7010008B7010008B701000870
:10009000B7010008B7010008B7010008B701000860
:1000A000B7010008B7010008B7010008B701000850
:1000B000B7010008B7010008B7010008B701000840
:1000C000B7010008B7010008B7010008B701000830
:1000D000B7010008B7010008B7010008B701000820
:1000E000B7010008B7010008B7010008B701000810
:1000F000B7010008B7010008B7010008B701000800
:10010000B7010008B7010008B7010008B7010008EF
:10011000B7010008B7010008B7010008B7010008DF
:10012000B7010008B7010008B7010008B7010008CF
:10013000B7010008B7010008B7010008B7010008BF
:10014000B7010008B7010008B7010008B7010008AF
:10015000B7010008B7010008B7010008B70100089F
:10016000B7010008B7010008B7010008B70100088F
:10017000B7010008B70100080000000000000000FF
:10018000B7010008B7010008DFF80CD000F06CF8E8
:100190000048004751210008F80500200648804724
:1001A00006480047FEE7FEE7FEE7FEE7FEE7FEE75C
:1001B000FEE7FEE7FEE7FEE7AD1C00088901000848
:1001C0002DE9F05F0546002092469B46884606468C
:1001D000814640241BE0284641464746224600F01F
:1001E00032F853465A46C01A914110D31146184668
:1001F000224600F019F82D1A67EB01084F462246F7
:100200000120002100F010F817EB00094E41201EDC
:10021000A4F10104DFDC484631462A46434600F09B
:1002200000B830BCBDE8C09F202A04DB203A00FAA9
:1002300002F1002070479140C2F1200320FA03F33D
:10024000194390407047202A04DB203A21FA02F03B
:100250000021704721FA02F3D040C2F12002914000
:100260000843194670470000064C074D06E0E06859
:1002700040F0010394E8070098471034AC42F6D3ED
:10028000FFF786FF94220008B4220008FEE7000072
:100290001749884201D10020704715492031884212
:1002A00001D10120704712494031884201D102201A
:1002B00070470F496031884201D1032070470C49D3
:1002C0008031884201D1042070470949A031884219
:1002D00001D1052070470649C031884201D106206E
:1002E00070470349E0318842D5D1072070470000AC
:1002F00000600140426B0168002A0A6811D022F0B8
:1003000001020A6001680A6842F400220A6001687A
:100310000A6842F001020A6090F84C10032904D0E8
:1003200010E042F400320A600CE0816B21B90168F0
:100330000A6842F002020A6090F8401001290AD0CF
:100340000121816490F84C10012906D05FF004016E
:1003500080F84C107047416CF3E70221F8E77047D2
:100360002DE9F0470446407900270E4601280BD0BE
:100370004FF0010984F8059002202071306802F0E6
:100380001005042803D043E00220BDE8F0874FF0B9
:10039000030802BB00F0B0FB074604E000F0ACFB32
:1003A000C01B01280FD82068406B0004F6D4012040
:1003B00000F0A0FA2168B069086416E000F09CFB28
:1003C000C01B012807D9206940F00800206184F88B
:1003D00004800320D9E72068406B0028EEDB012071
:1003E00000F088FA2168B06948642068816C40F2A6
:1003F000FF32AA409143F269AA4011438164206808
:10040000C16CFF22AA409143326AAA401143C164E1
:100410003069012808D12268916B1F20A8408143D0
:100420007069A840084390632268D16B0720A840F8
:100430008143B36830681843F3681843A840084301
:10044000D063206801684FF48042AA409143016064
:100450002268116840F6FC70A84081437068A8408B
:100460000843106020680168C022AA4091430160DF
:1004700084F804900020607187E770B5040003D011
:100480002079002510B105E0012070BD657120467E
:1004900000F008F802202071256101202071002061
:1004A00070BD000000B500680C4987B0884213D1C8
:1004B0000B48816D41F000518165806D694600F007
:1004C0000050059030200090032001900020029001
:1004D0004FF0904000F020FA07B000BD00740040DB
:1004E0000010024018B5046800940068104421B15F
:1004F000143000900360002018BD0830F9E770B593
:100500004279012A14D00122427102230371036847
:100510001D6801F0100602FA06F425431D6000294B
:1005200001680B6806D0C3F38343012B0AD00DE0AA
:10053000022070BDC3F38303012B07D14B6843F046
:10054000010302E04B6843F002034B60027100219B
:100550004171084670BD000070B5040006D02068E7
:10056000FFF796FE374D55F8200008B1012070BD09
:10057000204600F06FF834480168491C01600068AB
:100580003249012819D13248026822F080420260C3
:100590000268A3681A430260026822F47F020260C4
:1005A0002279012A05D10268A38901EB03431A438A
:1005B0000260026842F0004202602068026822F491
:1005C000714202602268106823691843D4E9053635
:1005D0003343184310602068026822F00F02026063
:1005E000D4E907200243206803681A4302602068A8
:1005F000826822F45F02826020688268636A1A431C
:10060000238D01EB03410A4382602068416801F0B9
:1006100007014160E06A216B000240EAC1012068E5
:100620004268114341602068016841F08001016027
:10063000012084F834002068FFF72AFE45F82040A6
:10064000002070BDD8010020180000200000FFFF2E
:100650000060014000B5114887B0416800291BD1F6
:100660000168491C0160012908D10D48016E41F063
:1006700080710166006E00F0807005904FF420706C
:100680000090022001900020029003900620049028
:100690006946044800F040F907B000BD1000002092
:1006A000001002400010004870B590F84C40002344
:1006B000C4B1FF2C16D0046825680C4E3540256067
:1006C00004686FF30F01012A256804D045EA01216F
:1006D0002160026307E04FF4802646EA01210D43C2
:1006E0002560F6E70123184670BD0000FFFFFBF808
:1006F00070470068C06900F0070220F0FF000A6040
:10070000C11700EB116000127047000070B50400C3
:1007100031D03C492068884205D1606801282AD040
:10072000E068012827D00125002065642063A564C6
:100730002065204600F06CF82068016821F4002153
:100740000160207A01282068016816D021F000514C
:100750000160607A01282068016811D021F400113D
:1007600001602068016846F2087291430160E06808
:10077000022808D00CE0012070BD41F00051E7E7ED
:1007800041F40011ECE720680168626911430160DF
:10079000207C0128206801682ED021F01001016022
:1007A000607C01282068016829D021F020010160C7
:1007B00020684169144A1140416120684169E26939
:1007C000124B1143228C03EB0242636A5B1E1A43F5
:1007D0001143416160686063E068A063A069E06301
:1007E000207C84F840002068016841F0010101602C
:1007F00084F84C50002070BD41F01001CFE741F06B
:100800002001D4E70061014000FF001C0000FFFF51
:1008100000B5114887B0416800291BD10168491C07
:100820000160012908D10D48016E41F08071016617
:10083000006E00F0807005904FF420700090022050
:10084000019000200290039006200490694604481D
:1008500000F062F807B000BD100000200010024058
:100860000010004870B5044690F84C000D46022870
:1008700003D0042801D0012070BD00F03DF90646E8
:1008800007E0681C05D000F037F9801BA84213D898
:1008900095B1206880688007F3D5206880680007DC
:1008A00007D5012020652046FFF722FF2168082098
:1008B000C860206B10B10BE0032070BD606B38B9CD
:1008C00094F84C00022805D05FF0030084F84C0037
:1008D000002070BD0120F9E710B590F84C100024FD
:1008E000012904D0032902D00124204610BDFFF7BE
:1008F00001FDFAE770B5044600F0FEF80546601CFD
:1009000002D004484068044400F0F6F8401BA042BE
:10091000FAD370BD1C0000202DE9F84FDFF898B124
:1009200000234FF0010C4FF0030A4FF00F090BF1B9
:10093000040EB9E00CFA03F4224070D04D68022D89
:1009400001D0122D0ED1DD0800EB8508D8F820501B
:100950005E07F70E09FA07F6B5430E69BE402E434F
:10096000C8F8206007685E0091F804800AFA06F56E
:1009700008F00308AF4308FA06F848EA0708C0F889
:1009800000804F68012F05D0022F03D0112F01D016
:10099000122F13D1D0F80880CF6828EA0508B74095
:1009A00047EA08078760D0F804800F7928EA04082E
:1009B000C7F300179F4047EA08074760D1F8048053
:1009C0006FEA0807BF0706D1C76AA743C8F3C00488
:1009D0009C403C43C462C468AC438D68B540254329
:1009E000C5604C68E4005ED5344C256E45F00105C9
:1009F0002566246E23F0030504F001040094304CB6
:100A00002E19B4689D072F0F09FA07F5AC43B0F112
:100A1000904F05D02B4DA84204D101251CE042E0A7
:100A2000002519E0284DA84201D1022514E0274DE8
:100A3000A84201D103250FE0254DA84201D104258C
:100A40000AE0244DA84201D1052505E0224DA84227
:100A500001D1062500E00725BD402543B560DBF840
:100A600000405D464E689443F60300D514432C6065
:100A7000DEF8004075464E689443B60300D5144333
:100A80002C600D4D08352C684E689443F60200D555
:100A900014432C60084D0C352C684E689443B60204
:100AA00000D514432C605B1C0A6832FA03F57FF40E
:100AB00041AF00F013B800000004014000100240F4
:100AC000000001400004004800080048000C0048F5
:100AD00000100048001400480018004818BCBDE889
:100AE000E08F0069084000D0012070470AB18161A1
:100AF00070478162704700000148806870470000BD
:100B00001C000020024881684268114481607047DF
:100B10001C00002010B50024032000F08DF80020F8
:100B200000F008F808B1012401E000F025F82046A3
:100B300010BD000070B50E4E05460024706898B1D7
:100B40004FF47A71B1FBF0F00A490968B1FBF0F09B
:100B500000F0DBFD40B9102D06D200222946501EC0
:100B600000F04AF8356000E00124204670BD000026
:100B70001C000020280000201E4808B5016E41F02E
:100B800001010166016E01F001010091816D41F0EA
:100B900080518165806D00F080500090032000F04E
:100BA0004BF8002211466FF00B0000F025F80022F0
:100BB00011466FF00A0000F01FF8002211466FF096
:100BC000090000F019F800221146501F00F014F837
:100BD00000221146101F00F00FF800221146901E4F
:100BE00000F00AF80022BDE808401146501E00F04F
:100BF00003B8000000100240F0B40E4B1B680C4616
:100C0000C3F30223C3F10705042D00D90425191DE0
:100C1000072901D2002300E0DB1E012606FA05F1B8
:100C2000491E214099409E40761E16403143F0BC3B
:100C300001F06FBA0CED00E0064900F00702086809
:100C40004FF6FF03184040EA0220034A10430860B1
:100C5000704700000CED00E00000FA050248006853
:100C600000F4C06070470000007000402DE9F84FAC
:100C7000044600270088E54D3E46010504F1200B9F
:100C80001DD5606E78B1B0F5800F11D0B0F5000FB2
:100C900004D0B0F5400F22D001270FE0E86840F4FF
:100CA0008030E8601BE00021201D00F067FE03E0BB
:100CB0000021584600F0F8FE070010D03E4620887C
:100CC000C00426D5A06EC0B1B0F1807F1AD0B0F1BB
:100CD000007F0DD0B0F1407F19D0012718E0D5F882
:100CE0008800616E20F440000843C5F88800E6E7FC
:100CF000E86840F48030E86009E00021201D00F041
:100D00003DFE03E00021584600F0CEFE0746F7B155
:100D10003E46206880033AD5A86D4FF00008C00019
:100D200009D4A86D40F08050A865A86D4FF0010867
:100D300000F080500090DFF8D8A2DAF8001041F4FB
:100D40008071CAF80010FFF7D7FE814610E0D5F891
:100D50008800A16E20F040700843C5F88800D8E7ED
:100D6000FFF7CAFEA0EB0900022801D9032705E01E
:100D7000DAF80000C005F3D5002F7CD04FEA070653
:100D8000B8F1000F03D0A86D20F08050A86520783E
:100D9000C00707D0D5F88800A16B20F003000843F6
:100DA000C5F888002078800707D5D5F88800E16B62
:100DB00020F00C000843C5F888002078400707D5CC
:100DC000D5F88800216C20F030000843C5F8880071
:100DD0002078000707D5D5F88800616C20F0C000A6
:100DE0000843C5F888002078C00607D5D5F88800E4
:100DF000A16C20F440700843C5F888002078800674
:100E000007D5D5F88800E16C20F440600843C5F8A8
:100E100088002088800507D5D5F88800E16D20F48A
:100E200040200843C5F888002088400507D5D5F83C
:100E30008800216E20F440100843C5F8880020780F
:100E4000400607D5D5F88800216D20F440500843AE
:100E5000C5F888002078000607D5D5F88800616DB0
:100E600020F440400843C5F888002088C00509D513
:100E7000D5F8880000E01CE0A16D20F44030084364
:100E8000C5F8880020884FF0006780044FF0806824
:100E90004FD5D5F88800E16E20F040600843C5F8D2
:100EA0008800E06EB8423CD1E86840F48010E86009
:100EB0003FE0D5F8900010F4407015D0D4F88410BD
:100EC000814211D0D5F89000D5F8901020F44070F0
:100ED00041F48031C5F89010D5F8901021F480319C
:100EE000C5F89010C5F89000C00710D0FFF704FEB9
:100EF000074641F2883906E0FFF7FEFDC11B494570
:100F000001D903263CE7D5F890008007F4D5D5F841
:100F10009000D4F8841020F440700843C5F8900085
:100F20002EE7404505D10121201D00F027FD00B12D
:100F300006462068000317D5D5F88800216F20F0F9
:100F400040600843C5F88800206FB84204D1E868C3
:100F500040F48010E86007E0404505D10121201DE4
:100F600000F00CFD00B106462068400317D5D5F807
:100F70008800616F20F040600843C5F88800606F0A
:100F8000B84204D1E86840F48010E86007E04045CA
:100F900005D10121201D00F0F1FC00B1064620889A
:100FA00040041AD5D5F88800A16F20F040500843BE
:100FB000C5F88800A06FB0F1805F03D0B0F1005F8A
:100FC00005D00AE00221201D00F0D8FC03E0022138
:100FD000584600F069FD00B106462088000407D598
:100FE000D5F88800E16F20F080400843C5F88800FC
:100FF0002068C00307D555F8880FD4F8801020F07A
:10100000004008432860304600F004B80010024059
:101010000070004018BCBDE8E08F00002DE9F047EB
:101020000F46050058D0404E306800F00700B84227
:1010300009D2306820F0070038433060306800F093
:101040000700B84248D12878384CC0072CD06868CF
:10105000032811D0022812D0216898B1490500292F
:101060003ADAA16821F003010143A160FFF744FDD2
:10107000804641F2883910E021688901EFE7216854
:101080008903ECE78907EAE7FFF736FDA0EB0801E3
:10109000494502D90320BDE8F087A068696800F0DF
:1010A0000C00B0EB810FEFD12878800705D5A06840
:1010B000A96820F0F0000843A060306800F0070045
:1010C000B8420BD9306820F00700384330603068F0
:1010D00000F00700B84201D00120DCE72878400783
:1010E00005D5A068E96820F4E0600843A06028788E
:1010F000000706D5A068296920F4605040EAC100C5
:10110000A06000F03FF8A168094AC1F30311515CE7
:1011100001F01F01C8400749086007480068BDE8A2
:10112000F047FFF707BD000000200240001002401A
:101130004C220008280000201C0000200548064919
:1011400000688968054AC1F30221515C01F01F0162
:10115000C840704728000020001002408C22000880
:101160000548064900688968054AC1F3C221515CF7
:1011700001F01F01C8407047280000200010024005
:101180008C22000870B52549002318468A68CC686F
:1011900012F00C0204F00306214C4FEA640509D05A
:1011A0000C2A05D0042A32D0082A00D1284670BD66
:1011B000012E10D10B681B0704D4D1F89430C3F36F
:1011C000032302E00B68C3F30313164E56F82330D3
:1011D000DAB10C2AEBD1C86800F00300022818D05D
:1011E000032818D01846CA68CB68C2F30212C3F3AA
:1011F00006234343521CB3FBF2F2C868C0F34160BC
:10120000401C4000B2FBF0F070BD184670BD204697
:1012100070BD2046E7E72846E5E7000000100240E1
:101220000024F4005C2200082DE9F84304006ED08D
:10123000FD4DA86800F00C06E86800F00307207870
:10124000C00663D576B10C2E01D1012F0AD0A0695A
:101250000028286878D040F001002860FFF74CFC97
:1012600080465BE02868800702D5A0690028DED0B0
:10127000216A2868000703D5286800F0F00004E020
:10128000D5F89400F02202EA1010814216D90846DF
:1012900000F08EFC00283AD1286840F00800286051
:1012A0002868216A20F0F000084328606868E16936
:1012B00020F47F4040EA0120686015E0286840F093
:1012C000080028602868216A20F0F00008432860A0
:1012D0006868E16920F47F4040EA01206860206A84
:1012E00000F066FC0028D6D1FFF74CFFA968CF4A72
:1012F000C1F30311515C01F01F01C840CC490860E3
:10130000CC480068FFF716FC00287DD12DE0C9E02D
:10131000FFF7F2FBA0EB0800022876D828688007C8
:10132000F6D5286840F0080028602868216A20F077
:10133000F000084328606868E16920F47F4040EAD3
:101340000120686011E0FFE720F001002860FFF74E
:10135000D3FB804606E000BFFFF7CEFBA0EB080002
:101360000228DAD828688007F6D42078C00740D051
:10137000082E18D00C2E01D1032F14D06068B0F5C0
:10138000803F17D0B0F5A02F286817D020F4803008
:101390002860286820F4802028606068E0B1FFF7AA
:1013A000ABFB804614E02868800322D560680028E3
:1013B00078D01EE0286840F48030EDE740F48020CB
:1013C0002860F7E7FFF798FBA0EB08006428A4D893
:1013D00028688003F6D50CE0FFF78EFB804605E019
:1013E000FFF78AFBA0EB0800642896D828688003E2
:1013F000F6D4207880073BD5042E11D00C2E01D1D5
:10140000022F0DD0E06801E03EE19FE0002828684F
:101410001ED040F480702860FFF76EFB07460CE09A
:10142000286840050CD5E0680028C1D008E000BF5E
:10143000FFF762FBC01B022893D828684005F7D548
:101440006868217C20F0F85040EA016068600FE095
:1014500020F480702860FFF74FFB074605E000BFCF
:10146000FFF74AFBC01B022870D828684005F7D454
:101470002078000729D560690028D5F8940012D09B
:1014800040F00100C5F89400FFF736FB074604E082
:10149000FFF732FBC01B022858D8D5F8940080070C
:1014A000F6D512E029E120F00100C5F89400FFF71D
:1014B00023FB074605E000BFFFF71EFBC01B022809
:1014C00044D8D5F894008007F6D42078400768D532
:1014D000A86D0027C00008D4A86D40F08050A86512
:1014E000A86D012700F08050009053480168C9059D
:1014F00012D40168814641F480710160FFF7FCFA63
:10150000804605E0FFF7F8FAA0EB080002281DD896
:10151000D9F80000C005F5D5A068012817D0052826
:10152000D5F8900018D020F00100C5F89000D5F84B
:10153000900020F0040000BFC5F89000A06841F2C0
:101540008839D0B1FFF7D8FA804611E06BE0D5F8C2
:10155000900040F00100EFE740F00400C5F8900073
:10156000F5E700BFFFF7C8FAA0EB080149455AD8D4
:10157000D5F890008007F5D50EE0FFF7BDFA80465C
:1015800006E000BFFFF7B8FAA0EB080149457AD89A
:10159000D5F890008007F5D41FB1A86D20F08050D9
:1015A000A865A06AF0B30C2E75D00228286820F038
:1015B0008070286004D0286810F0205F51D054E07B
:1015C000FFF79AFA064604E0FFF796FA801B022816
:1015D00059D828688001F7D4D4E90B016FF00F02C5
:1015E00002EB01110843A18F5204490802EB41515B
:1015F000626B41EA0221084394F840104FF07E42AA
:10160000490802EB41610843A16B090940EA4140E6
:10161000E9680A4A11400843E860286840F0807091
:1016200028600DE06BE02EE0001002404C22000824
:10163000280000201C000020007000408C809DF9D4
:10164000E86840F08070E860FFF756FA044604E06E
:10165000FFF752FA001B022815D828688001F7D539
:101660004DE0E86820F00300E860E868254908409C
:10167000E860FFF741FA044609E000BFFFF73CFAD3
:10168000001B022803D90320BDE8F88303E0286883
:101690008001F3D433E00128F6D0E868E26A00F074
:1016A0000301914229D1216B00F070020901103928
:1016B000914222D1626B00F4FE41B1EB022F1CD1AA
:1016C000A26B00F40031072A01D0012200E00022C1
:1016D000914212D1A18F00F4C00249084905A1F539
:1016E0000011914209D194F8401000F0C0604908FF
:1016F0004906A1F10071814201D00120C4E7002018
:10170000C2E70000FFFFEEFE704710B5401EB0F1CB
:10171000807F01D3012010BD4FF0E02460610F21D4
:10172000601700F0F6FC0020A06107202061002077
:1017300010BD10B5FFF7E8FF10BD10B5040002D0D2
:10174000606F10B107E0012010BD002084F8700028
:10175000204600F025F8242060672068016821F009
:1017600001010160204600F053FB0128ECD0606AC3
:1017700010B1204600F0BCFA2068416821F4904185
:1017800041602068816821F02A0181602068016839
:1017900041F0010101602046BDE8104000F00CBBA3
:1017A00000B500680E4987B0884216D10D48016E19
:1017B00041F480410166006E694600F48040059066
:1017C000C02000900220019000200290032003908E
:1017D000072004900448FFF79FF807B000BD000001
:1017E000003801400010024000040048FEE70000FD
:1017F0002DE9F0472E482D490024C0E900140125A9
:1018000005724472CE057D27C661C0E90875FEF7F2
:101810007DFF2748254954308031C0E90014057206
:101820004472C661C0E90875FEF770FF20481F4981
:10183000A830E03902C04E0600F8045B142740C00F
:101840008915E0E802744FF00408E0E802416FF007
:101850008109E0E802584FF0110A80E83006144888
:10186000A830FEF779FE12481049E030C03902C0B6
:1018700000F8045B40C0E0E8037440F8044C10C07A
:10188000E0E8024880E830060948E030FEF764FEF0
:10189000012208490648FEF707FFBDE8F047044863
:1018A000012205495430FEF7FFBE000000610140EF
:1018B00040000020020001000400020070B51F4833
:1018C00086B0C16C41F00101C164C16C01F001013D
:1018D0000591C16C41F01001C164C16C01F01001AF
:1018E0000591C16C41F00201C164C16C01F00201BB
:1018F0000591C16C41F00401C164C06C104E00F050
:1019000004004FF480450590002229463046FFF739
:10191000EDF800246810CDE90004694609480294F6
:10192000FEF7FAFF01200095CDE901046946304633
:101930000394FEF7F1FF06B070BD000000100240F6
:1019400000040048000800480948084901604FF4B5
:10195000E1314160002181600C22C160C0E90412C4
:101960008161C16101624162FFF7E7BE0038014059
:1019700058010020FEE77047704700002DE9F04154
:10198000444C05468846E0680026810728680DD04B
:10199000E16801F00301814216D1A8B1E0686968ED
:1019A000C0F30210401C88420ED120E0012804D070
:1019B000022805D0032807D108E02168890701E043
:1019C00021684905002907DB01265FE021688903BA
:1019D00002D421684903F5E7E1686A686FF00F03F4
:1019E00021F0730103EB021211430143E16020680F
:1019F00020F080602060FFF77FF8074605E000BF19
:101A0000FFF77AF8C01B022837D820680001F7D406
:101A1000B8F1000F18D0B8F1010F1ED0287D4FF09B
:101A20007E41400801EB4060A96840EA012021693D
:101A3000194A114008432061206840F0806020600E
:101A4000FFF75AF807461AE0A868E9680002090992
:101A500040EA41402169114AEBE7288A10494008D1
:101A600001EB4050A96840EA012021690D4AE0E7F6
:101A7000FFF742F8C01B022801D9032606E02068C0
:101A80000001F5D52069A969084320613046BDE809
:101A9000F081000000100240FF80FFF9FF80FDFF91
:101AA0000000E0FFFF809FFF2DE9F0413D4C06461E
:101AB0008846E0680025810730680DD0E16801F0B4
:101AC0000301814216D1A8B1E0687168C0F3021029
:101AD000401C88420ED120E0012804D0022805D005
:101AE000032807D108E02168890701E0216849053A
:101AF000002907DB012551E02168890302D4216810
:101B00004903F5E7E16872686FF00F0321F0730194
:101B100003EB021211430143E160206820F0805082
:101B20002060FEF7E9FF074605E000BFFEF7E4FF8F
:101B3000C01B022829D820688000F7D4B8F1000F14
:101B400015D0307C4FF07E41400801EB4060B16819
:101B500040EA01206169144A11400843606120682D
:101B600040F080502060FEF7C7FF07460FE0B068E6
:101B7000F1680002090940EA414061690B4AEBE75C
:101B8000FEF7BAFFC01B022801D9032506E0206832
:101B90008000F5D560697169084360612846BDE839
:101BA000F081000000100240FF80FFF9FF80FDFF80
:101BB000F8B51C4D06460024A86DC00002D5FFF7FD
:101BC0004DF80DE0A86D40F08050A865A86D00F0BC
:101BD00080500090FFF742F8A96D21F08051A9656F
:101BE000B0F5007F04D0802E07D94FF003040AE03F
:101BF000802E08D9A02E01D804E001D1022402E0F1
:101C0000702E00D101240848016821F0070121430A
:101C10000160006800F00700A04201D00120F8BD7B
:101C20000020F8BD0010024000200240704710B5AF
:101C3000FEF768FFBDE81040FFF77BBDF0B5B9B017
:101C40001020012500242290CDE92854022660208E
:101C5000CDE92C652A9028200727CDE92E50CDE923
:101C60003076329622A8FFF7DFFA0F203390032058
:101C7000CDE934043694042133A83794FFF7CEF924
:101C800009481994CDE9000520942020CDE902509F
:101C9000C0020E94CDE90660CDE904766846FEF7F1
:101CA000E5FF39B0F0BD0000010801000D480168F2
:101CB00041F4700101600C48016841F001010160CC
:101CC000002181600268094B1A4002608214C260E0
:101CD000026822F48022026081610249C0038039D7
:101CE0000860704788ED00E000100240FFFFF6EA50
:101CF00090F82410C90706D001684A68836A22F464
:101D000000321A434A6090F82410890706D501680A
:101D10004A68C36A22F480321A434A6090F8241059
:101D2000490706D501684A68036B22F480221A43EA
:101D30004A6090F82410090706D501684A68436B89
:101D400022F400421A434A6090F82410C90606D5CE
:101D500001688A68836B22F480521A438A6090F883
:101D60002410890606D501688A68C36B22F40052E4
:101D70001A438A6090F82410490611D501684A6810
:101D8000036C22F480121A434A60016CB1F5801F83
:101D900006D101684A68436C22F4C0021A434A60C3
:101DA00090F82410090606D501684A68806C22F470
:101DB000002202434A607047F8B500260446C66711
:101DC000FEF79AFE0546206800686FF07E47000720
:101DD00008D52B4600224FF400112046009700F052
:101DE00067F960B92068006840070AD52B460022D1
:101DF0004FF480012046009700F05AF908B1032003
:101E0000F8BD20206067A06784F870600020F8BDEE
:101E10002DE9F0410546016880682B69EC6918439B
:101E20006B69002723431843954A0B68954C234060
:101E300003430B6028684168EB6821F44051194363
:101E400041602968A869914201D02B6A18438B68C8
:101E500023F4306303438B608B4B29688B48994292
:101E60000DD1D0F8880010F0030006D0012868D00A
:101E7000022864D0032851D165E001244FE0844B4F
:101E800099420BD1D0F8880010F00C0055D00428EE
:101E900057D0082853D00C2840D154E07D4B9942AC
:101EA0000BD1D0F8880010F0300046D0102848D070
:101EB000202844D0302831D145E0774B99420BD1CE
:101EC000D0F8880010F0C00037D0402839D08028E2
:101ED00035D0C02822D136E0704B99420ED1D0F8CF
:101EE000880010F4407028D0B0F5807F29D0B0F57C
:101EF000007F24D0B0F5407F10D124E091420DD175
:101F0000D0F8880010F4406017D0B0F5806F18D07A
:101F1000B0F5006F13D0B0F5406F14D01024604BB3
:101F200000264FF40040914245D174B1022C0FD0ED
:101F3000042C0FD0082C18D10FE00024EFE7022466
:101F4000EDE70424EBE70824E9E7FFF7F7F803E0FF
:101F5000184602E0FFF716F9A8B36A6802EB4201DF
:101F6000814202D8B0EB023F01D9012775E0DFF8CA
:101F700034815CB1022C0CD0042C13D0082CF4D189
:101F800050082105401846F1000105E0FFF7D6F89A
:101F90000AE050084449F5E70023FEF711F9A0F5DF
:101FA000407156E0FFF7EEF86A68010E0302500830
:101FB00018187141F0E7E9694FF6EF7881422FD1A7
:101FC000092CD2D200E048E0DFE804F00609200541
:101FD000230505052600C8E7FFF7B0F801E0FFF785
:101FE000BFF84100D5F8040001EB5001B1FBF0F05F
:101FF00080B2A0F110014145B7D84FF6F071014011
:10200000C0F3420001432868C16026E027496868A0
:10201000EAE7FFF7B7F8E4E74FF480316868E3E7F1
:10202000092CA2D2DFE804F006091E0522050505E9
:1020300025009AE7FFF782F801E0FFF791F80146E3
:10204000686801EB500100BFB1FBF0F080B2A0F175
:102050001001414589D82968C8602E6638466E66E9
:10206000BDE8F081686803EB5001EDE7FFF78AF8FF
:10207000E5E7696800EB5100B0FBF1F0E6E700002E
:1020800000800040F369FFEF00380140001002407B
:102090000044004000480040004C00400050004018
:1020A0000024F400FFFC0F00000024F40048E801C5
:1020B0002DE9F041984617460E460446069D08E075
:1020C000681C06D0FEF718FDA0EB0800A8420BD84C
:1020D00055B12068C06936EA000017D00020B84228
:1020E000EED00020BDE8F0812068016821F4D071B5
:1020F00001602068816821F0010181602020606713
:10210000A067002084F870000320EBE70120E6E7D9
:10211000FEE70907090E002804DB00F1E02080F843
:102120000014704700F00F0000F1E02080F8141D4B
:10213000704702E008C8121F08C1002AFAD1704790
:102140007047002001E001C1121F002AFBD1704737
:102150008AB0FEF7DFFCFFF771FDFFF7AFFBFFF77B
:10216000F3FBFFF745FB3549334808600846FEF7A7
:1021700084F9002400940194029403942246694651
:102180002E480494FEF7ECF8102269462B4803947D
:10219000FEF7E6F800212948FEF7B1F9102127489B
:1021A000FEF7ADF925481430FEF796FB234868305A
:1021B000FEF792FB4FF40055214EDFF888806F0048
:1021C00029463046FEF78DFC012827D001223946EA
:1021D0004046FEF78BFC47F2305418482146143035
:1021E000FEF740FB0028F8D1144817491430FEF7D9
:1021F00080FA154C211DA06010486830FEF779FA6E
:10220000E060002211460D48A368FEF76BF9E36811
:10221000002210210948FEF765F9D1E7002239466E
:102220004046FEF763FC00231A4619460348FEF7B2
:1022300059F90023ECE70000007400402C00002056
:1022400000080048000400480000002000000000D2
:10225000000000000102030406070809A08601002F
:10226000400D0300801A060000350C0040420F00AC
:1022700080841E0000093D0000127A000024F40052
:1022800000366E010048E801006CDC02000000002E
:1022900001020304B4220008000000202C0000000A
:1022A00032210008E02200082C000020CC050000AC
:1022B00042210008010000000200000000000000B0
:1022C000000000000000000000000000000000000E
:1022D00010000000010000000000000000093D00A7
:040000050800018965
:00000001FF
