:020000040800F2
:10000000B00500209D010008BF230008252200083C
:10001000BD23000881040008B12B00080000000087
:10002000000000000000000000000000752600082D
:100030009D04000800000000C12300087926000884
:10004000B7010008B7010008B7010008B7010008B0
:10005000B7010008B7010008B7010008B7010008A0
:10006000B7010008B7010008B7010008B701000890
:10007000B7010008B70100088504000891040008D2
:10008000B7010008B7010008B7010008B701000870
:10009000B7010008B7010008B7010008B701000860
:1000A000B7010008B7010008B7010008B701000850
:1000B000B7010008B7010008B7010008B701000840
:1000C000B7010008B7010008B7010008B701000830
:1000D000B7010008B7010008B7010008B701000820
:1000E000B7010008B7010008B7010008B701000810
:1000F000B7010008B7010008B7010008B701000800
:10010000B7010008B7010008B7010008B7010008EF
:10011000B7010008B7010008B7010008B7010008DF
:10012000B7010008B7010008B7010008B7010008CF
:10013000B7010008B7010008B7010008B7010008BF
:10014000B7010008B7010008B7010008B7010008AF
:10015000B7010008B7010008B7010008B70100089F
:10016000B7010008B7010008B7010008B70100088F
:10017000B7010008B70100080000000000000000FF
:10018000B7010008B7010008DFF80CD000F090F8C4
:1001900000480047F12B0008B005002006488047C2
:1001A00006480047FEE7FEE7FEE7FEE7FEE7FEE75C
:1001B000FEE7FEE7FEE7FEE71D27000889010008CD
:1001C0002DE9F05F0546002092469B46884606468C
:1001D000814640241BE0284641464746224600F01F
:1001E00056F853465A46C01A914110D31146184644
:1001F000224600F03DF82D1A67EB01084F462246D3
:100200000120002100F034F817EB00094E41201EB8
:10021000A4F10104DFDC484631462A46434600F09B
:1002200000B830BCBDE8C09F40EA01039B0703D083
:1002300009E008C9121F08C0042AFAD203E011F825
:10024000013B00F8013B521EF9D27047D2B201E0E7
:1002500000F8012B491EFBD270470022F6E710B5CB
:1002600013460A4604461946FFF7F0FF204610BD24
:10027000202A04DB203A00FA02F100207047914066
:10028000C2F1200320FA03F3194390407047202A5B
:1002900004DB203A21FA02F00021704721FA02F330
:1002A000D040C2F120029140084319467047000037
:1002B000064C074D06E0E06840F0010394E80700B3
:1002C00098471034AC42F6D3FFF762FF902D000838
:1002D000B02D00082DE9F041044600270D460068C6
:1002E00001F0AFFF0646206801F0A3FF304359D06C
:1002F0002068C1682C4E890105D5617E012902D193
:10030000217E01290BD0022D1DD0206801F099FF1C
:10031000B8B120688168C1F3400169B111E00125DD
:10032000224902E08F422ED27F1C0268D24352063D
:10033000F8D440210160E8E78168314041F01001C4
:100340008160012D11D0206801F073FF48B1206851
:100350008168C1F3400121B98168314041F0200139
:100360008160022D08D0032D04D0042501F02EF861
:10037000064613E00C25F9E70825F7E701F026F813
:10038000801B05280AD9606D40F010006065A06DE3
:1003900040F00100A0650120BDE8F0812068806880
:1003A0002842EBD10020F7E7C0FFFF7F000040A309
:1003B00070B50446006881688268C1F3400112F09C
:1003C000010F24D019BB816801F00D01012910D162
:1003D0008168104A1140891C8160216803200860EF
:1003E00000F0F4FF05460EE000F0F0FF401B02288D
:1003F00009D9606D40F010006065A06D40F001000B
:10040000A065012070BD20688068C007ECD1002085
:1004100070BD0000C0FFFF7F70B5044600688168B2
:1004200011F0010F28D18168144A114215D1816859
:10043000D5432940491C816000F0C8FF064616E0FC
:10044000816811F0010F03D181682940491C816046
:1004500000F0BCFF801B022809D9606D40F010003D
:100460006065A06D40F00100A065012070BD2068AE
:100470000168C943C907E3D1002070BD3F00008077
:10048000FEE70000014800F0E7BD00006401002025
:10049000014800F0E1BD00001C01002070477047DA
:1004A0002DE9F041044690F85000002716460D460D
:1004B000012813D0012084F85000206801F0C5FE07
:1004C0008046206801F0B9FE01462068826812F07B
:1004D000010F07D0B8F1000F03D003E00220BDE800
:1004E000F08169B1606D40F020006065A06D40F062
:1004F0000100A0650127002084F850003846EEE78F
:1005000050F8B41F05F07F1291432A0BAA4302F062
:100510001002964031430160EDE70000F8B5002677
:100520000446009690F850000D4601280BD001209B
:1005300084F850002046FFF73BFF0100606D04D0B7
:1005400040F010002BE00220F8BD20F4885040F06D
:100550000200606520688268134B1A4005F08043F2
:100560001A4342F0004282604FF4912320680EE06B
:10057000009A521C00929A4209D3606D20F002004A
:1005800040F01000606584F850600120F8BD82687A
:10059000D20FEDD1606D20F0020040F001006065E7
:1005A00084F850600846F8BDC0FFFF3F2DE9F047D2
:1005B000044690F850009AB00D464FF0000801280C
:1005C00013D0012084F85000304E20684FF000090D
:1005D000B0420ED12E4F0097384601F036FE8246CB
:1005E000206801F032FE60B10EE002201AB0BDE8D2
:1005F000F087616D41F02001616584F85090012021
:10060000F4E7BAF1000F09D0606D40F0200060659A
:100610004FF0010884F850904046E7E71D482968EC
:100620001D4A0029816840F61F7321F460411BD0E8
:1006300094F830C041EA4C31D5F804C041EA0C01CD
:100640008160B168BE6801F0010106F001069268A0
:10065000314302F001021143DCD1AA682968114339
:1006600082689A4311430EE08160B168BD6801F071
:10067000010105F001059268294302F001021143CE
:10068000C8D1816899438160C4E70000000004502C
:100690000001045000030450000204502DE9F84FFB
:1006A00000270446009790F85000DFF8B8930D46F5
:1006B000B846012811D0012684F85060206801F066
:1006C000C0FD60B1606D40F0200060655FF0010723
:1006D00084F85080384600F0DDB90220FBE76868F6
:1006E0000C23052812D8022807D0032807D0042895
:1006F00007D0052807D0062007E06B6006E012202F
:1007000003E0182001E04FF480706860D5E9002113
:10071000206803EA91131844036B01F01F014FF0A6
:100720001F0C0CFA01FCC2F3846223EA0C038A401A
:1007300013430363206801F084FD8246206801F0C2
:1007400078FD5AEA00001DD1AA682968206801F0E6
:1007500088FD20686969C268C2F3C10252009140F5
:100760002A69042A0FD000EB82002B68026EDFF8A2
:10077000F8C203F0F84302EA0C020B431A4342F0BA
:100780000041016672E0002101F04DFD4003206848
:100790004FF0000172D001F046FD90FAA0F0B0FADF
:1007A00080F1286842036ED090FAA0F0B0FA80F091
:1007B000814204D100221146206801F061FD01212F
:1007C000206801F030FD400320684FF001015DD04A
:1007D00001F029FD90FAA0F0B0FA80F128684203F8
:1007E00059D090FAA0F0B0FA80F0814204D10022F2
:1007F0000121206801F044FD0221206801F013FD71
:10080000400320684FF0020148D001F00CFD90FA3F
:10081000A0F0B0FA80F12868420344D090FAA0F02A
:10082000B0FA80F0814204D100220221206801F058
:1008300027FD0321206801F0F6FC400320684FF0FB
:10084000030133D001F0EFFC90FAA0F0B0FA80F190
:10085000286842032FD090FAA0F0B0FA80F08142CD
:1008600004D100220321206801F00AFD206881687C
:1008700011F0010F22D0ACE000E004E001F0D3FC65
:10088000C0F384618DE7C0F3846091E701F0CBFC95
:10089000C0F38461A2E7C0F38460A6E701F0C3FC63
:1008A000C0F38461B7E7C0F38460BBE701F0BBFC31
:1008B000C0F38461CCE7C0F38460D0E72A7B296869
:1008C00050F8B03FC1F3120C23EA0C0302F0180CED
:1008D000664A22FA0CF20A4013430360E96849456C
:1008E00077D1286841031CD090FAA0F1B1FA81F1C8
:1008F000491C01F01F0109294FEA403132D8002973
:1009000012D000BF90FAA0F1B1FA81F101F101011A
:1009100001F01F0106FA01F609D100BFC0F384619E
:1009200009E0C0F38461E3E7C0F38461EEE790FA85
:10093000A0F1B1FA81F101F1010101F01F0146EAD4
:10094000816102D1C0F3846003E090FAA0F0B0FAB4
:1009500080F000F1010000F01F0000EB400041EAD0
:10096000005132E000290ED090FAA0F1B1FA81F1E5
:1009700001F1010101F01F0106FA01F606D100BFE5
:10098000C0F3846106E0C0F38461F1E790FAA0F15E
:10099000B1FA81F101F1010101F01F0146EA816123
:1009A00002D1C0F3846003E090FAA0F0B0FA80F0C6
:1009B00000F1010000F01F002D4A00EB400002EBA7
:1009C000005041EA000141F00071AA68206801F07E
:1009D00048FC28482A6802423FF47AAE26488168DB
:1009E000264E274B274D01F0E071B2421CD10E027A
:1009F0001AD422689A4202D0AA427FF469AE826871
:100A000041F4000122F0E0720A4382601E481F494F
:100A10000068B0FBF1F000EB4000800000E0401EF9
:100A200000900028FBD153E6194EB24209D1CE0105
:100A300007D422689A4201D0AA42F4D141F08071D1
:100A40000AE06FF00045EA42EDD14A02EBD4226899
:100A50009A42E8D141F48001826822F0E0720A43B0
:100A6000826035E600007F4000F0FF03FFFF0700D3
:100A7000000020FE0000088000030450000052C760
:100A8000000004500002045020000020400D03002C
:100A9000000084CB18BCBDE8E08F0068006C704794
:100AA000F8B54FF0000504002E46009502D0606DA9
:100AB00010B107E00120F8BD204600F0D5F8A6658A
:100AC00084F8506020688168C1F3407119B1816871
:100AD0005B4A1140816020688168C1F3007179B977
:100AE0008168584A114041F0805181605648574909
:100AF0000068B0FBF1F000E0401E00900028FBD140
:100B000020688168C1F3007141B9616D41F0100145
:100B10006165A16D41F00101A165012501F091FB25
:100B2000616DC90600D430B1606D40F010006065A1
:100B300001252846F8BD606D20F4807040F0020069
:100B400060652068806810F0010F15D1404880680A
:100B5000404900F00100896801F0010108433E4965
:100B6000896801F00101084306D13C4960688A6840
:100B700022F47C1202438A60E168606B627E084363
:100B8000A16841EA4231084394F8201040EA01404C
:100B9000012904D1A18C324A02EB41410843A16AE8
:100BA00029B101F47071E26A014342EA010022684E
:100BB000D1682C4B19400143D160206801F041FB02
:100BC0000646206801F035FB304315D1207E94F8AD
:100BD00030102268800340EA4101D06844F20203E9
:100BE00098430843D06094F8380001280CD020685E
:100BF000016921F001010161206901282068016B70
:100C000021F00F0111D013E0D4E90F010843D4E91A
:100C100011121143084321680A6940F2FC739A4398
:100C2000104340F001000861E6E7E269521E1143FB
:100C30000163606D20F0020040F00100606578E71C
:100C4000C0FFFF5FC0FFFF7F20000020400D0300BA
:100C5000000004500001045000020450000304503E
:100C60000000FEFF07C0F0FF08B500680649884293
:100C700008D10648C16C41F40051C164C06C00F455
:100C80000050009008BD0000000004500010024019
:100C90002DE9F041044639480F46816801F01F05EF
:100CA000616908290FD085B1052D0ED0092D0CD012
:100CB000806800F4604060B1606D40F020006065C5
:100CC0000120BDE8F081082604E02068C068C00764
:100CD000F1E7042600F07AFB804608E0781C06D095
:100CE00000F074FBA0EB0800B8420FD877B1206881
:100CF00000683042F2D0606D40F40070606520689A
:100D000001F0A7FAD0B1607E48B117E0606D40F005
:100D100004006065002084F850000320D1E72068BB
:100D2000006800070AD5606D20F480706065606D12
:100D3000C00403D4606D40F001006065104A206873
:100D40001049904201D10B4600E00346834210D087
:100D50007DB1052D0DD0092D0BD0904200D001465C
:100D6000C968082E07D0490401D40C210160002075
:100D7000A7E7C168F5E70821F8E700000003045081
:100D800000010450000004502DE9F04104463748AA
:100D9000806800F01F05206801F053FA18B10221A5
:100DA0000846BDE8F08194F8500001280CD00120DD
:100DB00084F850002046FFF72FFB01004FF000039E
:100DC00004D084F85030EBE70220EAE7606D40F68B
:100DD0000162904340F480706065254A2068254E8A
:100DE000904201D1374600E00746874200D01DB946
:100DF000676D27F480176765676DFF0404D5A76DDD
:100E000027F00607A76500E0A3651C27076084F8A4
:100E100050302068904201D1334600E003468342BF
:100E200015D0A5B1052D12D0092D10D0636D43F456
:100E300080136365904200D13046C0688001AFD511
:100E4000606D20F4005040F480506065A8E7C268EF
:100E5000920105D5626D22F4005242F4805262651F
:100E60008268054B1A40121D826099E70003045006
:100E70000001045000000450C0FFFF7F10B504467D
:100E800090F85000012808D0012084F85000032178
:100E90002046FFF71FFA10B10BE0022010BD2046DC
:100EA000FFF786FA28B9616D21F4885141F00101FC
:100EB0006165002184F8501010BD2DE9F04704460B
:100EC000407900270E4601280BD04FF0010984F825
:100ED000059002202071306802F01005042803D02C
:100EE00043E00220BDE8F0874FF0030802BB00F0AA
:100EF0006DFA074604E000F069FAC01B01280FD81C
:100F00002068406B0004F6D4012000F063F92168EA
:100F1000B069086416E000F059FAC01B012807D92F
:100F2000206940F00800206184F804800320D9E79C
:100F30002068406B0028EEDB012000F04BF92168AF
:100F4000B06948642068816C40F2FF32AA40914346
:100F5000F269AA40114381642068C16CFF22AA4053
:100F60009143326AAA401143C1643069012808D113
:100F70002268916B1F20A84081437069A8400843F4
:100F800090632268D16B0720A8408143B368306822
:100F90001843F3681843A8400843D06320680168E9
:100FA0004FF48042AA40914301602268116840F6E4
:100FB000FC70A84081437068A84008431060206816
:100FC0000168C022AA409143016084F80490002087
:100FD000607187E770B5040003D02079002510B157
:100FE00005E0012070BD6571204600F007F8022081
:100FF0002071256101202071002070BD10B586B0E0
:10100000044614216846FFF728F9114920688842F0
:101010001BD11048816D41F000518165816D01F057
:1010200000510591C16C41F00101C164C06C694679
:1010300000F0010005903020009003200190002076
:1010400002904FF0904000F0D7F806B010BD0000BD
:101050000074004000100240F0B4016C0C6801689C
:101060000D6890F8442002F01C06042202FA06F3F0
:10107000234211D06B070FD50B689B0603D40B6876
:1010800023F004030B6090F8441001F01C018A4027
:10109000016C4A60016B1DE0022303FA06F7274248
:1010A0004FF0000C4FF0010218D0AF0716D50C68B6
:1010B000A40605D40C6824F00A040C6080F82520EE
:1010C00090F8441001F01C018B40016C4B6080F8DB
:1010D00024C0C16A00291AD0F0BC08470823B340D5
:1010E000234214D02B0712D50B6823F00E030B609C
:1010F00090F84410036C01F01C0102FA01F15960F0
:10110000C26380F8252080F824C0416BE2E7F0BC80
:101110007047000070B568B12B4C036814212B4A4E
:10112000A34209D22A4C1C44B4FBF1F18900C0E966
:1011300010210BE0012070BD234C64421C44B4FB21
:10114000F1F189004164204908390164022180F8E5
:1011500025101C6847F6F0718C43D0E9021529432D
:10116000D0E904563543294385692943C569294394
:10117000056A2943214319608168B1F5804F19D070
:10118000036C0F21934202D152F8A83F02E00E4AAD
:10119000A032136890F8444004F01C04A1408B4333
:1011A000136090F84430416803F01C0399401368C1
:1011B000194311600021C163012280F8252080F8C5
:1011C0002410084670BD00000804024000000240E0
:1011D000F8FFFDBF70B5044600F0F8F80546601C46
:1011E00002D004484068044400F0F0F8401BA042DC
:1011F000FAD370BD140000202DE9F84FDFF898B144
:1012000000234FF0010C4FF0030A4FF00F090BF1D0
:10121000040EB9E00CFA03F4224070D04D68022DA0
:1012200001D0122D0ED1DD0800EB8508D8F8205032
:101230005E07F70E09FA07F6B5430E69BE402E4366
:10124000C8F8206007685E0091F804800AFA06F585
:1012500008F00308AF4308FA06F848EA0708C0F8A0
:1012600000804F68012F05D0022F03D0112F01D02D
:10127000122F13D1D0F80880CF6828EA0508B740AC
:1012800047EA08078760D0F804800F7928EA040845
:10129000C7F300179F4047EA08074760D1F804806A
:1012A0006FEA0807BF0706D1C76AA743C8F3C0049F
:1012B0009C403C43C462C468AC438D68B540254340
:1012C000C5604C68E4005ED5344C256E45F00105E0
:1012D0002566246E23F0030504F001040094304CCD
:1012E0002E19B4689D072F0F09FA07F5AC43B0F12A
:1012F000904F05D02B4DA84204D101251CE042E0BF
:10130000002519E0284DA84201D1022514E0274DFF
:10131000A84201D103250FE0254DA84201D10425A3
:101320000AE0244DA84201D1052505E0224DA8423E
:1013300001D1062500E00725BD402543B560DBF857
:1013400000405D464E689443F60300D514432C607C
:10135000DEF8004075464E689443B60300D514434A
:101360002C600D4D08352C684E689443F60200D56C
:1013700014432C60084D0C352C684E689443B6021B
:1013800000D514432C605B1C0A6832FA03F57FF425
:1013900041AF00F013B8000000040140001002400B
:1013A000000001400004004800080048000C00480C
:1013B00000100048001400480018004818BCBDE8A0
:1013C000E08F0AB18161704781627047014880688F
:1013D00070470000140000200248816842681144F0
:1013E000816070471400002010B50024032000F035
:1013F00071F8002000F008F808B1012401E000F0C5
:1014000025F8204610BD000070B50E4E054600249C
:10141000706898B14FF47A71B1FBF0F00A4909682D
:10142000B1FBF0F000F0F3FD40B9102D06D2002220
:101430002946501E00F02EF8356000E001242046B9
:1014400070BD00001400002020000020094808B5ED
:10145000016E41F001010166016E01F00101009190
:10146000816D41F080518165806D00F08050009069
:1014700008BD000000100240002809DB00F01F0238
:10148000012191404009800000F1E020C0F80011E6
:1014900070470000F0B40E4B1B680C46C3F30223E8
:1014A000C3F10705042D00D90425191D072901D210
:1014B000002300E0DB1E012606FA05F1491E21404B
:1014C00099409E40761E16403143F0BC01F071BB3E
:1014D0000CED00E0064900F0070208684FF6FF0334
:1014E000184040EA0220034A104308607047000099
:1014F0000CED00E00000FA051649B0F5007F086821
:10150000C0F3412009D0022805D0086820F4C0604B
:1015100040F480600860002070470128FBD0086814
:1015200020F4C06040F4007008600B48322200686C
:1015300050430A4AB0FBF2F0401C00E0401E4A69EA
:10154000520501D50028F9D148694005E3D50320AB
:1015500070470000007000402000002040420F0053
:101560000248006800F4C06070470000007000404E
:101570002DE9F84F044600270088E54D3E46010559
:1015800004F1200B1DD5606E78B1B0F5800F11D03D
:10159000B0F5000F04D0B0F5400F22D001270FE0C6
:1015A000E86840F48030E8601BE00021201D00F076
:1015B00009FF03E00021584600F09AFF070010D011
:1015C0003E462088C00426D5A06EC0B1B0F1807F11
:1015D0001AD0B0F1007F0DD0B0F1407F19D00127B3
:1015E00018E0D5F88800616E20F440000843C5F883
:1015F0008800E6E7E86840F48030E86009E0002110
:10160000201D00F0DFFE03E00021584600F070FFCF
:101610000746F7B13E46206880033AD5A86D4FF0E3
:101620000008C00009D4A86D40F08050A865A86DDE
:101630004FF0010800F080500090DFF8D8A2DAF8EF
:10164000001041F48071CAF80010FFF7BFFE814618
:1016500010E0D5F88800A16E20F040700843C5F86E
:101660008800D8E7FFF7B2FEA0EB0900022801D9F5
:10167000032705E0DAF80000C005F3D5002F7CD081
:101680004FEA0706B8F1000F03D0A86D20F0805094
:10169000A8652078C00707D0D5F88800A16B20F096
:1016A00003000843C5F888002078800707D5D5F8DF
:1016B0008800E16B20F00C000843C5F88800207812
:1016C000400707D5D5F88800216C20F0300008438A
:1016D000C5F888002078000707D5D5F88800616C28
:1016E00020F0C0000843C5F888002078C00607D560
:1016F000D5F88800A16C20F440700843C5F8880034
:101700002078800607D5D5F88800E16C20F4406089
:101710000843C5F888002088800507D5D5F88800DB
:10172000E16D20F440200843C5F88800208840057A
:1017300007D5D5F88800216E20F440100843C5F87D
:1017400088002078400607D5D5F88800216D20F460
:1017500040500843C5F888002078000607D5D5F822
:101760008800616D20F440400843C5F88800208857
:10177000C00509D5D5F8880000E01CE0A16D20F473
:1017800040300843C5F8880020884FF00067800487
:101790004FF080684FD5D5F88800E16E20F04060AA
:1017A0000843C5F88800E06EB8423CD1E86840F4D0
:1017B0008010E8603FE0D5F8900010F4407015D03C
:1017C000D4F88410814211D0D5F89000D5F890104B
:1017D00020F4407041F48031C5F89010D5F8901095
:1017E00021F48031C5F89010C5F89000C00710D0E2
:1017F000FFF7ECFD074641F2883906E0FFF7E6FD0A
:10180000C11B494501D903263CE7D5F89000800764
:10181000F4D5D5F89000D4F8841020F44070084333
:10182000C5F890002EE7404505D10121201D00F0AC
:10183000C9FD00B106462068000317D5D5F8880019
:10184000216F20F040600843C5F88800206FB8423F
:1018500004D1E86840F48010E86007E0404505D115
:101860000121201D00F0AEFD00B1064620684003B6
:1018700017D5D5F88800616F20F040600843C5F89F
:101880008800606FB84204D1E86840F48010E860D6
:1018900007E0404505D10121201D00F093FD00B176
:1018A0000646208840041AD5D5F88800A16F20F09C
:1018B00040500843C5F88800A06FB0F1805F03D0A6
:1018C000B0F1005F05D00AE00221201D00F07AFD92
:1018D00003E00221584600F00BFE00B106462088C6
:1018E000000407D5D5F88800E16F20F08040084358
:1018F000C5F888002068C00307D555F8880FD4F8CC
:10190000801020F0004008432860304600F004B802
:10191000001002400070004018BCBDE8E08F0000DD
:101920002DE9F0470F46050058D0404E306800F0D2
:101930000700B84209D2306820F007003843306011
:10194000306800F00700B84248D12878384CC0070A
:101950002CD06868032811D0022812D0216898B1D1
:10196000490500293ADAA16821F003010143A16089
:10197000FFF72CFD804641F2883910E0216889018B
:10198000EFE721688903ECE78907EAE7FFF71EFD27
:10199000A0EB0801494502D90320BDE8F087A06803
:1019A000696800F00C00B0EB810FEFD12878800758
:1019B00005D5A068A96820F0F0000843A060306851
:1019C00000F00700B8420BD9306820F00700384318
:1019D0003060306800F00700B84201D00120DCE739
:1019E0002878400705D5A068E96820F4E06008433E
:1019F000A0602878000706D5A068296920F4605007
:101A000040EAC100A06000F03FF8A168094AC1F3B4
:101A10000311515C01F01F01C840074908600748E5
:101A20000068BDE8F047FFF7EFBC0000002002406F
:101A300000100240482D0008200000201400002063
:101A40000548064900688968054AC1F30221515CCE
:101A500001F01F01C8407047200000200010024024
:101A6000882D00080548064900688968054AC1F3C1
:101A7000C221515C01F01F01C840704720000020C6
:101A800000100240882D000870B525490023184633
:101A90008A68CC6812F00C0204F00306214C4FEA6D
:101AA000640509D00C2A05D0042A32D0082A00D1B6
:101AB000284670BD012E10D10B681B0704D4D1F845
:101AC0009430C3F3032302E00B68C3F30313164EF1
:101AD00056F82330DAB10C2AEBD1C86800F00300C5
:101AE000022818D0032818D01846CA68CB68C2F359
:101AF0000212C3F306234343521CB3FBF2F2C8683D
:101B0000C0F34160401C4000B2FBF0F070BD1846CD
:101B100070BD204670BD2046E7E72846E5E7000097
:101B2000001002400024F400582D00082DE9F8436D
:101B300004006ED0FD4DA86800F00C06E86800F0C7
:101B400003072078C00663D576B10C2E01D1012F92
:101B50000AD0A0690028286878D040F001002860E9
:101B6000FFF734FC80465BE02868800702D5A06957
:101B70000028DED0216A2868000703D5286800F015
:101B8000F00004E0D5F89400F02202EA101081423F
:101B900016D9084600F030FD00283AD1286840F0F8
:101BA000080028602868216A20F0F00008432860B7
:101BB0006868E16920F47F4040EA0120686015E030
:101BC000286840F0080028602868216A20F0F000AA
:101BD000084328606868E16920F47F4040EA0120FA
:101BE0006860206A00F008FD0028D6D1FFF74CFF9E
:101BF000A968CF4AC1F30311515C01F01F01C8402D
:101C0000CC490860CC480068FFF7FEFB00287DD176
:101C10002DE0C9E0FFF7DAFBA0EB0800022876D838
:101C200028688007F6D5286840F0080028602868F2
:101C3000216A20F0F000084328606868E16920F418
:101C40007F4040EA0120686011E0FFE720F00100DA
:101C50002860FFF7BBFB804606E000BFFFF7B6FB3E
:101C6000A0EB08000228DAD828688007F6D420788C
:101C7000C00740D0082E18D00C2E01D1032F14D04D
:101C80006068B0F5803F17D0B0F5A02F286817D056
:101C900020F480302860286820F480202860606864
:101CA000E0B1FFF793FB804614E02868800322D55B
:101CB0006068002878D01EE0286840F48030EDE7A6
:101CC00040F480202860F7E7FFF780FBA0EB0800D6
:101CD0006428A4D828688003F6D50CE0FFF776FBCB
:101CE000804605E0FFF772FBA0EB0800642896D859
:101CF00028688003F6D4207880073BD5042E11D0C5
:101D00000C2E01D1022F0DD0E06801E03EE19FE0F2
:101D1000002828681ED040F480702860FFF756FB2A
:101D200007460CE0286840050CD5E0680028C1D0C3
:101D300008E000BFFFF74AFBC01B022893D82868C1
:101D40004005F7D56868217C20F0F85040EA016032
:101D500068600FE020F480702860FFF737FB0746CB
:101D600005E000BFFFF732FBC01B022870D82868CF
:101D70004005F7D42078000729D560690028D5F8F8
:101D8000940012D040F00100C5F89400FFF71EFB4C
:101D9000074604E0FFF71AFBC01B022858D8D5F805
:101DA00094008007F6D512E029E120F00100C5F883
:101DB0009400FFF70BFB074605E000BFFFF706FBAB
:101DC000C01B022844D8D5F894008007F6D42078A8
:101DD000400768D5A86D0027C00008D4A86D40F062
:101DE0008050A865A86D012700F0805000905348EE
:101DF0000168C90512D40168814641F4807101600F
:101E0000FFF7E4FA804605E0FFF7E0FAA0EB0800F0
:101E100002281DD8D9F80000C005F5D5A068012812
:101E200017D00528D5F8900018D020F00100C5F88B
:101E30009000D5F8900020F0040000BFC5F8900095
:101E4000A06841F28839D0B1FFF7C0FA804611E0AE
:101E50006BE0D5F8900040F00100EFE740F004009F
:101E6000C5F89000F5E700BFFFF7B0FAA0EB080156
:101E700049455AD8D5F890008007F5D50EE0FFF710
:101E8000A5FA804606E000BFFFF7A0FAA0EB080124
:101E900049457AD8D5F890008007F5D41FB1A86DD0
:101EA00020F08050A865A06AF0B30C2E75D00228EF
:101EB000286820F08070286004D0286810F0205F27
:101EC00051D054E0FFF782FA064604E0FFF77EFAAD
:101ED000801B022859D828688001F7D4D4E90B0167
:101EE0006FF00F0202EB01110843A18F5204490861
:101EF00002EB4151626B41EA0221084394F8401021
:101F00004FF07E42490802EB41610843A16B090989
:101F100040EA4140E9680A4A11400843E8602868FD
:101F200040F0807028600DE06BE02EE00010024071
:101F3000482D000820000020140000200070004000
:101F40008C809DF9E86840F08070E860FFF73EFA09
:101F5000044604E0FFF73AFA001B022815D8286867
:101F60008001F7D54DE0E86820F00300E860E868FC
:101F700025490840E860FFF729FA044609E000BF58
:101F8000FFF724FA001B022803D90320BDE8F883D9
:101F900003E028688001F3D433E00128F6D0E86834
:101FA000E26A00F00301914229D1216B00F0700236
:101FB00009011039914222D1626B00F4FE41B1EB6C
:101FC000022F1CD1A26B00F40031072A01D001229C
:101FD00000E00022914212D1A18F00F4C002490812
:101FE0004905A1F50011914209D194F8401000F083
:101FF000C06049084906A1F10071814201D0012069
:10200000C4E70020C2E70000FFFFEEFE7047642136
:10201000484310B5401EB0F1807F01D3012010BDB0
:102020004FF0E02460610F21601700F0C2FD002036
:10203000A06107202061002010BD10B5FFF7E6FF6A
:1020400010BD10B5040002D0606F10B107E0012090
:1020500010BD002084F87000204600F025F82420F0
:1020600060672068016821F001010160204600F0EE
:102070001FFC0128ECD0606A10B1204600F070FB14
:102080002068416821F4904141602068816821F016
:102090002A0181602068016841F001010160204649
:1020A000BDE8104000F0C0BB2DE9F04186B0064607
:1020B00014216846FEF7D1F827493068884248D194
:1020C0002648016E41F480410166016E01F48041B1
:1020D0000591C16C41F00201C164C06C4FF002086F
:1020E00000F002000590C020CDE900080024032084
:1020F000CDE9024007200490474669461848FFF79B
:102100007BF8194D17482860C5E901748027C5E997
:1021100003476C61AC61EC6128462C62FEF7FAFF64
:1021200008B1FEF7BCF9F566AE620E480F4D1438E3
:10213000E5E80208102091C50C4845F81449AC6147
:10214000EC612C62FEF7E6FF08B1FEF7A8F9B56670
:10215000AE6206B0BDE8F0810038014000100240D8
:1021600000040048580002401C01002064010020C7
:102170002DE9F8430446406F1F4616460D462028B9
:102180004ED1CDB1C6B194F87000012848D00120DD
:1021900084F870004FF00008C4F87C80212060674C
:1021A000FFF714F9A4F850608146A4F85260A068C3
:1021B000B0F5805F03D004E00120BDE8F88320691A
:1021C00010B12E46002510E000260EE080212046AA
:1021D00000F0BEFCB8B9C6B116F8010B216808853D
:1021E000B4F85200401EA4F85200B4F852004B4616
:1021F0004FF0000200970028E8D14FF04001204640
:1022000000F0A6FC30B10320D7E735F8020BC0F38D
:102210000800E3E72020606784F870800020CCE7A6
:102220000220CAE7FEE700EB8100006E00F0F840F4
:1022300070478068C0F3C00070478068C0F3C0007A
:1022400070478068C0F3800070478068C0F38000EA
:102250007047C06810F4406F01D000207047012023
:102260007047042303EAD15310B518444369C1F3FE
:10227000045107248C40A3438A401343436110BD9B
:1022800000EB8100016E21F00041114301667047AF
:1022900030B589B000240694079418216846089444
:1022A000FDF7DBFF174816490425C0E90014082193
:1022B000C0E90214C0E90445047644760121C161F5
:1022C00080F820408462C46280F83040446380F823
:1022D0003840FEF7E5FB06A90A480694FEF766F9C2
:1022E000094800900620CDE901057F200594CDE93D
:1022F000030569460348FEF7D1F909B030BD000077
:102300000000045024000020000052C770B586B0C1
:1023100014216846FDF7A1FF1A48C16C41F0040181
:10232000C164C16C01F004010591C16C41F001016F
:10233000C164C16C01F001010591C16C41F0020161
:10234000C164C06C104E00F002004FF4804505904F
:10235000002229463046FFF734F800246810CDE902
:102360000004694609480294FEF746FF01200095E3
:10237000CDE90104694630460394FEF73DFF06B0FF
:1023800070BD000000100240000400480008004832
:102390000948084901604FF4E13141600021816042
:1023A0000C22C160C0E904128161C1610162416215
:1023B000FFF747BE003801409C000020FEE7704751
:1023C000704700002DE9F041444C05468846E0681E
:1023D0000026810728680DD0E16801F003018142E1
:1023E00016D1A8B1E0686968C0F30210401C8842A9
:1023F0000ED120E0012804D0022805D0032807D1FF
:1024000008E02168890701E021684905002907DB08
:1024100001265FE02168890302D421684903F5E7BA
:10242000E1686A686FF00F0321F0730103EB021299
:1024300011430143E160206820F080602060FEF7D6
:10244000C5FF074605E000BFFEF7C0FFC01B02281E
:1024500037D820680001F7D4B8F1000F18D0B8F1D0
:10246000010F1ED0287D4FF07E41400801EB4060F7
:10247000A96840EA01202169194A114008432061F6
:10248000206840F080602060FEF7A0FF07461AE059
:10249000A868E9680002090940EA41402169114A37
:1024A000EBE7288A1049400801EB4050A96840EA50
:1024B000012021690D4AE0E7FEF788FFC01B0228D2
:1024C00001D9032606E020680001F5D52069A96935
:1024D000084320613046BDE8F08100000010024052
:1024E000FF80FFF9FF80FDFF0000E0FFFF809FFFFE
:1024F0002DE9F0413D4C06468846E06800258107FD
:1025000030680DD0E16801F00301814216D1A8B115
:10251000E0687168C0F30210401C88420ED120E0D0
:10252000012804D0022805D0032807D108E021683B
:10253000890701E021684905002907DB012551E0F1
:102540002168890302D421684903F5E7E1687268CC
:102550006FF00F0321F0730103EB021211430143EB
:10256000E160206820F080502060FEF72FFF0746D2
:1025700005E000BFFEF72AFFC01B022829D820680B
:102580008000F7D4B8F1000F15D0307C4FF07E41B9
:10259000400801EB4060B16840EA01206169144ADB
:1025A000114008436061206840F080502060FEF7D1
:1025B0000DFF07460FE0B068F1680002090940EA24
:1025C000414061690B4AEBE7FEF700FFC01B0228A0
:1025D00001D9032506E020688000F5D5606971699E
:1025E000084360612846BDE8F08100000010024009
:1025F000FF80FFF9FF80FDFFF8B51C4D0646002463
:10260000A86DC00002D5FEF7ABFF0DE0A86D40F04D
:102610008050A865A86D00F080500090FEF7A0FFE4
:10262000A96D21F08051A965B0F5007F04D0802EFE
:1026300007D94FF003040AE0802E08D9A02E01D854
:1026400004E001D1022402E0702E00D101240848E8
:10265000016821F0070121430160006800F00700D4
:10266000A04201D00120F8BD0020F8BD00100240BA
:10267000002002407047000010B5FEF7ADFEFFF7E6
:10268000DCFC02490120086010BD000010000020A1
:10269000F0B5B9B0442122A8FDF7DFFD142133A81D
:1026A000FDF7DBFD88216846FDF7D7FD102022905D
:1026B00001240025CDE9284502266020CDE92C64BF
:1026C0002A9028200727CDE92E40CDE93076329692
:1026D00022A8FFF72BFA0F2033900320CDE9340511
:1026E0003695042133A83795FFF71AF944F2010013
:1026F000009000071E901820CDE9024001942006AA
:102700000E95CDE90660CDE904766846FEF730FF08
:102710006002FEF7F1FE39B0F0BD00000D4801681F
:1027200041F4700101600C48016841F00101016051
:10273000002181600268094B1A4002608214C26065
:10274000026822F48022026081610249C00380395C
:102750000860704788ED00E000100240FFFFF6EAD5
:1027600090F82410C90706D001684A68836A22F4E9
:1027700000321A434A6090F82410890706D5016890
:102780004A68C36A22F480321A434A6090F82410DF
:10279000490706D501684A68036B22F480221A4370
:1027A0004A6090F82410090706D501684A68436B0F
:1027B00022F400421A434A6090F82410C90606D554
:1027C00001688A68836B22F480521A438A6090F809
:1027D0002410890606D501688A68C36B22F400526A
:1027E0001A438A6090F82410490611D501684A6896
:1027F000036C22F480121A434A60016CB1F5801F09
:1028000006D101684A68436C22F4C0021A434A6048
:1028100090F82410090606D501684A68806C22F4F5
:10282000002202434A607047F8B500260446C66796
:10283000FEF7CCFD0546206800686FF07E47000774
:1028400008D52B4600224FF400112046009700F0D7
:102850007FF960B92068006840070AD52B4600223E
:102860004FF480012046009700F072F908B1032070
:10287000F8BD20206067A06784F870600020F8BD74
:102880002DE9F04115460F468046002447F23056A8
:1028900008E0AAB2334639464046FFF769FC0028F3
:1028A00003D0641CAC42F4DB0120BDE8F0810000E1
:1028B0002DE9F0410546016880682B69EC691843F1
:1028C0006B69002723431843954A0B68954C2340B6
:1028D00003430B6028684168EB6821F440511943B9
:1028E00041602968A869914201D02B6A18438B681E
:1028F00023F4306303438B608B4B29688B489942E8
:102900000DD1D0F8880010F0030006D0012868D05F
:10291000022864D0032851D165E001244FE0844BA4
:1029200099420BD1D0F8880010F00C0055D0042843
:1029300057D0082853D00C2840D154E07D4B994201
:102940000BD1D0F8880010F0300046D0102848D0C5
:10295000202844D0302831D145E0774B99420BD123
:10296000D0F8880010F0C00037D0402839D0802837
:1029700035D0C02822D136E0704B99420ED1D0F824
:10298000880010F4407028D0B0F5807F29D0B0F5D1
:10299000007F24D0B0F5407F10D124E091420DD1CA
:1029A000D0F8880010F4406017D0B0F5806F18D0D0
:1029B000B0F5006F13D0B0F5406F14D01024604B09
:1029C00000264FF40040914245D174B1022C0FD043
:1029D000042C0FD0082C18D10FE00024EFE70224BC
:1029E000EDE70424EBE70824E9E7FFF729F803E023
:1029F000184602E0FFF748F8A8B36A6802EB420104
:102A0000814202D8B0EB023F01D9012775E0DFF81F
:102A100034815CB1022C0CD0042C13D0082CF4D1DE
:102A200050082105401846F1000105E0FFF708F8BD
:102A30000AE050084449F5E70023FDF7C1FBA0F583
:102A4000407156E0FFF720F86A68010E0302500853
:102A500018187141F0E7E9694FF6EF7881422FD1FC
:102A6000092CD2D200E048E0DFE804F00609200596
:102A7000230505052600C8E7FEF7E2FF01E0FEF7A3
:102A8000F1FF4100D5F8040001EB5001B1FBF0F07B
:102A900080B2A0F110014145B7D84FF6F071014066
:102AA000C0F3420001432868C16026E027496868F6
:102AB000EAE7FEF7E9FFE4E74FF480316868E3E70F
:102AC000092CA2D2DFE804F006091E05220505053F
:102AD00025009AE7FEF7B4FF01E0FEF7C3FF0146C9
:102AE000686801EB500100BFB1FBF0F080B2A0F1CB
:102AF0001001414589D82968C8602E6638466E663F
:102B0000BDE8F081686803EB5001EDE7FEF7BCFF1C
:102B1000E5E7696800EB5100B0FBF1F0E6E7000083
:102B200000800040F369FFEF0038014000100240D0
:102B30000044004000480040004C0040005000406D
:102B40000024F400FFFC0F00000024F40048E8011A
:102B50002DE9F041984617460E460446069D08E0CA
:102B6000681C06D0FEF732FCA0EB0800A8420BD888
:102B700055B12068C06936EA000017D00020B8427D
:102B8000EED00020BDE8F0812068016821F4D0710A
:102B900001602068816821F0010181602020606768
:102BA000A067002084F870000320EBE70120E6E72F
:102BB000FEE70907090E002804DB00F1E02080F899
:102BC0000014704700F00F0000F1E02080F8141DA1
:102BD000704702E008C8121F08C1002AFAD17047E6
:102BE0007047002001E001C1121F002AFBD170478D
:102BF0008EB014224AA16846FDF716FBFEF7F4FBDF
:102C0000FFF746FDFFF782FB4A48816C41F0010166
:102C10008164806C002200F00100059011460E20B6
:102C2000FEF738FC0E20FEF727FC002211460F208D
:102C3000FEF730FC0F20FEF71FFCFFF729FB2421D5
:102C400005A8FDF70AFB3D493B4808600846FEF72A
:102C5000C1F9002505950695079508952A4605A909
:102C600036480995FEF729F9102205A93348089539
:102C7000FEF723F9FFF78CFB30487F216438FDF71E
:102C80004DFC2F4FDFF8B8802C483A88A8F1220875
:102C90007F216438FDF704FC2A4C40F6B8362069E1
:102CA0000128FCD1254825616438FEF76DF82348DA
:102CB00031466438FDF7ECFFD0B920486438FDF7A1
:102CC000ECFE20601D486438FEF7D8F8206843F217
:102CD00090314843B0FBF6F1B8F800003A88091A81
:102CE00001EB81010901101A91FBF0F01E306060C8
:102CF00062680A2092FBF0F192FBF0F300FB1320D4
:102D000030313030C4E902018DF80E108DF80F001B
:102D10000A48132269461430FFF7B2FDBFE70000EE
:102D200054656D7065726174757265203D20333035
:102D300020430A0000100240007400408800002078
:102D4000CA75FF1F00000020000000000000000006
:102D50000102030406070809A0860100400D0300D4
:102D6000801A060000350C0040420F0080841E00CF
:102D700000093D0000127A000024F40000366E01C4
:102D80000048E801006CDC020000000001020304BE
:102D9000B02D00080000002024000000D22B000805
:102DA000D42D0008240000208C050000E22B000830
:102DB0000000000000000000000000000000000013
:102DC00000000000100000000100000000000000F2
:042DD00000093D00B9
:040000050800018965
:00000001FF
