:020000040800F2
:10000000200400209D010008B3130008E712000837
:10001000B1130008A3060008111500080000000035
:10002000000000000000000000000000551400085F
:10003000A506000800000000D513000857140008AA
:10004000B7010008B7010008B7010008B7010008B0
:10005000B7010008B7010008B7010008B7010008A0
:10006000B7010008B7010008B7010008B701000890
:10007000B7010008B7010008B7010008B701000880
:10008000B7010008B7010008B7010008B701000870
:10009000B7010008B7010008B7010008B701000860
:1000A000B7010008B7010008B7010008B701000850
:1000B000B7010008B7010008B7010008B701000840
:1000C000B7010008B7010008B7010008B701000830
:1000D000B7010008B7010008B7010008B701000820
:1000E000B7010008B7010008B7010008B701000810
:1000F000B7010008B7010008B7010008B701000800
:10010000B7010008B7010008B7010008B7010008EF
:10011000B7010008B7010008B7010008B7010008DF
:10012000B7010008B7010008B7010008B7010008CF
:10013000B7010008B7010008B7010008B7010008BF
:10014000B7010008B7010008B7010008B7010008AF
:10015000B7010008B7010008B7010008B70100089F
:10016000B7010008B7010008B7010008B70100088F
:10017000B7010008B70100080000000000000000FF
:10018000B7010008B7010008DFF80CD000F06AFAE8
:10019000004800479D1E00082004002006488047B4
:1001A00006480047FEE7FEE7FEE7FEE7FEE7FEE75C
:1001B000FEE7FEE7FEE7FEE7CD1400088901000830
:1001C0002DE9FE4F804681EA0300C00F0C460090E7
:1001D00021F0004123F00045B8EB0200A94105D20F
:1001E0004046214690461C460B46024623F00040FE
:1001F000104347D0270DC7F30A00C3F30A510290FA
:10020000401A019040286BDAC3F3130040F4801BBE
:100210000098924620B10023D2EB030A63EB0B0B4C
:1002200001985946C0F14002504600F08CF906464C
:100230000D4650465946019A00F0A4F910EB08000B
:100240006141002487EA115284EAE7731A4340D0DF
:10025000009A62B3019A012A4FEA075215DC001B8B
:1002600061EB02014FF0004202EA0752CDE9004281
:10027000001C41F5801132462B4600F0A4F903B072
:1002800000F045B840462146F9E7001B61EB02014A
:10029000001C41F5801300185B412018A2F50017DF
:1002A00047EB030140EAD570B6196D4111E06D08C6
:1002B0004FEA360645EAC0754FEA0752001B61EB6C
:1002C0000201001C41F5801149084FEA3000001975
:1002D000514132462B4603B000F01CB800F064B91F
:1002E0000098012240000023D0EB020263EBE07390
:1002F000009821464FEAE074B8EB000061EB04017E
:10030000E9E783F000435BE781F0004158E730BC48
:10031000BDE8C08F30BCBDE8C04FFFF7DFBF2DE99F
:10032000FE4F81EA030404F0004421F000410094F0
:100330004FF0000B23F0004350EA01045ED052EA74
:1003400003045BD0C3F30A54C1F30A552C44A4F24E
:10035000F3340194A0FB0254C1F3130141F4801162
:10036000C3F3130343F4801301FB024400FB034E69
:10037000840A970A44EA815447EA8357A4FB076832
:1003800002958D0A05FB07854FEA932C04FB0C545C
:100390002705029D4FEA065847EA1637B5EB0805D0
:1003A0006EEB070C870E920E47EA811742EA831222
:1003B000A7FB0201B6EB0B0164EB00042B0D43EA33
:1003C0000C335E1844EB1C50DA465146E7FB020141
:1003D000C5F313044FEA0B3343EA14534FEA0432D4
:1003E000019C43EA0603A4F10C040294009CCDE9AD
:1003F00000B400F0E8F803B000F003B800200146B4
:10040000F9E730BCBDE8C08F2DE9F04D81EA030467
:1004100004F0004B21F0004514464FF0000A23F091
:10042000004150EA050220D054EA01021DD0C5F374
:100430000A570246C5F31303C1F31300C1F30A566A
:1004400040F4801543F48013A7EB0608101BD64632
:1004500008F2FD3873EB050002D308F1010801E052
:1004600092185B41B8F1000F03DA00200146BDE8A5
:10047000F08D00204FF48011064684460EE0171BD5
:1004800073EB050705D3121B63EB050306434CEA28
:10049000010C49084FEA300092185B4150EA01070D
:1004A000EDD152EA030012D082EA040083EA05018A
:1004B000084305D0101BAB4106D20122002306E001
:1004C00000224FF0004302E06FF0010253101AEBDC
:1004D00006004CEB085110EB0A0041EB0B01BDE8A4
:1004E000F04D00F061B80EB5C10F80EAE07008442D
:1004F000CA07002140F233438DE80E000A460B463E
:1005000000F061F803B000BD70B5C1F30A5201F00C
:1005100000450024C1F3130140F2FF3341F4801180
:100520009A4201DA002070BD40F233439A42A2F2AF
:10053000334203DC524200F015F800E090402C43B7
:10054000F1D0404270BD202A04DB203A00FA02F1CB
:10055000002070479140C2F1200320FA03F31943B1
:1005600090407047202A04DB203A21FA02F0002153
:10057000704721FA02F3D040C2F1200291400843B3
:1005800019467047202A06DBCB17203A41FA02F0C1
:1005900043EAE07306E041FA02F3D040C2F12002E0
:1005A000914008431946704710B5141E73F10004BA
:1005B00008DA401C41F1000192185B411A4301D155
:1005C00020F0010010BD2DE9F04D92469B4611B17F
:1005D000B1FA81F202E0B0FA80F220329046FFF7E1
:1005E000B2FF04460F4640EA0A0041EA0B015346B7
:1005F0005A46084313D0114653EA010019D0C8F1F6
:1006000040025046FFF7AEFF05460E46504659469B
:100610004246FFF798FF084305D0012004E020463A
:100620003946BDE8F08D0020054346EAE0762C43CC
:1006300037430A986305E40AA0EB08000022FD0A8C
:1006400044EA47540A3002D500200146E9E7010593
:1006500010196941DDE9084500196941BDE8F04D0F
:10066000A2E70000064C074D06E0E06840F00103F9
:1006700094E8070098471034AC42F6D3FFF788FDA2
:10068000F8200008182100080EB540F2334102910D
:100690000021CDE900110A460B46FFF794FF03B095
:1006A00000BDFEE7704700002DE9F04704464079A1
:1006B000002715460E46012809D04FF0010984F89D
:1006C0000590022020713068042803D044E0022005
:1006D000BDE8F0874FF003080DBB00F0DDF90746D9
:1006E00005E000BF00F0D8F9C01B01280FD8206832
:1006F000406B0004F6D4012000F0CFF82168B06907
:10070000086416E000F0C8F9C01B012807D9206969
:1007100040F00800206184F804800320D8E72068B6
:10072000406B0028EEDB012000F0B7F82168B069CB
:1007300048642068816C40F2FF32AA409143F2691C
:10074000AA40114381642068C16CFF22AA409143F2
:10075000326AAA401143C1643069012808D1226875
:10076000916B1F20A84081437069A84008439063A3
:100770002268D06B0721A9408843B36831681943C8
:10078000F3681943A9400143D163206801684FF41D
:100790008042AA40914301602268116840F6FC70D3
:1007A000A84081437068A840084310602068016831
:1007B000C022AA409143016084F804900020607137
:1007C00086E770B5040003D02079002510B105E05C
:1007D000012070BD6571204600F008F802202071EC
:1007E000256101202071002070BD000000B5006867
:1007F0000C4987B0884213D10B48816D41F00051FC
:100800008165806D694600F00050059030200090B1
:1008100003200190002002904FF0904000F04CF82F
:1008200007B000BD007400400010024018B5046815
:1008300000940068104421B114300090036000203F
:1008400018BD0830F9E730B54279012A12D00122EB
:1008500042710223037103681D6802FA01F4254303
:100860001D60002901680B6806D0C3F383430F2B7A
:100870000AD00DE0022030BDC3F383030F2B07D154
:100880004B6843F0010302E04B6843F002034B6006
:10089000027100214171084630BD70B5044600F078
:1008A000FBF80546601C00D0641C00F0F5F8401B06
:1008B000A042FAD370BD00002DE9F84FDFF898B1DF
:1008C00000234FF0010C4FF0030A4FF00F090BF11A
:1008D000040EB9E00CFA03F4224070D04D68022DEA
:1008E00001D0122D0ED1DD0800EB8508D8F820507C
:1008F0005E07F70E09FA07F6B5430E69BE402E43B0
:10090000C8F8206007685E0091F804800AFA06F5CE
:1009100008F00308AF4308FA06F848EA0708C0F8E9
:1009200000804F68012F05D0022F03D0112F01D076
:10093000122F13D1D0F80880CF6828EA0508B740F5
:1009400047EA08078760D0F804800F7928EA04088E
:10095000C7F300179F4047EA08074760D1F80480B3
:100960006FEA0807BF0706D1C76AA743C8F3C004E8
:100970009C403C43C462C468AC438D68B540254389
:10098000C5604C68E4005ED5344C256E45F0010529
:100990002566246E23F0030504F001040094304C16
:1009A0002E19B4689D072F0F09FA07F5AC43B0F173
:1009B000904F05D02B4DA84204D101251CE042E008
:1009C000002519E0284DA84201D1022514E0274D49
:1009D000A84201D103250FE0254DA84201D10425ED
:1009E0000AE0244DA84201D1052505E0224DA84288
:1009F00001D1062500E00725BD402543B560DBF8A1
:100A000000405D464E689443F60300D514432C60C5
:100A1000DEF8004075464E689443B60300D5144393
:100A20002C600D4D08352C684E689443F60200D5B5
:100A300014432C60084D0C352C684E689443B60264
:100A400000D514432C605B1C0A6832FA03F57FF46E
:100A500041AF00F013B80000000401400010024054
:100A6000000001400004004800080048000C004855
:100A700000100048001400480018004818BCBDE8E9
:100A8000E08F0069084000D0012070470AB1816101
:100A9000704781627047000001480068704700009D
:100AA0000000002002480168491C016070470000F6
:100AB0000000002010B5032000F07CF8002000F0BA
:100AC00005F800F017F8002010BD000010B504462E
:100AD00007484FF47A710068B0FBF1F000F0EBFBCF
:100AE00000222146501E00F045F8002010BD0000F5
:100AF000040000201E4808B5016E41F001010166A6
:100B0000016E01F001010091816D41F0805181651C
:100B1000806D00F080500090032000F04BF8002220
:100B200011466FF00B0000F025F8002211466FF01F
:100B30000A0000F01FF8002211466FF0090000F0D3
:100B400019F800221146501F00F014F80022114637
:100B5000101F00F00FF800221146901E00F00AF856
:100B60000022BDE808401146501E00F003B8000006
:100B700000100240F0B40E4B1B680C46C3F3022376
:100B8000C3F10705042D00D90425191D072901D239
:100B9000002300E0DB1E012606FA05F1491E214074
:100BA00099409E40761E16403143F0BC00F002BCD6
:100BB0000CED00E0064900F0070208684FF6FF035D
:100BC000184040EA0220034A1043086070470000C2
:100BD0000CED00E00000FA051549B0F5007F08684B
:100BE000C0F3412009D0022805D0086820F4C06075
:100BF00040F480600860002070470128FBD008683E
:100C000020F4C06040F4007008600A480A4A006896
:100C1000B0FBF2F03222504300E0401E10B14A69AE
:100C20005205FAD448694005E5D503207047000015
:100C3000007000400400002040420F00024800689D
:100C400000F4C06070470000007000402DE9F047DC
:100C50000F46050058D03E4E306800F00700B842FD
:100C600009D2306820F0070038433060306800F067
:100C70000700B84248D12878364CC0072CD06868A5
:100C8000032811D0022812D0216898B14905002903
:100C90003ADAA16821F003010143A160FFF7FCFEED
:100CA000804641F2883910E021688901EFE7216828
:100CB0008903ECE78907EAE7FFF7EEFEA0EB0801FE
:100CC000494502D90320BDE8F087A068696800F0B3
:100CD0000C00B0EB810FEFD12878800705D5A06814
:100CE000A96820F0F0000843A060306800F0070019
:100CF000B8420BD9306820F00700384330603068C4
:100D000000F00700B84201D00120DCE72878400756
:100D100005D5A068E96820F4E0600843A060287861
:100D2000000706D5A068296920F4605040EAC10098
:100D3000A06000F01BF8A168074AC1F30311515CE1
:100D4000C840064908600020FFF7C0FE0020BAE74F
:100D50000020024000100240981F000804000020FC
:100D600001480068704700000400002030B52D499C
:100D7000002318468A682C4C12F00C0F4FEA6405C9
:100D800014D08A68C2F38102032A04D1CA6802F02F
:100D90000302012A0AD08A68C2F38102012A19D00B
:100DA0008A68C2F38102022A16D016E00A68120786
:100DB00004D4D1F89420C2F3032202E00A68C2F3FB
:100DC00003121A4B53F822308A6812F00C0F04D128
:100DD000184602E0204600E028468A68C2F38102F5
:100DE000032A1DD1C868CA6800F00300C2F30212CA
:100DF000521C022804D0032805D0B3FBF2F004E013
:100E0000B4FBF2F001E0B5FBF2F0CA68C968C2F3C6
:100E100006225043C1F34161491C4900B0FBF1F087
:100E200030BD0000001002400024F400A81F00089C
:100E30002DE9F84304007DD02078FF4DC0065DD534
:100E4000A86810F00C0F0AD0A0690028286873D099
:100E500040F001002860FFF71FFE064655E02868B5
:100E6000800702D5A0690028E5D0216A286800071C
:100E700003D5286800F0F00004E0D5F89400F022D3
:100E800002EA1010814216D9084600F0A5FA00289F
:100E900050D1286840F0080028602868216A20F0B6
:100EA000F000084328606868E16920F47F4040EA68
:100EB0000120686015E0286840F008002860286874
:100EC000216A20F0F000084328606868E16920F496
:100ED0007F4040EA01206860206A00F07DFA002827
:100EE000D6D1FFF743FFA968D44AC1F30311515C7F
:100EF000C840D34908600020FFF7E8FD2CE000BFA0
:100F0000FFF7CAFD801B02287ED828688007F7D526
:100F1000286840F0080028602868216A20F0F00066
:100F2000084328606868E16920F47F4040EA0120B6
:100F3000686011E0B2E0FFE720F001002860FFF7F1
:100F4000ABFD064605E000BFFFF7A6FD801B0228AB
:100F5000DAD828688007F7D42078C00748D0A86876
:100F6000C0F3810002281DD0A868C0F381000328C7
:100F700003D1E868C043800714D06068B0F5803FB3
:100F800017D0B0F5A02F286817D020F48030286043
:100F9000286820F4802028606068E0B1FFF77CFDBD
:100FA000064614E02868800322D56068002875D0C2
:100FB0001EE0286840F48030EDE740F4802028608F
:100FC000F7E700BFFFF768FD801B64289CD82868FE
:100FD0008003F7D50CE0FFF75FFD064605E000BF94
:100FE000FFF75AFD801B64288ED828688003F7D449
:100FF0002078800742D5A868C0F38100012816D068
:10100000A868C0F3810000E0A9E0032804D1E868E3
:1010100000F0030002280AD0E068002828681DD0EC
:1010200040F480702860FFF737FD06460BE0286823
:1010300040050BD5E0680028B9D007E0FFF72CFD8C
:10104000801B022884D828684005F7D56868217C71
:1010500020F0F85040EA016068600FE020F48070F2
:101060002860FFF719FD064605E000BFFFF714FDF5
:10107000801B022873D828684005F7D42078000721
:1010800029D560690028D5F8940013D040F00100FC
:10109000C5F89400FFF700FD064606E0FBE000BF40
:1010A000FFF7FAFC801B022859D8D5F89400800776
:1010B000F6D510E020F00100C5F89400FFF7ECFC35
:1010C000064604E0FFF7E8FC801B022847D8D5F865
:1010D00094008007F6D42078400763D5A86D0026D9
:1010E000C00008D4A86D40F08050A865A86D012606
:1010F00000F08050009053480168C90511D4016880
:10110000804641F480710160FFF7C6FC074604E0A9
:10111000FFF7C2FCC01B022821D8D8F80000C00588
:10112000F6D5A068012815D00528D5F8900017D06D
:1011300020F00100C5F89000D5F8900020F00400E0
:10114000C5F89000A06841F28838C8B1FFF7A4FC48
:10115000074610E0D5F8900040F00100F0E777E096
:1011600040F00400C5F89000F4E700BFFFF794FCDE
:10117000C11B41456CD8D5F890008007F6D50CE02E
:10118000FFF78AFC074604E0FFF786FCC11B4145D8
:1011900079D8D5F890008007F6D41EB1A86D20F05C
:1011A0008050A865A06AE0B3A968C1F38101032952
:1011B00072D00228286820F08070286011D028683A
:1011C000000106D42868800003D4E86820F00300FA
:1011D000E860E8681C490840E860FFF75DFC0446E9
:1011E00054E0FFF759FC064605E000BFFFF754FC4A
:1011F000801B022847D828688001F7D4206BE16A59
:10120000000110380843616BA26B0902120941EA20
:1012100042410843A18F0D4A490802EB415108435E
:1012200000E036E094F840104908120102EB4161F9
:101230000843E86028680CE000100240981F00088E
:101240000400002000700040FFFFEEFE0000E0FF01
:1012500019E040F080702860E86840F08070E86035
:10126000FFF71AFC044604E0FFF716FC001B0228F7
:1012700009D828688001F7D50BE000BFFFF70CFC08
:10128000001B022802D90320BDE8F88328688001EA
:10129000F4D40020F8E7FFE70120F5E74FF0E02164
:1012A0000428086903D020F004000861704740F06A
:1012B0000400FAE7704710B5401EB0F1807F01D3FB
:1012C000012010BD4FF0E02460610F21601700F095
:1012D00071F80020A06107202061002010BD10B52A
:1012E000FFF7E8FF10BDFEE710B511498AB00F48BF
:1012F00008600846FFF765FA00B1FEE70024009495
:101300000194029403942246694609480494FFF725
:10131000CBF900B1FEE71022694605480394FFF7B8
:10132000C3F9002800D0FEE70AB010BD00740040E9
:101330000C00002070B51B4886B0C16C41F0040160
:10134000C164C16C01F004010591C16C41F001015F
:10135000C164C16C01F001010591C16C41F0020151
:10136000C164C06C104E00F002004FF4804505903F
:10137000002229463046FFF789FB00246810CDE99A
:101380000004694609480294FFF796FA0120009587
:10139000CDE90104694630460394FFF78DFA06B0A3
:1013A00070BD000000100240000400480008004822
:1013B000FEE770470907090E002806DA00F00F0063
:1013C00000F1E02080F8141D704700F1E02080F863
:1013D0000014704770470000F8B51C4D0646002405
:1013E000A86DC00002D5FFF729FC0DE0A86D40F004
:1013F0008050A865A86D00F080500090FFF71EFC9B
:10140000A96D21F08051A965B0F5007F04D0802E30
:1014100007D94FF003040AE0802E08D9A02E01D886
:1014200004E001D1022402E0702E00D1012408481A
:10143000016821F0070121430160006800F0070006
:10144000A04201D00120F8BD0020F8BD00100240EC
:1014500000200240704710B5FFF724FBBDE81040A4
:10146000FFF73DBF10B596B010200090002401207A
:10147000CDE90604602008900A946846FFF7D8FC7E
:1014800000B1FEE70F20CDE911041394149400215C
:1014900011A81594FFF7DAFB00B1FEE74FF40070D6
:1014A000FFF79AFB00B1FEE7FFF75AFC4FF47A71A1
:1014B000B0FBF1F0FFF7FFFE0420FFF7EFFE002284
:1014C0001146501EFFF756FB16B010BD0D480168BF
:1014D00041F4700101600C48016841F001010160B4
:1014E000002181600268094B1A4002608214C260C8
:1014F000026822F48022026081610249C0038039BF
:101500000860704788ED00E000100240FFFFF6EA37
:10151000FEE703B401984100009850EAC12018BFCB
:1015200004204A0D18BF40F0010040F2FF72B2EBF8
:10153000515F08BF40F00200012808BF052002B03B
:10154000704700000000000010B52F499FED2C1BD4
:101550002DED020B84B0059820F000408842DCBFDE
:1015600000209DED040B32DD2849884209D1049802
:1015700040B94FF0010000F07FFC00F04DFC06B0D8
:1015800010BD05DB9DED040B00F03AFC06B010BD6C
:1015900068469DED040B00F03BF810F0030011D0FD
:1015A000012818D09DED021B9DED000B02281AD0DA
:1015B00000F04EFA51EC100B81F0004106B041EC06
:1015C000100B10BD9DED021B9DED000B012000F0E6
:1015D00073FB06B010BD9DED021B9DED000B00F0EE
:1015E00037FA06B010BD012000F066FB51EC100B7D
:1015F00081F0004106B041EC100B10BD000000006E
:101600000000000000000000FB21E93F0000F07F27
:101610002DE9F14F04462DED020B2DED088B8AB01C
:101620009FEDE70B80ED020B139EE74826F0004587
:1016300085420ADC9DED120B002084ED000B0AB000
:10164000BDEC088B03B000F0FFB9E0489FEDE0ABC4
:101650009FEDE1BBA84247DDE14F9FEDE39B9FED8E
:10166000E48B9DED120B53EC1A2B51EC100B002E5A
:101670001CDDFEF746FE41EC100BBD4208D053ECDA
:101680001B2B51EC100BFEF73CFEC4E900010BE0F4
:1016900053EC192B51EC100BFEF733FE53EC182BC7
:1016A000FEF72FFEC4E900010120C8E7FEF788FD20
:1016B00041EC100BBD4208D053EC1B2B51EC100B2E
:1016C000FEF77EFDC4E900010BE053EC192B51EC51
:1016D000100BFEF775FD53EC182BFEF771FDC4E9F6
:1016E00000014FF0FF30AAE7C348A84279DB9DED27
:1016F000120B51EC100B00F0C5FB41EC180B9FEDE9
:10170000C00B53EC102BFEF70AFE9FEDBF1B53ECF2
:10171000112BFEF755FDFEF7F7FE0746FEF7E3FE39
:1017200041EC190B53EC1A2BFEF7F9FD53EC182B77
:10173000FEF7EAFD41EC180B53EC1B2B51EC190B97
:10174000FEF7EDFDDFF8C8A241EC100B4FEA15588B
:101750000125FA4453EC102B51EC180BFEF7D1FD88
:10176000032DC4E900013DD0C1F30A5005EB45113A
:10177000A8EB00001139814234DA0AEB051BB0EE08
:1017800048AA9BED000BF0EE68AA53EC102B51EC2D
:10179000190BFEF7C4FD41EC1B0B51EC1A0B53EC7B
:1017A0001B2BFEF7AEFD41EC180B51EC1A0B53EC62
:1017B000182BFEF7A6FD53EC1B2BFEF7A2FD9BEDAD
:1017C000020B41EC1A0B53EC102B51EC190BFEF7EA
:1017D000A6FD53EC1A2BFEF794FD41EC100B6D1C8B
:1017E000B8E70EE0002EA8BF3846BFF628AF94ED4C
:1017F000000B51EC100B81F00041C4E9000178426C
:101800001DE7C6F3130040F4801EC6F30A50A0F291
:10181000F530471100F01F05C5F12000DDF848B094
:1018200008900020069007900520EC467949002D8D
:1018300007EB0002794408BF51F8221009D051F893
:10184000223001EB8201AB404A68089922FA01F18B
:101850001943A1FB0E26A1FB0B131A449A4234BF75
:101860000123002303EB06080CEB8003D3E901A658
:101870000E448E4234BF0121002192448A4411B1AA
:10188000924502D903E0924501D2012100E00021F6
:10189000C3E901A641444CF82010011EA0F101004B
:1018A000C4DC029800F10050850F0298DDE903675F
:1018B0008000DDF81480FEF716FE41EC1A0B30466E
:1018C000FEF7E2FE9FED541B53EC112BFEF727FDB4
:1018D00041EC1B0B3846FEF7D7FE9FED511B53EC36
:1018E000112BFEF71CFD41EC180B4046FEF7CCFE19
:1018F0009FED4D1B53EC112BFEF711FD41EC190B25
:1019000051EC180B53EC192BFEF75AFC53EC1B2B24
:10191000FEF756FC53EC1A2BFEF752FCCDE90801FA
:10192000002008909DED080B53EC1A2B51EC100B86
:10193000FEF7E7FC53EC1B2BFEF7E3FC53EC182BF4
:10194000FEF7DFFC53EC192BFEF7DEFC9FED381B96
:1019500053EC112BFEF7E3FC9FED370B41EC180B1A
:1019600053EC102B9DED080B51EC100BFEF7D7FC40
:1019700053EC182BFEF724FC9FED310B41EC180BB8
:1019800053EC102B9DED080B51EC100BFEF7C7FC30
:1019900053EC182BFEF714FC41EC100B139810F0CD
:1019A000004F06D06D4251EC100B81F0004141EC2C
:1019B000100B284684ED000B41E6000000000000FB
:1019C0000000000000000000FB21E93F7CD902403C
:1019D00000004054FB21F93F3163621A61B4D03DED
:1019E000FB21F93F000000000000601A61B4D03D07
:1019F0007370032E8A19A33BFB21394100000000BC
:101A000083C8C96D305FE43F000000000000E03F84
:101A1000B208000000080000000000000000103EB6
:101A2000000000000000103C000000000000103A20
:101A3000182D4454FB21F93D3326A611460B113CC9
:101A400000000054FB21F93D30BCBDE8C08F000010
:101A500010B52DED040B2DED088B82B0B0EE419A40
:101A6000F0EE619A0B9820F000449FED4BABB4F17F
:101A7000795F11DA9DED0A0B51EC100BFEF744FD76
:101A8000002801BFB0EE4A0AF0EE6A0A02B0BDECCF
:101A9000088B04BF04B010BD9DED0A0B53EC102B56
:101AA00051EC100BFEF73BFC41EC180B3C480621B7
:101AB000B0EE480AF0EE680A784400F081F853EC82
:101AC000182B51EC100BFEF72AFC9DED0A0B41EC94
:101AD0001B0B53EC192B51EC100BFEF720FC41ECC7
:101AE000190B53EC1B2B51EC180BFEF718FC53ECA5
:101AF000192BFEF706FC9FED2C0B41EC190B53EC58
:101B0000102B51EC180BFEF70AFC41EC100B284887
:101B1000844210DA53EC192B51EC100BFEF7F1FB59
:101B200053EC1A2BFEF7F0FB41EC100B02B0BDECAE
:101B3000088B04B010BD1F48A042BCBF9FED1E1B08
:101B40008DED001B06DBA4F5001001900020009035
:101B50009DED001B51EC100B53EC112BFEF7D1FB4C
:101B60009DED000B41EC180B53EC102B51EC1A0BB4
:101B7000FEF7C7FB41EC1A0B53EC192B51EC180B79
:101B8000FEF7BFFB53EC1A2BFEF7BEFB41EC100B2C
:101B9000CCE7000000000000000000000000F03F63
:101BA0001C05000000000000000000000000E03FF5
:101BB0003333D33F0000E93F000000000000D23F74
:101BC00070B504462DED028B4D1E00EBC500B0EE46
:101BD000408AF0EE608A90ED000B35F0060017D0D9
:101BE00053EC182B51EC100BFEF799FB41EC100B4A
:101BF0006D1E04EBC50090ED001B51EC100B53EC77
:101C0000112BFEF7DDFA41EC100B35F00600E7D1A1
:101C1000022D36D0042D1CD0062D1CBFBDEC028B2E
:101C200070BD53EC182B51EC100BFEF778FB94EDC4
:101C30000A1B53EC112BFEF7C3FA53EC182BFEF7DB
:101C40006EFB94ED081B53EC112BFEF7B9FA41EC37
:101C5000100B53EC182B51EC100BFEF760FB94EDBE
:101C6000061B53EC112BFEF7ABFA53EC182BFEF7C7
:101C700056FB94ED040B53EC102BFEF7A1FA41EC4C
:101C8000100B53EC182B51EC100BFEF748FB94EDA6
:101C9000021B53EC112BFEF793FA53EC182BFEF7B3
:101CA0003EFB94ED001B53EC112BFEF789FABDECC3
:101CB000028B41EC100B70BD31B504462DED040BC9
:101CC0002DED0A8BB0EE41BAF0EE61BA0B989DEDA6
:101CD0000A0B20F00040B0F1795F0DDA51EC100BE7
:101CE000FFF717FC042808BF00F0A6F89DED0A0BCB
:101CF00000F07AB805B030BD53EC102B51EC100B4E
:101D0000FEF70DFB41EC180B9DED0A0B53EC182B65
:101D100051EC100BFEF703FB41EC190B2C48B0EE15
:101D2000480AF0EE680A05217844FFF749FF9FED65
:101D30002ACBB0EE40AAF0EE60AA9CB353EC1C2B69
:101D400051EC190BFEF7EBFA41EC1C0B53EC1A2B80
:101D500051EC190BFEF7E3FA9FED210B41EC190B47
:101D600053EC102B51EC1B0BFEF7D9FA53EC192B4B
:101D7000FEF7C7FA53EC182BFEF7D1FA53EC1B2BE6
:101D8000FEF7BFFA53EC1C2BFEF7BBFA9DED0A1BC6
:101D900053EC112BFEF7B8FA00F02CB805B041EC6B
:101DA000100B30BDFFE753EC1A2B51EC180BFEF76C
:101DB000B6FA53EC1C2BFEF703FA53EC192BFEF783
:101DC000AEFA9DED0A1B53EC112BFEF7F9F9E3E790
:101DD000A403000000000000495555555555C5BFE6
:101DE000000000000000E03FBDEC088BBDEC02CB22
:101DF000FFF780BFBDEC088BBDEC02CBFFF7CEBF79
:101E000010B553EC102B51EC100BFEF7D9F941EC47
:101E1000100B10BD000000009FED050B10B553EC3A
:101E2000102B51EC100BFEF7EFFA41EC100B10BD2C
:101E300000000000000000009FED050B10B553EC02
:101E4000102B51EC100BFEF76AFA41EC100B10BD91
:101E5000000000000000001002E008C8121F08C1C6
:101E6000002AFAD170477047002001E001C1121F1B
:101E7000002AFBD17047000001490860704700004C
:101E80000800002082B0CDE9000121F0004001905F
:101E90009DED000B02B051EC100B70472DED068B41
:101EA000FEF708FEFFF7DEFAFFF744FAFFF71CFA29
:101EB0000122304F960331463846FEF7E7FD0021F8
:101EC0002D48FEF7C0FC10212B48FEF7BCFCB046A5
:101ED0000024DFF8A8A03E469FED299B9FED2AAB8A
:101EE0009FED2B8B25464FF400594FF47A774946E6
:101EF0005046FEF7C6FD50B1002241463046FEF77F
:101F0000C5FD641CBC4204DC40F6FF7308E00122FE
:101F1000F3E7A4F2E93040F2E731884206D2002329
:101F2000002211461448FEF781FC00E000246D1CDD
:101F30002846FEF7D8FA53EC192BFEF7F0F953ECCC
:101F40001A2BFEF761FA41EC100BFFF7FDFA53EC88
:101F5000182B51EC100BFEF7E2F953EC182BFEF79F
:101F60002FF9FEF7D1FA0346002210210248FEF7AE
:101F70005DFCBCE7000400480C000020000800489D
:101F80006E861BF0F92109400000000000806640C9
:101F90000000000000FC9F40000000000000000066
:101FA0000102030406070809A0860100400D030092
:101FB000801A060000350C0040420F0080841E008D
:101FC00000093D0000127A000024F40000366E0182
:101FD0000048E801006CDC024C5555555555A53FAD
:101FE0007751C1166CC156BF9015CB19A001FA3EAE
:101FF000AD529C804F7E92BEC4B1B4BD9EEE213ED8
:10200000D43888BEE9FAA8BD00004054FB21F93F4E
:102010003163621A61B4D03D0000601A61B4D03DF2
:102020007370032E8A19A33B0000002E8A19A33B6C
:10203000C14920259A837B39000000000000000080
:102040006E83F9A22915444ED15727FCC0DD34F523
:10205000999562DB4190433CAB6351FE61C5BBDEA9
:102060003A6E24B7E0D24D42EA2E49061C92D109BD
:102070001CEB1DFE3EA729B1F53582E88444BB2E3A
:1020800026709CE9417E5FB439D69139F439538387
:102090008B5F849C3B28F9BDFF97F81F0F9805DEE6
:1020A0008B112FEF1F6D0A5ACF7E366DB709CB27E4
:1020B000663F464F2DEA5F9EC7BA27757BF1E5EB79
:1020C000F739073DEA92528AB15FFB6B085D8D1FBD
:1020D000A6F810111111813FD561C119A0012ABFC5
:1020E0007DFEB157E31DC73EEB9C2B8AE6E55ABE49
:1020F0007CD5CF5A3AD9E53D1821000800000020D0
:102100000C000000581E0008242100080C000020CC
:1021100014040000681E00080000000000093D00D3
:0421200000000000BB
:040000050800018965
:00000001FF
