:020000040800F2
:10000000200400209D010008830E0008B70D0008A1
:10001000810E0008E5010008E10F00080000000063
:10002000000000000000000000000000250F000894
:10003000E701000800000000A50E0008270F0008D7
:10004000B7010008B7010008B7010008B7010008B0
:10005000B7010008B7010008B7010008B7010008A0
:10006000B7010008B7010008B7010008B701000890
:10007000B7010008B7010008B7010008B701000880
:10008000B7010008B7010008B7010008B701000870
:10009000B7010008B7010008B7010008B701000860
:1000A000B7010008B7010008B7010008B701000850
:1000B000B7010008B7010008B7010008B701000840
:1000C000B7010008B7010008B7010008B701000830
:1000D000B7010008B7010008B7010008B701000820
:1000E000B7010008B7010008B7010008B701000810
:1000F000B7010008B7010008B7010008B701000800
:10010000B7010008B7010008B7010008B7010008EF
:10011000B7010008B7010008B7010008B7010008DF
:10012000B7010008B7010008B7010008B7010008CF
:10013000B7010008B7010008B7010008B7010008BF
:10014000B7010008B7010008B7010008B7010008AF
:10015000B7010008B7010008B7010008B70100089F
:10016000B7010008B7010008B7010008B70100088F
:10017000B7010008B70100080000000000000000FF
:10018000B7010008B7010008DFF80CD000F018F83C
:10019000004800470110000820040020064880475E
:1001A00006480047FEE7FEE7FEE7FEE7FEE7FEE75C
:1001B000FEE7FEE7FEE7FEE79D0F00088901000865
:1001C000064C074D06E0E06840F0010394E80700A4
:1001D00098471034AC42F6D3FFF7DAFF84100008DA
:1001E000A4100008FEE770472DE9F0470446407967
:1001F000002715460E46012809D04FF0010984F862
:100200000590022020713068042803D044E00220C9
:10021000BDE8F0874FF003080DBB00F0A5F90746D5
:1002200005E000BF00F0A0F9C01B01280FD820682E
:10023000406B0004F6D4012000F098F82168B06902
:10024000086416E000F090F9C01B012807D9206966
:1002500040F00800206184F804800320D8E720687B
:10026000406B0028EEDB012000F080F82168B069C7
:1002700048642068816C40F2FF32AA409143F269E1
:10028000AA40114381642068C16CFF22AA409143B7
:10029000326AAA401143C1643069012808D122683A
:1002A000916B1F20A84081437069A8400843906368
:1002B0002268D06B0721A9408843B368316819438D
:1002C000F3681943A9400143D163206801684FF4E2
:1002D0008042AA40914301602268116840F6FC7098
:1002E000A84081437068A8400843106020680168F6
:1002F000C022AA409143016084F8049000206071FC
:1003000086E770B5040003D02079002510B105E020
:10031000012070BD6571204600F008F802202071B0
:10032000256101202071002070BD000000B500682B
:100330000C4987B0884213D10B48816D41F00051C0
:100340008165806D694600F0005005903020009076
:1003500003200190002002904FF0904000F014F82C
:1003600007B000BD007400400010024070B50446A4
:1003700000F0FAF80546601C00D0641C00F0F4F8A8
:10038000401BA042FAD370BD2DE9F84FDFF898B1B9
:1003900000234FF0010C4FF0030A4FF00F090BF14F
:1003A000040EB9E00CFA03F4224070D04D68022D1F
:1003B00001D0122D0ED1DD0800EB8508D8F82050B1
:1003C0005E07F70E09FA07F6B5430E69BE402E43E5
:1003D000C8F8206007685E0091F804800AFA06F504
:1003E00008F00308AF4308FA06F848EA0708C0F81F
:1003F00000804F68012F05D0022F03D0112F01D0AC
:10040000122F13D1D0F80880CF6828EA0508B7402A
:1004100047EA08078760D0F804800F7928EA0408C3
:10042000C7F300179F4047EA08074760D1F80480E8
:100430006FEA0807BF0706D1C76AA743C8F3C0041D
:100440009C403C43C462C468AC438D68B5402543BE
:10045000C5604C68E4005ED5344C256E45F001055E
:100460002566246E23F0030504F001040094304C4B
:100470002E19B4689D072F0F09FA07F5AC43B0F1A8
:10048000904F05D02B4DA84204D101251CE042E03D
:10049000002519E0284DA84201D1022514E0274D7E
:1004A000A84201D103250FE0254DA84201D1042522
:1004B0000AE0244DA84201D1052505E0224DA842BD
:1004C00001D1062500E00725BD402543B560DBF8D6
:1004D00000405D464E689443F60300D514432C60FB
:1004E000DEF8004075464E689443B60300D51443C9
:1004F0002C600D4D08352C684E689443F60200D5EB
:1005000014432C60084D0C352C684E689443B60299
:1005100000D514432C605B1C0A6832FA03F57FF4A3
:1005200041AF00F013B80000000401400010024089
:10053000000001400004004800080048000C00488A
:1005400000100048001400480018004818BCBDE81E
:10055000E08F0069084000D0012070470AB1816136
:1005600070478162704700000148006870470000D2
:100570000000002002480168491C0160704700002B
:100580000000002010B5032000F07CF8002000F0EF
:1005900005F800F017F8002010BD000010B5044663
:1005A00007484FF47A710068B0FBF1F000F0EBFB04
:1005B00000222146501E00F045F8002010BD00002A
:1005C000040000201E4808B5016E41F001010166DB
:1005D000016E01F001010091816D41F08051816552
:1005E000806D00F080500090032000F04BF8002256
:1005F00011466FF00B0000F025F8002211466FF055
:100600000A0000F01FF8002211466FF0090000F008
:1006100019F800221146501F00F014F8002211466C
:10062000101F00F00FF800221146901E00F00AF88B
:100630000022BDE808401146501E00F003B800003B
:1006400000100240F0B40E4B1B680C46C3F30223AB
:10065000C3F10705042D00D90425191D072901D26E
:10066000002300E0DB1E012606FA05F1491E2140A9
:1006700099409E40761E16403143F0BC00F002BC0B
:100680000CED00E0064900F0070208684FF6FF0392
:10069000184040EA0220034A1043086070470000F7
:1006A0000CED00E00000FA051549B0F5007F086880
:1006B000C0F3412009D0022805D0086820F4C060AA
:1006C00040F480600860002070470128FBD0086873
:1006D00020F4C06040F4007008600A480A4A0068CC
:1006E000B0FBF2F03222504300E0401E10B14A69E4
:1006F0005205FAD448694005E5D50320704700004B
:10070000007000400400002040420F0002480068D2
:1007100000F4C06070470000007000402DE9F04711
:100720000F46050058D03E4E306800F00700B84232
:1007300009D2306820F0070038433060306800F09C
:100740000700B84248D12878364CC0072CD06868DA
:10075000032811D0022812D0216898B14905002938
:100760003ADAA16821F003010143A160FFF7FCFE22
:10077000804641F2883910E021688901EFE721685D
:100780008903ECE78907EAE7FFF7EEFEA0EB080133
:10079000494502D90320BDE8F087A068696800F0E8
:1007A0000C00B0EB810FEFD12878800705D5A06849
:1007B000A96820F0F0000843A060306800F007004E
:1007C000B8420BD9306820F00700384330603068F9
:1007D00000F00700B84201D00120DCE7287840078C
:1007E00005D5A068E96820F4E0600843A060287897
:1007F000000706D5A068296920F4605040EAC100CE
:10080000A06000F01BF8A168074AC1F30311515C16
:10081000C840064908600020FFF7C0FE0020BAE784
:100820000020024000100240441000080400002094
:1008300001480068704700000400002030B52D49D1
:10084000002318468A682C4C12F00C0F4FEA6405FE
:1008500014D08A68C2F38102032A04D1CA6802F064
:100860000302012A0AD08A68C2F38102012A19D040
:100870008A68C2F38102022A16D016E00A681207BB
:1008800004D4D1F89420C2F3032202E00A68C2F330
:1008900003121A4B53F822308A6812F00C0F04D15D
:1008A000184602E0204600E028468A68C2F381022A
:1008B000032A1DD1C868CA6800F00300C2F30212FF
:1008C000521C022804D0032805D0B3FBF2F004E048
:1008D000B4FBF2F001E0B5FBF2F0CA68C968C2F3FC
:1008E00006225043C1F34161491C4900B0FBF1F0BD
:1008F00030BD0000001002400024F4005410000835
:100900002DE9F84304007DD02078FF4DC0065DD569
:10091000A86810F00C0F0AD0A0690028286873D0CE
:1009200040F001002860FFF71FFE064655E02868EA
:10093000800702D5A0690028E5D0216A2868000751
:1009400003D5286800F0F00004E0D5F89400F02208
:1009500002EA1010814216D9084600F0A5FA0028D4
:1009600050D1286840F0080028602868216A20F0EB
:10097000F000084328606868E16920F47F4040EA9D
:100980000120686015E0286840F0080028602868A9
:10099000216A20F0F000084328606868E16920F4CB
:1009A0007F4040EA01206860206A00F07DFA00285C
:1009B000D6D1FFF743FFA968D44AC1F30311515CB4
:1009C000C840D34908600020FFF7E8FD2CE000BFD5
:1009D000FFF7CAFD801B02287ED828688007F7D55C
:1009E000286840F0080028602868216A20F0F0009C
:1009F000084328606868E16920F47F4040EA0120EC
:100A0000686011E0B2E0FFE720F001002860FFF726
:100A1000ABFD064605E000BFFFF7A6FD801B0228E0
:100A2000DAD828688007F7D42078C00748D0A868AB
:100A3000C0F3810002281DD0A868C0F381000328FC
:100A400003D1E868C043800714D06068B0F5803FE8
:100A500017D0B0F5A02F286817D020F48030286078
:100A6000286820F4802028606068E0B1FFF77CFDF2
:100A7000064614E02868800322D56068002875D0F7
:100A80001EE0286840F48030EDE740F480202860C4
:100A9000F7E700BFFFF768FD801B64289CD8286833
:100AA0008003F7D50CE0FFF75FFD064605E000BFC9
:100AB000FFF75AFD801B64288ED828688003F7D47E
:100AC0002078800742D5A868C0F38100012816D09D
:100AD000A868C0F3810000E0A9E0032804D1E86819
:100AE00000F0030002280AD0E068002828681DD022
:100AF00040F480702860FFF737FD06460BE0286859
:100B000040050BD5E0680028B9D007E0FFF72CFDC1
:100B1000801B022884D828684005F7D56868217CA6
:100B200020F0F85040EA016068600FE020F4807027
:100B30002860FFF719FD064605E000BFFFF714FD2A
:100B4000801B022873D828684005F7D42078000756
:100B500029D560690028D5F8940013D040F0010031
:100B6000C5F89400FFF700FD064606E0FBE000BF75
:100B7000FFF7FAFC801B022859D8D5F894008007AB
:100B8000F6D510E020F00100C5F89400FFF7ECFC6A
:100B9000064604E0FFF7E8FC801B022847D8D5F89A
:100BA00094008007F6D42078400763D5A86D00260E
:100BB000C00008D4A86D40F08050A865A86D01263B
:100BC00000F08050009053480168C90511D40168B5
:100BD000804641F480710160FFF7C6FC074604E0DF
:100BE000FFF7C2FCC01B022821D8D8F80000C005BE
:100BF000F6D5A068012815D00528D5F8900017D0A3
:100C000020F00100C5F89000D5F8900020F0040015
:100C1000C5F89000A06841F28838C8B1FFF7A4FC7D
:100C2000074610E0D5F8900040F00100F0E777E0CB
:100C300040F00400C5F89000F4E700BFFFF794FC13
:100C4000C11B41456CD8D5F890008007F6D50CE063
:100C5000FFF78AFC074604E0FFF786FCC11B41450D
:100C600079D8D5F890008007F6D41EB1A86D20F091
:100C70008050A865A06AE0B3A968C1F38101032987
:100C800072D00228286820F08070286011D028686F
:100C9000000106D42868800003D4E86820F003002F
:100CA000E860E8681C490840E860FFF75DFC04461E
:100CB00054E0FFF759FC064605E000BFFFF754FC7F
:100CC000801B022847D828688001F7D4206BE16A8E
:100CD000000110380843616BA26B0902120941EA56
:100CE00042410843A18F0D4A490802EB4151084394
:100CF00000E036E094F840104908120102EB41612F
:100D00000843E86028680CE0001002404410000826
:100D10000400002000700040FFFFEEFE0000E0FF36
:100D200019E040F080702860E86840F08070E8606A
:100D3000FFF71AFC044604E0FFF716FC001B02282C
:100D400009D828688001F7D50BE000BFFFF70CFC3D
:100D5000001B022802D90320BDE8F883286880011F
:100D6000F4D40020F8E7FFE70120F5E74FF0E02199
:100D70000428086903D020F004000861704740F09F
:100D80000400FAE7704710B5401EB0F1807F01D330
:100D9000012010BD4FF0E02460610F21601700F0CA
:100DA00071F80020A06107202061002010BD10B55F
:100DB000FFF7E8FF10BDFEE710B511498AB00F48F4
:100DC00008600846FFF79DFA00B1FEE70024009492
:100DD0000194029403942246694609480494FFF75B
:100DE00003FA00B1FEE71022694605480394FFF7B5
:100DF000FBF9002800D0FEE70AB010BD00740040E7
:100E00000800002070B51B4886B0C16C41F0040199
:100E1000C164C16C01F004010591C16C41F0010194
:100E2000C164C16C01F001010591C16C41F0020186
:100E3000C164C06C104E00F002004FF48045059074
:100E4000002229463046FFF789FB00246810CDE9CF
:100E50000004694609480294FFF796FA01200095BC
:100E6000CDE90104694630460394FFF78DFA06B0D8
:100E700070BD000000100240000400480008004857
:100E8000FEE770470907090E002806DA00F00F0098
:100E900000F1E02080F8141D704700F1E02080F898
:100EA0000014704770470000F8B51C4D064600243A
:100EB000A86DC00002D5FFF729FC0DE0A86D40F039
:100EC0008050A865A86D00F080500090FFF71EFCD0
:100ED000A96D21F08051A965B0F5007F04D0802E66
:100EE00007D94FF003040AE0802E08D9A02E01D8BC
:100EF00004E001D1022402E0702E00D10124084850
:100F0000016821F0070121430160006800F007003B
:100F1000A04201D00120F8BD0020F8BD0010024021
:100F200000200240704710B5FFF724FBBDE81040D9
:100F3000FFF73DBF10B596B01020009000240120AF
:100F4000CDE90604602008900A946846FFF7D8FCB3
:100F500000B1FEE70F20CDE9110413941494002191
:100F600011A81594FFF7DAFB00B1FEE74FF400700B
:100F7000FFF79AFB00B1FEE7FFF75AFC4FF47A71D6
:100F8000B0FBF1F0FFF7FFFE0420FFF7EFFE0022B9
:100F90001146501EFFF756FB16B010BD0D480168F4
:100FA00041F4700101600C48016841F001010160E9
:100FB000002181600268094B1A4002608214C260FD
:100FC000026822F48022026081610249C0038039F4
:100FD0000860704788ED00E000100240FFFFF6EA6D
:100FE000FEE702E008C8121F08C1002AFAD17047C4
:100FF0007047002001E001C1121F002AFBD1704799
:10100000FFF7C0FAFFF796FFFFF7FCFEFFF7D4FEED
:1010100001220A4D940321462846FFF79FFA084F04
:10102000661031463846FFF794FA08B1012200E015
:10103000002221462846FFF791FAF2E70004004813
:101040000008004800000000000000000102030446
:1010500006070809A0860100400D0300801A06005B
:1010600000350C0040420F0080841E0000093D0046
:1010700000127A000024F40000366E010048E801F6
:10108000006CDC02A4100008000000200800000032
:10109000E20F0008AC10000808000020180400004F
:0C10A000F20F00080000000000093D00F5
:040000050800018965
:00000001FF
