:020000040800F2
:10000000204000209D010008831C00086F1B000891
:10001000811C00080F03000895250008000000005F
:10002000000000000000000000000000391F000870
:100030002903000800000000851C00083B1F000881
:10004000B7010008B7010008B7010008B7010008B0
:10005000B7010008B7010008B7010008B7010008A0
:10006000B7010008B7010008B7010008B701000890
:10007000B7010008B7010008110300081D030008BC
:10008000B7010008B7010008B7010008B701000870
:10009000B7010008B7010008B7010008B701000860
:1000A000B7010008B7010008B7010008B701000850
:1000B000F51F0008B7010008B7010008B7010008E4
:1000C000B7010008B7010008B7010008B701000830
:1000D000B701000889250008B7010008B70100082A
:1000E000B7010008B7010008B7010008B701000810
:1000F000B7010008B7010008B7010008B701000800
:10010000B7010008B7010008B7010008B7010008EF
:10011000B7010008B7010008B7010008B7010008DF
:10012000B7010008B7010008B7010008B7010008CF
:10013000B7010008B7010008B7010008B7010008BF
:10014000B7010008B7010008B7010008B7010008AF
:10015000B7010008B7010008B7010008B70100089F
:10016000B7010008B7010008B7010008B70100088F
:10017000B7010008B70100080000000000000000FF
:10018000B7010008B7010008DFF80CD000F07EF8D6
:1001900000480047D5250008204000200648804739
:1001A00006480047FEE7FEE7FEE7FEE7FEE7FEE75C
:1001B000FEE7FEE7FEE7FEE7B11F00088901000841
:1001C0002DE9F05F0546002092469B46884606468C
:1001D000814640241BE0284641464746224600F01F
:1001E00044F853465A46C01A914110D31146184656
:1001F000224600F02BF82D1A67EB01084F462246E5
:100200000120002100F022F817EB00094E41201ECA
:10021000A4F10104DFDC484631462A46434600F09B
:1002200000B830BCBDE8C09FD2B201E000F8012B9D
:10023000491EFBD270470022F6E710B513460A4666
:1002400004461946FFF7F0FF204610BD202A04DBC4
:10025000203A00FA02F1002070479140C2F12003D9
:1002600020FA03F3194390407047202A04DB203A18
:1002700021FA02F00021704721FA02F3D040C2F1C6
:10028000200291400843194670470000064C074D74
:1002900006E0E06840F0010394E807009847103456
:1002A000AC42F6D3FFF774FF6027000880270008F0
:1002B00070B58D1810F8014B14F0030201D110F83D
:1002C000012B231106D110F8013B03E010F8016B5C
:1002D00001F8016B521EF9D1ABB110F8012B04F0FB
:1002E0000C048A1A0C2C03D0A2EB84129B1C08E08D
:1002F00010F8014BA2EB0422F8E712F8014B01F8C9
:10030000014B5B1EF9D5A942D4D3002070BDFEE796
:10031000014800F03BB90000D43B0020014800F048
:1003200035B900008C3B0020704770472DE9F0473D
:100330000446407900270E4601280BD04FF00109F2
:1003400084F8059002202071306802F0100504281E
:1003500003D043E00220BDE8F0874FF0030802BB62
:1003600000F0D4FA074604E000F0D0FAC01B0128E0
:100370000FD82068406B0004F6D4012000F0C4F9C7
:100380002168B069086416E000F0C0FAC01B0128BB
:1003900007D9206940F00800206184F80480032018
:1003A000D9E72068406B0028EEDB012000F0ACF9B3
:1003B0002168B06948642068816C40F2FF32AA402D
:1003C0009143F269AA40114381642068C16CFF2205
:1003D000AA409143326AAA401143C164306901289E
:1003E00008D12268916B1F20A84081437069A84002
:1003F000084390632268D16B0720A8408143B3680B
:1004000030681843F3681843A8400843D063206855
:1004100001684FF48042AA4091430160226811684C
:1004200040F6FC70A84081437068A8400843106003
:1004300020680168C022AA409143016084F80490BA
:100440000020607187E770B5040003D02079002593
:1004500010B105E0012070BD6571204600F008F87C
:1004600002202071256101202071002070BD000054
:1004700010B586B0044614216846FFF7DCFE11492A
:10048000206888421BD11048816D41F00051816580
:10049000816D01F000510591C16C41F00101C16411
:1004A000C06C694600F001000590302000900320E8
:1004B0000190002002904FF0904000F037F906B014
:1004C00010BD0000007400400010024018B5046820
:1004D00000940068104421B11430009003600020A3
:1004E00018BD0830F9E770B54279012A14D001220D
:1004F00042710223037103681D6801F0100602FABD
:1005000006F425431D60002901680B6806D0C3F37B
:100510008343012B0AD00DE0022070BDC3F3830397
:10052000012B07D14B6843F0010302E04B6843F015
:1005300002034B60027100214171084670BD10B585
:1005400090F825100024022903D00421C16301245E
:100550001AE001680A6822F00E020A6001680A685F
:1005600022F001020A6090F84410036C01F01C02B2
:10057000012101FA02F25A6080F82510002180F86A
:100580002410816B01B18847204610BDF0B4016C86
:100590000C6801680D6890F8442002F01C060422E3
:1005A00002FA06F3234211D06B070FD50B689B06A6
:1005B00003D40B6823F004030B6090F8441001F09F
:1005C0001C018A40016C4A60016B1DE0022303FAA2
:1005D00006F727424FF0000C4FF0010218D0AF078A
:1005E00016D50C68A40605D40C6824F00A040C6027
:1005F00080F8252090F8441001F01C018B40016C1C
:100600004B6080F824C0C16A00291AD0F0BC0847AA
:100610000823B340234214D02B0712D50B6823F0D4
:100620000E030B6090F84410036C01F01C0102FAF9
:1006300001F15960C26380F8252080F824C0416B25
:10064000E2E7F0BC7047000070B568B12B4C03685E
:1006500014212B4AA34209D22A4C1C44B4FBF1F1C9
:100660008900C0E910210BE0012070BD234C6442D9
:100670001C44B4FBF1F1890041642049083901644C
:10068000022180F825101C6847F6F0718C43D0E9F0
:1006900002152943D0E90456354329438569294386
:1006A000C5692943056A2943214319608168B1F569
:1006B000804F19D0036C0F21934202D152F8A83F0A
:1006C00002E00E4AA032136890F8444004F01C0483
:1006D000A1408B43136090F84430416803F01C0341
:1006E00099401368194311600021C163012280F809
:1006F000252080F82410084670BD00000804024040
:1007000000000240F8FFFDBF70B5044600F0FEF89F
:100710000546601C02D004484068044400F0F6F826
:10072000401BA042FAD370BDA83A00202DE9F84F33
:10073000DFF898B100234FF0010C4FF0030A4FF09F
:100740000F090BF1040EB9E00CFA03F4224070D04B
:100750004D68022D01D0122D0ED1DD0800EB850869
:10076000D8F820505E07F70E09FA07F6B5430E6970
:10077000BE402E43C8F8206007685E0091F80480F0
:100780000AFA06F508F00308AF4308FA06F848EA43
:100790000708C0F800804F68012F05D0022F03D052
:1007A000112F01D0122F13D1D0F80880CF6828EA7A
:1007B0000508B74047EA08078760D0F804800F793A
:1007C00028EA0408C7F300179F4047EA0807476074
:1007D000D1F804806FEA0807BF0706D1C76AA743AC
:1007E000C8F3C0049C403C43C462C468AC438D68F9
:1007F000B5402543C5604C68E4005ED5344C256E99
:1008000045F001052566246E23F0030504F001047C
:100810000094304C2E19B4689D072F0F09FA07F584
:10082000AC43B0F1904F05D02B4DA84204D1012527
:100830001CE042E0002519E0284DA84201D1022524
:1008400014E0274DA84201D103250FE0254DA84211
:1008500001D104250AE0244DA84201D1052505E077
:10086000224DA84201D1062500E00725BD402543C1
:10087000B560DBF800405D464E689443F60300D552
:1008800014432C60DEF8004075464E689443B6036E
:1008900000D514432C600D4D08352C684E689443E8
:1008A000F60200D514432C60084D0C352C684E68B8
:1008B0009443B60200D514432C605B1C0A6832FADC
:1008C00003F57FF441AF00F013B8000000040140CD
:1008D00000100240000001400004004800080048E9
:1008E000000C0048001000480014004800180048A0
:1008F00018BCBDE8E08F0069084000D001207047B7
:100900000AB18161704781627047000001488068C8
:1009100070470000A83A00200248816842681144EC
:1009200081607047A83A002010B50024032000F031
:1009300071F8002000F008F808B1012401E000F08F
:1009400025F8204610BD000070B50E4E0546002467
:10095000706898B14FF47A71B1FBF0F00A490968F8
:10096000B1FBF0F000F0F2FD40B9102D06D20022EC
:100970002946501E00F02EF8356000E00124204684
:1009800070BD0000A83A0020B43A0020094808B51C
:10099000016E41F001010166016E01F0010100915B
:1009A000816D41F080518165806D00F08050009034
:1009B00008BD000000100240002809DB00F01F0203
:1009C000012191404009800000F1E020C0F80011B1
:1009D00070470000F0B40E4B1B680C46C3F30223B3
:1009E000C3F10705042D00D90425191D072901D2DB
:1009F000002300E0DB1E012606FA05F1491E214016
:100A000099409E40761E16403143F0BC01F0C3BDB4
:100A10000CED00E0064900F0070208684FF6FF03FE
:100A2000184040EA0220034A104308607047000063
:100A30000CED00E00000FA051649B0F5007F0868EB
:100A4000C0F3412009D0022805D0086820F4C06016
:100A500040F480600860002070470128FBD00868DF
:100A600020F4C06040F4007008600B483222006837
:100A700050430A4AB0FBF2F0401C00E0401E4A69B5
:100A8000520501D50028F9D148694005E3D5032076
:100A90007047000000700040B43A002040420F0050
:100AA0000248006800F4C060704700000070004019
:100AB0002DE9F84F044600270088E54D3E46010524
:100AC00004F1200B1DD5606E78B1B0F5800F11D008
:100AD000B0F5000F04D0B0F5400F22D001270FE091
:100AE000E86840F48030E8601BE00021201D01F040
:100AF000CBF803E00021584601F05CF9070010D064
:100B00003E462088C00426D5A06EC0B1B0F1807FDB
:100B10001AD0B0F1007F0DD0B0F1407F19D001277D
:100B200018E0D5F88800616E20F440000843C5F84D
:100B30008800E6E7E86840F48030E86009E00021DA
:100B4000201D01F0A1F803E00021584601F032F920
:100B50000746F7B13E46206880033AD5A86D4FF0AE
:100B60000008C00009D4A86D40F08050A865A86DA9
:100B70004FF0010800F080500090DFF8D8A2DAF8BA
:100B8000001041F48071CAF80010FFF7BFFE8146E3
:100B900010E0D5F88800A16E20F040700843C5F839
:100BA0008800D8E7FFF7B2FEA0EB0900022801D9C0
:100BB000032705E0DAF80000C005F3D5002F7CD04C
:100BC0004FEA0706B8F1000F03D0A86D20F080505F
:100BD000A8652078C00707D0D5F88800A16B20F061
:100BE00003000843C5F888002078800707D5D5F8AA
:100BF0008800E16B20F00C000843C5F888002078DD
:100C0000400707D5D5F88800216C20F03000084354
:100C1000C5F888002078000707D5D5F88800616CF2
:100C200020F0C0000843C5F888002078C00607D52A
:100C3000D5F88800A16C20F440700843C5F88800FE
:100C40002078800607D5D5F88800E16C20F4406054
:100C50000843C5F888002088800507D5D5F88800A6
:100C6000E16D20F440200843C5F888002088400545
:100C700007D5D5F88800216E20F440100843C5F848
:100C800088002078400607D5D5F88800216D20F42B
:100C900040500843C5F888002078000607D5D5F8ED
:100CA0008800616D20F440400843C5F88800208822
:100CB000C00509D5D5F8880000E01CE0A16D20F43E
:100CC00040300843C5F8880020884FF00067800452
:100CD0004FF080684FD5D5F88800E16E20F0406075
:100CE0000843C5F88800E06EB8423CD1E86840F49B
:100CF0008010E8603FE0D5F8900010F4407015D007
:100D0000D4F88410814211D0D5F89000D5F8901015
:100D100020F4407041F48031C5F89010D5F890105F
:100D200021F48031C5F89010C5F89000C00710D0AC
:100D3000FFF7ECFD074641F2883906E0FFF7E6FDD4
:100D4000C11B494501D903263CE7D5F8900080072F
:100D5000F4D5D5F89000D4F8841020F440700843FE
:100D6000C5F890002EE7404505D10121201D00F077
:100D70008BFF00B106462068000317D5D5F8880020
:100D8000216F20F040600843C5F88800206FB8420A
:100D900004D1E86840F48010E86007E0404505D1E0
:100DA0000121201D00F070FF00B1064620684003BD
:100DB00017D5D5F88800616F20F040600843C5F86A
:100DC0008800606FB84204D1E86840F48010E860A1
:100DD00007E0404505D10121201D00F055FF00B17D
:100DE0000646208840041AD5D5F88800A16F20F067
:100DF00040500843C5F88800A06FB0F1805F03D071
:100E0000B0F1005F05D00AE00221201D00F03CFF98
:100E100003E00221584600F0CDFF00B106462088CD
:100E2000000407D5D5F88800E16F20F08040084322
:100E3000C5F888002068C00307D555F8880FD4F896
:100E4000801020F0004008432860304600F004B8CD
:100E5000001002400070004018BCBDE8E08F0000A8
:100E60002DE9F0470F46050058D0404E306800F09D
:100E70000700B84209D2306820F0070038433060DC
:100E8000306800F00700B84248D12878384CC007D5
:100E90002CD06868032811D0022812D0216898B19C
:100EA000490500293ADAA16821F003010143A16054
:100EB000FFF72CFD804641F2883910E02168890156
:100EC000EFE721688903ECE78907EAE7FFF71EFDF2
:100ED000A0EB0801494502D90320BDE8F087A068CE
:100EE000696800F00C00B0EB810FEFD12878800723
:100EF00005D5A068A96820F0F0000843A06030681C
:100F000000F00700B8420BD9306820F007003843E2
:100F10003060306800F00700B84201D00120DCE703
:100F20002878400705D5A068E96820F4E060084308
:100F3000A0602878000706D5A068296920F46050D1
:100F400040EAC100A06000F03FF8A168094AC1F37F
:100F50000311515C01F01F01C840074908600748B0
:100F60000068BDE8F047FFF7EFBC0000002002403A
:100F70000010024018270008B43A0020A83A0020C8
:100F80000548064900688968054AC1F30221515C99
:100F900001F01F01C8407047B43A00200010024021
:100FA000582700080548064900688968054AC1F3C2
:100FB000C221515C01F01F01C8407047B43A0020C3
:100FC000001002405827000870B525490023184634
:100FD0008A68CC6812F00C0204F00306214C4FEA38
:100FE000640509D00C2A05D0042A32D0082A00D181
:100FF000284670BD012E10D10B681B0704D4D1F810
:101000009430C3F3032302E00B68C3F30313164EBB
:1010100056F82330DAB10C2AEBD1C86800F003008F
:10102000022818D0032818D01846CA68CB68C2F323
:101030000212C3F306234343521CB3FBF2F2C86807
:10104000C0F34160401C4000B2FBF0F070BD184698
:1010500070BD204670BD2046E7E72846E5E7000062
:10106000001002400024F400282700082DE9F8436E
:1010700004006ED0FD4DA86800F00C06E86800F092
:1010800003072078C00663D576B10C2E01D1012F5D
:101090000AD0A0690028286878D040F001002860B4
:1010A000FFF734FC80465BE02868800702D5A06922
:1010B0000028DED0216A2868000703D5286800F0E0
:1010C000F00004E0D5F89400F02202EA101081420A
:1010D00016D9084600F0F2FE00283AD1286840F000
:1010E000080028602868216A20F0F0000843286082
:1010F0006868E16920F47F4040EA0120686015E0FB
:10110000286840F0080028602868216A20F0F00074
:10111000084328606868E16920F47F4040EA0120C4
:101120006860206A00F0CAFE0028D6D1FFF74CFFA5
:10113000A968CF4AC1F30311515C01F01F01C840F7
:10114000CC490860CC480068FFF7FEFB00287DD141
:101150002DE0C9E0FFF7DAFBA0EB0800022876D803
:1011600028688007F6D5286840F0080028602868BD
:10117000216A20F0F000084328606868E16920F4E3
:101180007F4040EA0120686011E0FFE720F00100A5
:101190002860FFF7BBFB804606E000BFFFF7B6FB09
:1011A000A0EB08000228DAD828688007F6D4207857
:1011B000C00740D0082E18D00C2E01D1032F14D018
:1011C0006068B0F5803F17D0B0F5A02F286817D021
:1011D00020F480302860286820F48020286060682F
:1011E000E0B1FFF793FB804614E02868800322D526
:1011F0006068002878D01EE0286840F48030EDE771
:1012000040F480202860F7E7FFF780FBA0EB0800A0
:101210006428A4D828688003F6D50CE0FFF776FB95
:10122000804605E0FFF772FBA0EB0800642896D823
:1012300028688003F6D4207880073BD5042E11D08F
:101240000C2E01D1022F0DD0E06801E03EE19FE0BD
:10125000002828681ED040F480702860FFF756FBF5
:1012600007460CE0286840050CD5E0680028C1D08E
:1012700008E000BFFFF74AFBC01B022893D828688C
:101280004005F7D56868217C20F0F85040EA0160FD
:1012900068600FE020F480702860FFF737FB074696
:1012A00005E000BFFFF732FBC01B022870D828689A
:1012B0004005F7D42078000729D560690028D5F8C3
:1012C000940012D040F00100C5F89400FFF71EFB17
:1012D000074604E0FFF71AFBC01B022858D8D5F8D0
:1012E00094008007F6D512E029E120F00100C5F84E
:1012F0009400FFF70BFB074605E000BFFFF706FB76
:10130000C01B022844D8D5F894008007F6D4207872
:10131000400768D5A86D0027C00008D4A86D40F02C
:101320008050A865A86D012700F0805000905348B8
:101330000168C90512D40168814641F480710160D9
:10134000FFF7E4FA804605E0FFF7E0FAA0EB0800BB
:1013500002281DD8D9F80000C005F5D5A0680128DD
:1013600017D00528D5F8900018D020F00100C5F856
:101370009000D5F8900020F0040000BFC5F8900060
:10138000A06841F28839D0B1FFF7C0FA804611E079
:101390006BE0D5F8900040F00100EFE740F004006A
:1013A000C5F89000F5E700BFFFF7B0FAA0EB080121
:1013B00049455AD8D5F890008007F5D50EE0FFF7DB
:1013C000A5FA804606E000BFFFF7A0FAA0EB0801EF
:1013D00049457AD8D5F890008007F5D41FB1A86D9B
:1013E00020F08050A865A06AF0B30C2E75D00228BA
:1013F000286820F08070286004D0286810F0205FF2
:1014000051D054E0FFF782FA064604E0FFF77EFA77
:10141000801B022859D828688001F7D4D4E90B0131
:101420006FF00F0202EB01110843A18F520449082B
:1014300002EB4151626B41EA0221084394F84010EB
:101440004FF07E42490802EB41610843A16B090954
:1014500040EA4140E9680A4A11400843E8602868C8
:1014600040F0807028600DE06BE02EE0001002403C
:1014700018270008B43A0020A83A00200070004065
:101480008C809DF9E86840F08070E860FFF73EFAD4
:10149000044604E0FFF73AFA001B022815D8286832
:1014A0008001F7D54DE0E86820F00300E860E868C7
:1014B00025490840E860FFF729FA044609E000BF23
:1014C000FFF724FA001B022803D90320BDE8F883A4
:1014D00003E028688001F3D433E00128F6D0E868FF
:1014E000E26A00F00301914229D1216B00F0700201
:1014F00009011039914222D1626B00F4FE41B1EB37
:10150000022F1CD1A26B00F40031072A01D0012266
:1015100000E00022914212D1A18F00F4C0024908DC
:101520004905A1F50011914209D194F8401000F04D
:10153000C06049084906A1F10071814201D0012033
:10154000C4E70020C2E70000FFFFEEFE10B5401E1A
:10155000B0F1807F01D3012010BD4FF0E024606125
:101560000F21601701F017F80020A061072020610B
:10157000002010BD704770477047000070B590F8AC
:101580003C20012A24D0012480F83C40022280F82B
:101590003D200268536895680E4EB24202D00E4E4E
:1015A000B24203D123F470064B68334323F0700634
:1015B0000B688968334325F080052943536002682E
:1015C000916080F83D40002180F83C10084670BDD5
:1015D000022070BD002C01400034014010B5040011
:1015E00003D094F83D0010B107E0012010BD0020A9
:1015F00084F83C00204600F00DF8022084F83D00FD
:10160000211D206800F002FD012084F83D0000202B
:1016100010BD000008B50068B0F1804F12D10A4833
:10162000816D41F001018165806D002200F00100B3
:10163000009011461C20FFF7CDF9BDE808401C20A2
:10164000FFF7BAB908BD0000001002400168CA687F
:1016500042F00102CA6001688868064A1040062804
:1016600006D0B0F5803F03D0086840F00100086064
:10167000002070470700010070B5044690F83C0058
:10168000012817D0012584F83C50022084F83D0041
:10169000226890682E4B184020F47F4090600868C4
:1016A000502830D00DDC20284DD005DC98B3102810
:1016B0003BD148E0022070BD302844D0402834D1CE
:1016C00039E0602828D0702806D0B0F5805F2CD093
:1016D000B0F5005F29D10AE0CB68D1E9012120688B
:1016E00000F0F4FC2068816841F0770109E0CB68E4
:1016F000D1E90121206800F0E9FC2068816841F40B
:101700008041816011E0CA684968206800F0F0FCFF
:101710005021206807E016E0CA684968206800F098
:10172000F8FC6021206800F0DBFC84F83D500020CC
:1017300084F83C0070BDCA684968206800F0D8FC95
:1017400040212068EFE7226801461046EBE70000E1
:1017500088FFFEFF704770B50446006801694FF0CE
:101760000005C943890715D4C168C943890711D445
:10177000E91E0161012020772068806980072046EA
:1017800002D0FFF7E7FF04E000F0A7F8204600F0E2
:10179000A5F8257720680169C943490717D4C168AE
:1017A000C943490713D46FF0040101610220207777
:1017B0002068806910F4407F204602D0FFF7CAFFFE
:1017C00004E000F08AF8204600F088F825772068C9
:1017D0000169C943090716D4C168C943090712D46E
:1017E0006FF008010161042020772068C06980073C
:1017F000204602D0FFF7AEFF04E000F06EF820466E
:1018000000F06CF8257720680169C943C90617D430
:10181000C168C943C90613D46FF0100101610820E3
:1018200020772068C06910F4407F204602D0FFF77F
:1018300091FF04E000F051F8204600F04FF82577C2
:1018400020680169C943C90708D1C168C943C907EC
:1018500004D1891E0161204600F041F82068016929
:10186000C943090609D4C168C943090605D46FF004
:10187000800101612046FFF77EFE20680169C943AF
:10188000C90509D4C168C943090605D46FF480713C
:1018900001612046FFF76EFE20680169C9434906D1
:1018A00009D4C168C943490605D46FF040010161FC
:1018B000204600F015F820680169C94389060BD459
:1018C000C168C943890607D46FF020010161204631
:1018D000BDE87040FFF750BE70BD7047704770475D
:1018E00070477047704700002DE9F04102680446D8
:1018F000D0691168936810F00F0F4FF000055BD0AE
:1019000003F0010601F49077374369D0C70707D089
:10191000CF0505D501271762E26F42F00102E267A9
:10192000820708D5DA0706D0276802223A62E26FFA
:1019300042F00402E267420708D5DA0706D02368BE
:1019400004221A62E26F42F00202E26702070AD53D
:1019500001F02002324306D0236808221A62E26FA7
:1019600042F00802E267E26F002A32D0800605D515
:10197000880603D5216E09B120468847E06F2168AB
:101980008968490601D4000725D5204600F06DFC82
:1019900020688168490619D5816821F0400181607D
:1019A000E06E98B120498163E06EFEF7C8FD002823
:1019B0000FD0E06E816B06E0860611D58E060FD53E
:1019C000216E1EE02046BDE8F04108472046FFF7A3
:1019D00089FFBDE8F0812046FFF784FFE567F8E75F
:1019E000C60209D55B0207D54FF48010106220466D
:1019F000BDE8F041FFF775BF030605D50B0603D51B
:101A0000616E0029DED1E4E74006E2D54806E0D564
:101A10001168204621F04001116020216167656650
:101A200000F0A4F8D5E700005722000810B5040024
:101A300002D0606F10B107E0012010BD002084F8D3
:101A40007000204600F026F82420606720680168B6
:101A500021F001010160204600F016FC0128ECD0C5
:101A6000606A10B1204600F066FB2068416821F4EE
:101A7000904141602068816821F02A0181602068DE
:101A8000016841F0010101602046BDE8104000F00E
:101A9000B6BB00002DE9F04186B006461421684629
:101AA000FEF7C9FB2B493068884250D12A48016EA5
:101AB00041F480410166016E01F480410591C16CE1
:101AC00041F00201C164C06C4FF0020800F0020056
:101AD0000590C020CDE9000800240320CDE9024094
:101AE00007200490474669461C48FEF71FFE1D4D1F
:101AF0001B482860C5E901748027C5E903476C616C
:101B0000AC61EC6128462C62FEF79EFD08B1FEF741
:101B10000CFCF566AE621248134D1438E5E8020875
:101B2000102091C5104845F81449AC61EC612C6255
:101B3000FEF78AFD08B1FEF7F8FBB56600221146F4
:101B40002520AE62FEF746FF2520FEF735FF06B0E2
:101B5000BDE8F08100380140001002400004004858
:101B6000580002408C3B0020D43B00207047FEE729
:101B700070B586B014216846FEF75DFB1A48C16C4B
:101B800041F00401C164C16C01F004010591C16C14
:101B900041F00101C164C16C01F001010591C16C0A
:101BA00041F00201C164C06C104E00F002004FF41D
:101BB00080450590002229463046FEF7A1FE00240C
:101BC0006810CDE90004694609480294FEF7AEFDAD
:101BD00001200095CDE90104694630460394FEF7E3
:101BE000A5FD06B070BD00000010024000040048D2
:101BF0000008004810B588B00024154800940194EE
:101C000002940394049405944FF080410694C0E933
:101C1000001442F21071C0E9024104618461FFF7CF
:101C2000DDFC4FF48050009069460948FFF724FD21
:101C3000049404A906480694FFF7A0FC002211466C
:101C40001C20FEF7C7FE1C20FEF7B6FE08B010BD34
:101C5000CC3A00200948084901604FF4E131416065
:101C6000002181600C22C160C0E904128161C16160
:101C700001624162FFF7DABE003801400C3B0020F0
:101C8000FEE77047704700002DE9F041444C0546DF
:101C90008846E0680026810728680DD0E16801F0D9
:101CA0000301814216D1A8B1E0686968C0F302104F
:101CB000401C88420ED120E0012804D0022805D023
:101CC000032807D108E02168890701E02168490558
:101CD000002907DB01265FE02168890302D421681F
:101CE0004903F5E7E1686A686FF00F0321F07301BB
:101CF00003EB021211430143E160206820F0806091
:101D00002060FEF703FE074605E000BFFEF7FEFD7C
:101D1000C01B022837D820680001F7D4B8F1000FA3
:101D200018D0B8F1010F1ED0287D4FF07E41400839
:101D300001EB4060A96840EA01202169194A11407D
:101D400008432061206840F080602060FEF7DEFDDF
:101D500007461AE0A868E9680002090940EA41401C
:101D60002169114AEBE7288A1049400801EB4050ED
:101D7000A96840EA012021690D4AE0E7FEF7C6FDA7
:101D8000C01B022801D9032606E020680001F5D512
:101D90002069A969084320613046BDE8F081000050
:101DA00000100240FF80FFF9FF80FDFF0000E0FF10
:101DB000FF809FFF2DE9F0413D4C06468846E068D4
:101DC0000025810730680DD0E16801F003018142F0
:101DD00016D1A8B1E0687168C0F30210401C8842B7
:101DE0000ED120E0012804D0022805D0032807D115
:101DF00008E02168890701E021684905002907DB1F
:101E0000012551E02168890302D421684903F5E7DF
:101E1000E16872686FF00F0321F0730103EB0212A7
:101E200011430143E160206820F080502060FEF7FC
:101E30006DFD074605E000BFFEF768FDC01B0228E8
:101E400029D820688000F7D4B8F1000F15D0307C75
:101E50004FF07E41400801EB4060B16840EA01204C
:101E60006169144A114008436061206840F0805065
:101E70002060FEF74BFD07460FE0B068F1680002F6
:101E8000090940EA414061690B4AEBE7FEF73EFD74
:101E9000C01B022801D9032506E020688000F5D583
:101EA00060697169084360612846BDE8F0810000FF
:101EB00000100240FF80FFF9FF80FDFFF8B51C4DC8
:101EC00006460024A86DC00002D5FEF7E9FD0DE02E
:101ED000A86D40F08050A865A86D00F0805000907B
:101EE000FEF7DEFDA96D21F08051A965B0F5007FF8
:101EF00004D0802E07D94FF003040AE0802E08D9C1
:101F0000A02E01D804E001D1022402E0702E00D1FD
:101F100001240848016821F007012143016000689D
:101F200000F00700A04201D00120F8BD0020F8BD5C
:101F300000100240002002407047FEF7EDBC30B5B3
:101F4000B9B0442122A8FEF776F9142133A8FEF790
:101F500072F988216846FEF76EF91020012522905B
:101F6000002428956020CDE9294002202821CDE9D0
:101F70002C05CDE92E510721CDE93010329022A851
:101F8000FFF774F80F2033900320CDE93404369422
:101F9000042133A83794FEF763FF684600950E943A
:101FA000FEF786FD6802FEF747FD39B030BD000040
:101FB0000D48016841F4700101600C48016841F06E
:101FC00001010160002181600268094B1A40026032
:101FD0008214C260026822F4802202608161024998
:101FE000C00380390860704788ED00E000100240AF
:101FF000FFFFF6EA10B50348FFF7ADFB02490120E9
:10200000086010BDCC3A0020080000202DE9F04700
:102010000268264B264D274E274F284C4FF0804A0A
:10202000984209D0504507D0A84205D0B04203D00D
:10203000B84201D0A04204D122F0700C4A6842EAB2
:102040000C02DFF87CC0DFF87C80DFF87C909842DF
:102050000FD050450DD0A8420BD0B04209D0B842A5
:1020600007D0A04205D0604503D0404501D0484587
:1020700003D122F44075CA682A434D6922F08002D8
:102080002A4302608A68C2620A688262984207D064
:10209000A04205D0604503D0404501D0484501D15C
:1020A0000969016301214161BDE8F087002C01400D
:1020B0000004004000080040000C004000340140D3
:1020C00000400140004401400048014010B58468D0
:1020D00042EA032224F47F440A432243826010BD73
:1020E000826822F070020A4342F007018160704763
:1020F00010B5036A046A24F001040462846924F0C0
:10210000F00444EA021423F00A020A4384610262E2
:1021100010BD10B5036A23F0100303628369046ADB
:1021200023F4704343EA023224F0A00343EA01118E
:102130008261016210BD90F82410C90706D00168C1
:102140004A68836A22F400321A434A6090F82410E5
:10215000890706D501684A68C36A22F480321A43A7
:102160004A6090F82410490706D501684A68036B55
:1021700022F480221A434A6090F82410090706D5F9
:1021800001684A68436B22F400421A434A6090F89F
:102190002410C90606D501688A68836B22F4805230
:1021A0001A438A6090F82410890606D501688A6867
:1021B000C36B22F400521A438A6090F82410490637
:1021C00011D501684A68036C22F480121A434A60F0
:1021D000016CB1F5801F06D101684A68436C22F496
:1021E000C0021A434A6090F82410090606D5016817
:1021F0004A68806C22F4002202434A607047F8B5B6
:1022000000260446C667FEF781FB05462068006885
:102210006FF07E47000708D52B4600224FF40011CF
:102220002046009700F080F960B9206800684007F8
:102230000AD52B4600224FF480012046009700F07B
:1022400073F908B10320F8BD20206067A06784F807
:1022500070600020F8BD10B5806A0021A0F85A1007
:10226000A0F85210FFF73EFB10BD01680A6822F487
:1022700090720A6001688A6822F001028A60202157
:1022800081670021016670472DE9F041054601682C
:1022900080682B69EC6918436B6900272343184356
:1022A000954A0B68954C234003430B6028684168AE
:1022B000EB6821F44051194341602968A8699142B3
:1022C00001D02B6A18438B6823F4306303438B607F
:1022D0008B4B29688B4899420DD1D0F8880010F0BB
:1022E000030006D0012868D0022864D0032851D109
:1022F00065E001244FE0844B99420BD1D0F888006F
:1023000010F00C0055D0042857D0082853D00C28C2
:1023100040D154E07D4B99420BD1D0F8880010F0A9
:10232000300046D0102848D0202844D0302831D161
:1023300045E0774B99420BD1D0F8880010F0C000EF
:1023400037D0402839D0802835D0C02822D136E077
:10235000704B99420ED1D0F8880010F4407028D00C
:10236000B0F5807F29D0B0F5007F24D0B0F5407F54
:1023700010D124E091420DD1D0F8880010F44060D3
:1023800017D0B0F5806F18D0B0F5006F13D0B0F54E
:10239000406F14D01024604B00264FF4004091424F
:1023A00045D174B1022C0FD0042C0FD0082C18D1B9
:1023B0000FE00024EFE70224EDE70424EBE7082414
:1023C000E9E7FEF7DDFD03E0184602E0FEF7FCFD5D
:1023D000A8B36A6802EB4201814202D8B0EB023F27
:1023E00001D9012775E0DFF834815CB1022C0CD0F3
:1023F000042C13D0082CF4D150082105401846F1C4
:10240000000105E0FEF7BCFD0AE050084449F5E78D
:102410000023FDF7D5FEA0F5407156E0FEF7D4FD90
:102420006A68010E0302500818187141F0E7E96963
:102430004FF6EF7881422FD1092CD2D200E048E04C
:10244000DFE804F006092005230505052600C8E796
:10245000FEF796FD01E0FEF7A5FD4100D5F804006A
:1024600001EB5001B1FBF0F080B2A0F11001414549
:10247000B7D84FF6F0710140C0F34200014328681D
:10248000C16026E027496868EAE7FEF79DFDE4E7BA
:102490004FF480316868E3E7092CA2D2DFE804F04A
:1024A00006091E052205050525009AE7FEF768FDC9
:1024B00001E0FEF777FD0146686801EB500100BFBF
:1024C000B1FBF0F080B2A0F11001414589D8296834
:1024D000C8602E6638466E66BDE8F081686803EB1A
:1024E0005001EDE7FEF770FDE5E7696800EB51008C
:1024F000B0FBF1F0E6E7000000800040F369FFEF79
:1025000000380140001002400044004000480040F4
:10251000004C0040005000400024F400FFFC0F007D
:10252000000024F40048E8012DE9F04198461746E0
:102530000E460446069D08E0681C06D0FEF7E6F944
:10254000A0EB0800A8420BD855B12068C06936EA54
:10255000000017D00020B842EED00020BDE8F08186
:102560002068016821F4D07101602068816821F041
:102570000101816020206067A067002084F870005E
:102580000320EBE70120E6E70148FFF7ADB90000C3
:102590000C3B0020FEE70907090E002804DB00F1D0
:1025A000E02080F80014704700F00F0000F1E020F8
:1025B00080F8141D704702E008C8121F08C1002AE5
:1025C000FAD170477047002001E001C1121F002AB4
:1025D000FBD170478AB0FEF7A7F9FFF7B0FCFFF711
:1025E000C7FA4748816C41F001018164806C002288
:1025F00000F00100009011460E20FEF7EBF90E20CE
:10260000FEF7DAF9002211460F20FEF7E3F90F205A
:10261000FEF7D2F924216846FDF70DFE3A49394804
:1026200008600846FDF70FFF00250095019502950B
:1026300003952A46694634480495FDF777FE102233
:10264000694631480395FDF771FEFFF703FBFFF77D
:10265000D1FA00212C48FDF746FF10212A48FDF74A
:1026600042FF29481430FEF7F1FFDFF8A0A0DFF8A1
:10267000A080284C4FF400594FF4804749465046FB
:10268000FEF739F920BB0120206001223946464679
:102690004046FEF735F9A068012819D1A5606068A9
:1026A000A0F5E8514D3917D01A4E00220C361146CC
:1026B00036F810301448FDF709FF60680022102139
:1026C00036F810301048FDF701FF6068401C60606C
:1026D00020680028D2D0D8E7002239463046FEF7DD
:1026E0000FF9002365601A46194607482560FDF773
:1026F000EDFE00231A4610210348FDF7E7FEE7E749
:102700000010024000740040B83A00200008004861
:10271000000400480000002000000000000000004D
:102720000102030406070809A0860100400D03000A
:10273000801A060000350C0040420F0080841E0005
:1027400000093D0000127A000024F40000366E01FA
:102750000048E801006CDC020000000001020304F4
:102760008027000800000020B83A0000B0020008EE
:1027700020420008B83A002068050000C62500087D
:10278000A2000102FF020201FF0201FF0201E302B7
:10279000100408020C0210140002F401F001E80118
:1027A000D801CC01C801C001B801A8021010AC01C9
:1027B000A00188017C016C0164015801841010049F
:1027C000C801B41C300EE0010002200228025C02A5
:1027D0006C027406100C84028002640238022C021F
:1027E000144C1004E001DC2412D02C12AC4C12D09A
:1027F000021004D401E43410080002100224023C48
:10280000281008340244025002540A10063C0240C8
:10281000024838122452100618020402EC2A2186BB
:1028200012B0823006A4019001787E10085401385D
:10283000013001348A128C5421561006E401FC0147
:102840002C46100688028C029880100A94029C0282
:1028500090027C024C862146217612C8C210049C4C
:102860000198CA3004B401BC8412F80210040C02AE
:102870001C8012407812507A12480832540A1230E2
:102880009C12248410080802FC010402F8B436C02B
:102890000A12A074100680017401688610065001A7
:1028A00044013C02126C9C12BCDC32C450214A121E
:1028B0008C82218012800814047C02601E161C5435
:1028C00092D8441294D416C45E253E1218021220E7
:1028D000FC250416400C218E16281C1628061214FE
:1028E000C056109612008816E84E16D44E12AC420E
:1028F000127C86140A4C01200118010C012C94163C
:102900008022128C861004EC0130CC10068002A4C8
:1029100002B0023004A002C00616586C16100C1249
:10292000C87A12B48016804016841236A89616F41F
:10293000421218FE125CAE12442C12540816484083
:10294000125004163C243A201A12F028259216C878
:10295000F816AC0A167C0410043C011C821608927E
:102960001A682012900412C882122C4C218212A8DC
:10297000041406A402CC02AC0A214A18040C02E496
:102980005412BC02168CCE1274B232A48216D88CA9
:102990001A0046124C7C164CCA126084325C8A16AD
:1029A00048A02910162C0616044634040002E80636
:1029B00016D08E25D01A7812140438012406161861
:1029C00092127C14168C9016E08A16488A1A980C7B
:1029D00016A88C1404AC02BC8C126C621A2C563AE9
:1029E000DC0416A432127CB072B082256C12407ADC
:1029F0001A58921A4CC43254FE1A4C921A1CAE2128
:102A00000416EC5E1EE41E03294016D88816A84260
:102A1000299A12747C1A5410140444017052215CD7
:102A200016AC061A14D41A44061E841403127086B7
:102A30001804A002785E21CE36EC461AD4DA290CAE
:102A4000258416B4863EE818033A180C3E44100359
:102A5000290E3238041224823E18520312F0842DBB
:102A6000A003218A454E2D20031E941E033E681E9E
:102A7000031A685E2D18031AA0E623E801B81404AF
:102A800054026852126402128C0A3E6476031E08D5
:102A9000E60336EC4A16B8901AB8E02D1603255C0A
:102AA00016E8E61A0C94361C2E1A24843A18903232
:102AB0001C0A298E120802298E299412FC3412E075
:102AC0000212D4882174291616700636901A1E9C9C
:102AD000280416C45C1EFC1A031E3456031A449ABA
:102AE000125C8A3A5C90322C4E1204445AECD81E86
:102AF000D42E0421D616E0663AEC961E0002036D31
:102B00009E04410232040212108E3A14964D2003A4
:102B100021182D22035AF01E451816A40652A802A9
:102B200032B0E616D8984D7E041E1880041E2CFE86
:102B300003123C9A122CEC2D74031A20EC21E44170
:102B4000741EFC240447F4012872E4022522258225
:102B50001EF4420441A02D38054190410256102632
:102B600021924FFC014E0525223ECC4E0512B402A7
:102B70003EB0BA042D8A031EC0660532DCEC2D126D
:102B800005521C94252C322C024578520C4C21E025
:102B9000C18E619441920110942D5E04521C027208
:102BA000184A1AF83E2D960512C490218C85243AB5
:102BB000BC9832E4901608FC4192218C8520761452
:102BC00070652429948198291052E09876F0C621E6
:102BD000902956522402256C56146C21903EE4DC58
:102BE000041ECC180556BC26299A2D340516C82477
:102BF0001AD4144912214A29943E201804B2209470
:102C0000C192B2E802252285B62952494A25C07AE6
:102C100004586D0C0767FC01FE614A2DCA0632D8C4
:102C2000A292C8027ACCB6B2ECEA6102720C02A996
:102C3000BE8162853E6102A1A4A95CBA10EAC1E826
:102C400072E49E52D0A032CC022D520332D89E3E66
:102C5000F06205291625D4961C3A9A18AE89F452CA
:102C6000F0047AF45665368538453C61D6A53A8538
:102C700080419A219C219E6102219421025AE0BC4C
:102C80008D4C039E04D403F20C5C4536C1020D1634
:102C9000CE08455E4102B2F4028118B2FC227AF0FD
:102CA000C861BAFEE0620381A84D2E09B210ACE9FA
:102CB00046A1B401128A818C021BFC02F2F8026167
:102CC00048D2F0020110E4011402011E6EA15C89D9
:102CD0009AA162A1020215F00281E4051CAC895A96
:102CE000E1082D1E062D940A2DF8035E047406617A
:102CF000521EE09C092D320332FCA43EFC84031ECC
:102D0000F84C081EF4E2072B0002F632FC0A2D2CC8
:102D1000071E04380821421C04E00128B4061C0ADE
:102D2000E4014002BC014C02C42007120814121432
:102D30001810041C02D4261ED44A0A1ED036072DB1
:102D40003A072D060B32183832DC22120C442D645F
:102D5000062DB603210E12E45621644D260412D42A
:102D60005A12C01632D07C2DF8054DD003212C21EB
:102D700092320C1632D8B42DA806415421BC1E083C
:102D80009809417212F40C2D460A1004E80120083B
:102D90001204823E10F80921223234162D700B12D3
:102DA000FC2625E2320C4A216A2DB4071EF02A0BBC
:102DB000217A5EF8A406215C290825143ED4640318
:102DC0002D5407120C742D40081200BA2D0606214E
:102DD000D04128160C642D640A1610201E1C2207F0
:102DE0002D0A0C21145E0C340656F44472ECC28D8C
:102DF000EE0361464D26042D3E06259021F8211C48
:102E000012F0E6453A2116214C12E8C261402DFA33
:102E1000094D26062DD00425AA25582D84082DF20B
:102E200007216032207C16FC3021402D0209290444
:102E3000412C32E8368DB205491E418C2D7E06218B
:102E4000AE212C6156258E2D6E083EE84A065E04A2
:102E5000080952ECA62D6A032592616425202516E7
:102E6000CD680481702D1E0C21E252ECD0216E2D14
:102E7000D4052D6A062106258C4DB20941142DC0BA
:102E80000A29B62198212E41FA21064D58032DD842
:102E9000092D980C4D5E09452C4DEE055218885EA3
:102EA00000940C5E043A094DF406413045404978DF
:102EB0002D700C2914219C4DCA05490A418E2932D6
:102EC0003EF016062D1A066D1A074DFC056DE0043E
:102ED0002D700C5A18081E00C20C1EE40C0316D8E4
:102EE000844D480621121EE86A0C1EDC500312F8BD
:102EF000161EF4EE0A6D180A2D5C0A29063A18E02F
:102F00002DB60C2D300A2D6E0A1208424DAA083E2D
:102F1000E0BA062D760B1ED8C60A1EC07A032D0E07
:102F20000D2D940A2DB2032D680C4DD00925FE2DD0
:102F30004A0B2D52072190320C063EF49E034D821F
:102F4000035EF00A042996298A2D4E0A2D680C5E2C
:102F50000CE8082D340B5EEC3E044DDE0E5E144A88
:102F6000047E1C560429E856E4CE253C29584D56CB
:102F7000032D680B2DE00A1E001A042D68071E00A1
:102F80001E044D020C3EECCA065EE0880B4D680341
:102F90002D6E0E1E1440031E18340E5E1C00082DEC
:102FA000AA0A2D4A032DCE035E0CC4092D740421F8
:102FB000E61618562DE40D2D060E4D9C071E30EA20
:102FC000032DF80D2DAC0D3E2814042D16031ED82C
:102FD0005C0436B4B42DBC0C1EF03E0E1EC0560F61
:102FE0002DD00E2DEA073EA4F6072D400916004607
:102FF00036309C1C04FC0160DA04123C521E38E49A
:103000000E2DF60C2DB8092DF6093208DC2D12080C
:103010003EF0F00432F08625A01E283405122CE87C
:10302000323C2E2FFC01740C1E04DC0F1EFC520ED1
:103030001E08820C1E00A60E25901EE48C041EC0E5
:103040008C041EC816051EA81A0512B87E1EF0ECC8
:103050000B1EE4120E1D280D1D4A0E1E38640D2D88
:10306000580A1EA06A0518060C028401482C2DD4AB
:103070000E2D16101E6CEC0F1E182C101244EE2D87
:103080005E0C2DBE051EF4120E21BC1EC4AA042D1A
:10309000C8043ED8A8042DA40C121CC6217E1E1400
:1030A0001A104D6A103E20D80A2D9E0F2D020C12C8
:1030B000001E2D66103E3CCC051ED088051ED01E7D
:1030C0000E1EC4100D1C0410024CE00A1C04A801C2
:1030D0005C120E1E980C0C2DFC0F2D8608299A1ED2
:1030E0000C5E0E3E24EC0D1E848C0C3E54920C3E65
:1030F00048500C1E20F6051EC48C0D3EE0E40E4D1B
:10310000B21021904D8A062D0C0B217A1E34A20D8F
:103110002DA60F3E28A80B2D46104DA00E2DAC0459
:103120002DCE0C3E1C56055ED86A0332BC943EACD4
:103130007E101E84F60E1E78AA0E1EAC040F1E64AE
:10314000000E1E1866061ECC74061280541E48C25D
:10315000101E90C6103268023A5804299A25E81EBB
:10316000CCB60F1270082DDA0C1EB86C063A042487
:103170003E2CA40F3E48B40F1E50520D3E28CC0CDE
:103180005E0C3A0A2D40112D7A0B25EA2D70114D57
:103190008A062F1002220A1ED0740E1E9002101EE4
:1031A00078441016482416CC2816608829743C06EA
:1031B000BC019802B400101C04CC02F8080F124C99
:1031C000961E8002043ECC320E1EA8E00D1E6872D0
:1031D0000E1E9042103678FA252E1234B21E50F090
:1031E0000E1E6CF20F3E74BA0E1E7804102D0E06E1
:1031F0002D3C102D1E112D7C0529AE3E08DC112919
:10320000FC3228082D3C072D4A0F368C1A1E5450CC
:10321000101E10461032E8961E08D0111E087203C8
:103220001C06B0020403A4380F12A8903E84280D97
:103230001E64CC071E9448112D9E123E60700E3EF7
:10324000ACE00D2D40062DBE0F25D416804C2DCCA4
:10325000102D52102DCA044D680E2D160B1ED008CD
:103260000E5EE8740D3E2864101E2C9E0E1E346601
:10327000052D260729401E846C121E6056111E2C37
:103280005E111A24C81ED82A101AA0001EA4981075
:103290001E3858101C04F802D0540F2DE41016806C
:1032A0006A2D14101EBC54115E64A4122D9A1225AE
:1032B000643E18F20E29661EB408102D860F3E706B
:1032C00044032D60133ED426102D8E1229F62D00B6
:1032D000111620402D1E0F2D200F2D02102D8607B8
:1032E0001EE0BA121EA4E8101E68F6121E286E1206
:1032F0001C04400114EA103EA018041EC884031CDC
:1033000004C002C4621012748E1ECC6C121650845B
:103310001E34FA082D50101690DA1E50880F1E9891
:103320001A121E94A0032D54131A305C1E9492108E
:103330003E8020131E4892031E3014093ECCB41068
:1033400015F61DC4033EC018041E001E031248AE2D
:103350001E68C6123E7086111E40C4122D4A131AF2
:10336000BCC42D3C121658A0218E1E488E13125438
:10337000A44978123CE81ECC7E131E7C82131E9852
:1033800074122DBC111E08BA041E98880F3E983A7C
:10339000143E98F8121EC8A01125A61250BA21900A
:1033A0003A70F03E2C1E051EE0B6032D98122D0239
:1033B0000E1EC038092DFC0312285A12642C1E74EC
:1033C00066142D981156341C2D4E134DCC121E58D8
:1033D00092131E48FE102D98131E581C121E38B84A
:1033E000112D78131C049002B800131E748E131E46
:1033F0007C5411298C2DB0042DCA141AA4725E6855
:1034000032134D30122D98101E60BE13128CF41E14
:10341000484E031E24320312DCAE1EC446102DCAD1
:10342000103EC8AC062D0A052DA814126C541E744B
:10343000AA122D261221E62D321521EA1E885812D5
:103440005A783E1E6C9411252A12A8902D14151638
:10345000088012A892213A1E749A052DDE091624BE
:10346000B01E900C041E98D61325AE3EC008093E2F
:10347000104203166C221E68D8143E80CA052D2AFD
:10348000113ED4180F1EB412151EA07C032D300A55
:10349000560CAC12703029643E482405299425ACA2
:1034A000329CEC3E702E141254921E6442151E483B
:1034B00078121E480C12324C901AB43C216A1A68D9
:1034C0003A2D8E072DF20A1698D63E8016122DC080
:1034D000112D2C112D60151E9040121E58DA131E4E
:1034E0006036051E4416153ECCF8112D40133EB82B
:1034F0000E161ECC7C031E4050111E30FE1332648B
:10350000541E6CC6133E3CC8072DBC141EB8EC12EA
:103510001290042DFC133E7CBA132D7C041E4C34F7
:10352000131EF8AE063E7CE6121A7CD221901E6471
:1035300084152D74082DA8091EC86A141E345A1447
:103540001EBC36032D26082D4C123E58CE123A7062
:10355000F02D04051E1C5A082D16072DC8123EB466
:10356000C2052D6E0B3E2CD0152D8E0436644C2DCD
:1035700094166D00112D90154DDA1696A4B62DD225
:10358000141E48E6041E6422031A382C252016E473
:10359000823E70C8042DF0072D02081E8872151691
:1035A000801A3E0C2C171E0CF804216049382DC4DB
:1035B000111E38E4133EE458113EC0D4124D820F60
:1035C0002D20033E605A151E3C16045E54E2034D46
:1035D000C60F2DD4142DE40541922D5E155E706644
:1035E000031E188C043E3C3C141E0052051804981F
:1035F00002FCD01E60AC04290E1EB81C0829121E45
:1036000044520616B47E3E24AE0C1A240C2D2A0316
:103610001E684A161E24C2072DFA072D62073E9C1B
:103620003A064D1E0A3E001A085E4C88133E287E5C
:103630001721E24D280A4D1E1225FE2D88112D4C12
:10364000041E7062031E50EE031E300618218E1EEB
:10365000889E061E445E163EF82A062DA20B1EF416
:10366000D4162DBC033AAC681AC8C23E3CCC0C3E02
:103670002CB8033E5C260325304D4A16299C3ED4C7
:103680003A0C2D7C162D0C185E38FE172D86079EE1
:10369000147E171E0826145E0824144DDA134D6894
:1036A000142D88181A44421E3C46151E5C78041ED0
:1036B0009420061E5822061EFCEE163A309E1ED09E
:1036C00004152D28161EA00408127CA01E3C5407C9
:1036D0002DE2072D5A031E7056153E2C54174D8EA1
:1036E000182D4A153EB4960B5E1C700B2D52182DEA
:1036F0008A134D7C112D04172DAA145EE8F2134D88
:10370000261921922D24192D80151E840217527C12
:10371000961EDC42071ED462031208921804A0020F
:10372000DCCE2DFA0A2DEC165E90EE062DFC073E3F
:103730003C34073E005C032D10152D64152DA006AA
:103740002DA40E2DEA0D2DAE142D26132DB60A4DE7
:103750005E0B2DF41221B625BE2D5C054D1C0C9E72
:10376000048C152D920A2DF6112D44132DF2181EDE
:103770009C60162D3E061E5C221618045402C83C9E
:103780001E3490071E6C1A171E8838091ED8F405BF
:103790002D9C052D9E0E3EC82C151E3C8C051E60D2
:1037A00004153E0C82142D3C0A1E10B40B16C03EAC
:1037B0002DD6032D80031EDCBA0725CA25922DE6DF
:1037C000083E2CF2032D94092DB0162D50064D9075
:1037D0000F4D30102DF6112DE20B2DFE184D6C14EF
:1037E000298621922E3C0A04151C3EB8400C1A640E
:1037F000E21E6044051ECC501921942D520525C0AF
:103800001C04EC0180BA031A4C3249182DBC0B1E63
:10381000F45E17251A1E60D80A2D140B4D9C0A2D34
:10382000AC0B3EE0680E1E34FA052D2A0C1E3C52ED
:103830001949D64D7E0C5EDC30172DDE094D020B8A
:103840002D08042D78162DA21A1EB09A041E88A0E9
:10385000091A70381E7CA4051E70740F2D300716CF
:1038600080281EC44C161EA078091ED0200B4D04C3
:10387000193E54E00829403E2C40142D420B2DA047
:103880000B29F01E34940C251A5A24B829562118F5
:103890003E2004173E481E045E08EC065ED8441421
:1038A0002DC20F4DA20F2DE21829BA2D721A3EA477
:1038B000E4191E7C380D1EA8C4191240FA3E484C6B
:1038C0001825021AA0B03EE0740C2DCC082DF4038C
:1038D0001E50D61721821E282C0D3EF46A1B16F8A6
:1038E000262D3E0B4DE8082D6C0A4DDE074D860F48
:1038F0002D1C185E34EE1A2DDC172D0E032DD61854
:103900002D6E1525165EDC2C178D561712C4941ECD
:1039100098000A1E5C020A16F8261E90160316006E
:10392000B81E9828052D16193EC4D4132D8A111ED1
:10393000C8C2091E30660B2D0A0D2DB8043E30FC9E
:10394000192D880A2D5C184DCE1A4D220D2DC00D53
:1039500021165E08DE0E2D8E042D1A182D9C142DB6
:1039600020054D60182D1E162D4C1C5EE8D60F2D1F
:10397000A01C2D5414259A1EA49A1C1E6C881B2F63
:10398000EC01DE182D740D3E74FA092DDE035EE0A5
:103990005A0F25F81EF4C00B3E249C0E3E1C160D3B
:1039A0002DAA0D2D5E045E1C5A1A2DF016419A2583
:1039B0001E6D5A0F9E102A152D18032D82194D5079
:1039C000166DE2142D38143EDC78062D48193EB0F1
:1039D00070071E8CB8062DBE192D70083E64061C9B
:1039E0004D4E1C2DC8032DFE042DA81B2D2C102D73
:1039F0008C0D2D500C2D7C0A2DD40B2D72044D6A8C
:103A00001B2D8E1D2DEE1A2D3A06410C2DF8115E40
:103A100014A2185E08101A9E04EE146DA6134D78B9
:103A2000128DF60F25B82D12072D0E0D1E9C780C49
:103A30002D32082DE6114D701B2D6E1C1A149C3A68
:103A400030204D68175EE8A00F2DB01041FC2D0E00
:103A50001A4D6C174D8C1C29D8658A4D6E146D401B
:103A60001E5E10AC167E10461745304D0C186D1AB0
:103A70000456EC426DBA165ED850122DB00C5E1092
:103A8000AE185210EE6172414A4D1A1A41724D0C35
:103A90001861705E0CB8104DF812FEF84817AD8032
:103AA000178DE6147EF8EA168DE4160E17045416E8
:103AB000EFFC01861641680118306D5217ED44176E
:103AC0007E08CA170D10B01692F82EAD6E170110B1
:103AD00084E16CA14AADB412613EED101761BA4D9C
:103AE000CA17AD60188D0C188D4E16CDAC15654AF1
:103AF0006D5019ED94170D20F0150D10D2170D24EF
:103B0000AA200128340D10241876040E4D4616897B
:103B100010E55A96040CADB6190D127C18EDF61787
:103B2000A5A6EDDE168D9E1869522D00095E18A619
:103B3000062DAC146D601D2D5A064D9E15E182C1F7
:103B40005A5EF8420561D4C9123E0450032D3A135F
:103B500049E66DD4057EEC4A0361362D82042DE4DE
:103B60000381804DB6152DF01C4D1E164D32036994
:103B70004C2D1E167208A26DC814693649FE5EF4FB
:103B8000D81961B66DAC142D20156D661B4DB403AC
:103B90008D2E036DEA172DDC135A04486D0C1E6D33
:103BA0001C1B8DEC1561904D40064D34182DE41D05
:103BB00041F26DA81E6DB2166DC0154D3A099EFCFE
:103BC000D0098112BEFCF8156D7A158D28234DF8A9
:103BD0001676080692F8926DB215859E52F0BA726A
:103BE000F0524D1019DE08C4034DD2044D22178146
:103BF000D4ADD6034D521E6D361781A0A95A4D6C17
:103C000019FAF87E8D5819694092F84A0912BC8158
:103C1000C44550BA08D8A11E0E1F04EC0385C4E1A8
:103C2000126990CD3203CD2C030510840D10A6052A
:103C30000D120A1C0217048A0120188DCC040F2EC5
:103C4000FC0180040D1CA61C0D28C41C0D2CC025D5
:103C500001128E2DA2189E102608E5D4051AA2A9DD
:103C6000C40134A8051A44E96A05164801161C0562
:103C7000200C01322005488E0D18E8060D22D406CE
:103C800005101A011ED00DBC7C28019A02091E4C99
:103C90002DC0191E1478176D941B4D28074D580A16
:103CA0004DB4237EF4260A8DAC059E089005ADD652
:103CB000054DC61B5E1C361A81264DBE1C4DE80EF6
:103CC0004D9C1C5EF4AC1C4D881C6D22079EF8B404
:103CD000054D3E078D7807BE08D203ADA806AD0E90
:103CE00006ADAC058D6C078DBC068D800692F41E6A
:103CF0000D24FC05CD62094D701DCDCC0801107856
:103D00008124D2FC88EDA404AD14070D18900B4D4E
:103D10001E0C6DE2226D060A4DF0244D5A248102DC
:103D20002D661A5E105A247EF814214D6E256DB64C
:103D30001D4D6E0D4D24242D3C0F5EC4AA143EC8AB
:103D4000841E1EDC40152D66204D62182DD0272DB7
:103D5000682A2D3A1A5E2854072DD40C5EE8060D09
:103D60002DC2104D7E252D5C1E5E1490094D142B26
:103D70002DA80F2D8E0E7E1C9A0A61CC4D061F4D6C
:103D80008A0DBEECB80649907A08724D741F4DEA50
:103D9000222D94262DD4162DFE174D9C262D161956
:103DA0005ED40A292D66153E38C2283E54B4102D23
:103DB000DC112D940D2D5C104DDA234DB0272DBC58
:103DC0000D4D6A1F2D56272D44295228B42DF2106F
:103DD0002DC82A5E1C16276D820C6D740D5EF024B2
:103DE000037EF8781E9EF8DC0C6D18154D6A292D9F
:103DF0007A102DD4243EBC62262D381E5E08760330
:103E00002DF41A5E4030292DCC144DA60F4DBA2743
:103E10002D32102D3A102D82124DB00E4DBC1E2D9C
:103E2000580E4DDC265E20541C25665220E04D487D
:103E30000E5E04140C76F8E692F0B64D2E1F49BEC5
:103E40007EF4F2245EE0301829063EB4262A5EC8CD
:103E500002202D3C1C4D1A163E40742821064D5060
:103E60000F4D140B2D661E459229025EE05C132D4A
:103E700094105E1038275E203C27410A4D6A28AD19
:103E8000B8256D8A270D104E260F10F401680A5EC2
:103E9000F8DA1E2D0E1B2D2C262D121C298052DC2B
:103EA0002E2D12103E249C2D4D962D2DD61725D04B
:103EB0006D0C226DBC0F4D1E257EECE8274D622651
:103EC000AD64266D3C11BE1416296D24264D3E1F8F
:103ED0004D60299EECC8286DE4214D2C1B2D202A15
:103EE00041A04D242A2D202A4D38125E080A282987
:103EF000AC49B04DAC2A6D58282D74104DB42B6DC3
:103F00005C215EF4F20D4D66262D22292DF4036D01
:103F1000E0117E18C0294D6E0C45DC4D74124D68C1
:103F2000297EE4601189BC6D4E0D25C04DF2144D03
:103F300014285EE86E2A36080E25502D1E1921AA77
:103F40004D24036D8E294DFA214D4A044D40274DD5
:103F5000940C5E0C022E2DBE0D2D661E2D96034D6B
:103F6000802925FE4D1C286DAC1249AC72ECAA9636
:103F7000E85A8D962945462D581B1EE884122D4A75
:103F8000062D44142DDC1F2DBC2E2D82162DF42C55
:103F90002D902E3A34787618044DF01125466DC4D4
:103FA0000D2DCC125E1024054DA81161964D3224C2
:103FB0009E086C0FAD94066D72278D58036D4A13E1
:103FC0002DC8284D2A285EC06A2921B65EDCB00CB7
:103FD0002D9A054DB02F2DF2032DA62F2102217809
:103FE0002D26257EF4AC2B4DDA054D920E6D402F1B
:103FF00065364D3A135E1012124DFE299200ACAD9B
:1040000010076DE00345565EF8EC124DAA035EE41E
:1040100026152DDA1E5ED0342B4D02222DC6132D0F
:10402000EC202D58302D92042D46182D4A2D4DE2AE
:10403000212D84247EFCF8232D84304DD42C2DC8D2
:104040002C4D3C03619A4DF22C6D9E2AD208B24D44
:104050002A089EEC9A0469926DC2194D762C2DB6F1
:104060002A4D0C2A2D04144D0E2A4D08240D123A07
:10407000032D062D4D58219E0C2A138DB2126D78FA
:104080002465DC9E0C04296DEE2A8D881389DA6D77
:1040900052297EE84603410E5EE4082A4DFC2D4D70
:1040A000DC032D42164D2C146DB02A2D46065224E9
:1040B0009E7E283C2C7218AABE10642BA9704D2C31
:1040C0002E4D7604960C6865620D10C02C7AE08443
:1040D00041024D9E147EDCD42C8DA22B0D12FE2DA0
:1040E00041944DAC057E1C3616921C1C7E14DC2AB5
:1040F0006D3C2BCD162CCD70126D00094DAA0F6DA5
:10410000522B6D3C2B4D32085ED8D020453849AA41
:104110006D24114D3E2C4D082E41929E18E8044D01
:104120009605ADC42A4DBE155E0C76064D1214AD33
:10413000DE2B6D26138D14146DEA269EF0D60745EE
:10414000EA4DD20841AC45446D482B9EF4A42E653F
:10415000388D80058D8405B21498520CCE0D105008
:104160002D0D1068044D5A288DDE158DB409699007
:104170008D7604ADDE2A8D1415ADDA2F69E4CDE419
:104180002FA1148DEE2D6534FE08FE044DBC272DA5
:10419000D6297EF8D22A5EFC04132D02085EE814AC
:1041A000074DE03149884DCE178D640A6D44288D46
:1041B00006136DDA16B21094651E960C366D9805CE
:1041C000CDF204AD5A130D1CF2160D10BE2C8D0449
:1041D0000B8D4E2D7EF4A42F6172920C8861944D4C
:1041E00030042D4C042D340A4DBC1C2D5A282D387A
:1041F000272D6E261EE4AC1C2D34212D56211E3891
:104200006C261E1C321E4D8A067E08EE0C11021F03
:1042100000109F3A6E01A83A000400093D0000001A
:040000050800018965
:00000001FF
